:020000040800F2
:10000000984F00206D020008E92500081923000818
:10001000E5250008350400081D2A0008000000003E
:10002000000000000000000000000000A126000801
:10003000890D00080000000031260008CD260008C8
:10004000870200088702000887020008870200086C
:10005000870200088702000887020008870200085C
:10006000870200088702000887020008870200084C
:10007000870200088702000887020008870200083C
:10008000870200088702000887020008870200082C
:100090003904000887020008870200088702000868
:1000A000870200088702000887020008870200080C
:1000B000D527000887020008870200088702000889
:1000C00087020008870200088702000887020008EC
:1000D00087020008870200088702000887020008DC
:1000E00087020008870200088702000887020008CC
:1000F00087020008870200088702000887020008BC
:1001000087020008870200088702000887020008AB
:10011000870200088702000887020008870200089B
:10012000870200088702000887020008870200088B
:10013000870200088702000887020008870200087B
:1001400045040008870200088702000887020008AB
:10015000870200088702000887020008870200085B
:10016000870200088702000887020008870200084B
:1001700087020008870200088702000800000000CC
:10018000870200088702000887020008870200082B
:10019000870200088702000887020008870200081B
:1001A00000000000000000008702000800F002F8D4
:1001B00000F04CF80AA090E8000C82448344AAF1B5
:1001C0000107DA4501D100F041F8AFF2090EBAE8B3
:1001D0000F0013F0010F18BFFB1A43F0010318477B
:1001E00028630000486300000A4410F8014B14F033
:1001F0000F0508BF10F8015B240908BF10F8014B78
:100200006D1E05D010F8013B6D1E01F8013BF9D1C0
:10021000641E03D0641E01F8015BFBD19142E4D35C
:10022000704700000023002400250026103A28BF54
:1002300078C1FBD8520728BF30C148BF0B60704758
:100240001FB505F0D6FF1FBD10B510BD00F0BCF8FE
:100250001146FFF7F5FF02F0E1FD00F0DAF803B414
:10026000FFF7F2FF03BC00F0DDF80000094880470B
:1002700009480047FEE7FEE7FEE7FEE7FEE7FEE788
:10028000FEE7FEE7FEE7FEE704480549054A064BA0
:1002900070470000C1270008AD0100089849002000
:1002A000984F0020984B0020984B002053EA020CF6
:1002B00000F069802DE9F04B4FF00006002B1FBFC6
:1002C000B3FA83F503FA05F424FA05F65E4012BF8B
:1002D0001643B2FA82F502FA05F4C5F120051EBFF5
:1002E00022FA05FC44EA0C04203556EA044C4FEA95
:1002F000144418BF641C4FF000084FF000099042EE
:1003000071EB030C39D3002919BFB1FA81F701FA57
:1003100007F6B0FA80F700FA07F6C7F120071EBF0C
:1003200020FA07FC46EA0C062037B6FBF4FCA7EBE4
:100330000507103F07F01F0BCBF120062CFA06F63D
:100340000CFA0BFB44BFB3460026202FA4BF5E4629
:100350004FF0000B5BEA060C08BF4FF0010B19EBE6
:100360000B0948EB0608ABFB027C06FB02CC0BFB3F
:1003700003CCC01B71EB0C01C1E70B4602464146A2
:100380004846BDE8F08B13B5084318BF4FF0FF3067
:100390000146AFF30080BDE81C40704770477047CE
:1003A000704710B500F008F8006810BD10B504469D
:1003B00000F002F8046010BD00487047D00600202D
:1003C00000487047D00600207546FFF7F9FFAE469B
:1003D00005006946534620F00700854618B020B551
:1003E000FFF752FFBDE820404FF000064FF0000736
:1003F0004FF000084FF0000BAC46ACE8C009ACE889
:10040000C009ACE8C009ACE8C00921F007018D467D
:10041000704710B50446AFF300802046BDE8104099
:10042000FFF71DBF01491820ABBEFEE72600020002
:1004300070470000FEE7000040F62C00C2F200000A
:1004400000F0A2BD40F65400C2F2000000F09CBDD6
:10045000F0B585B090ED022A9FED613A90ED000A6B
:1004600090ED011A22EE032AB6EE004A30EE010AA0
:1004700022EE042A9FED5B5A30EE020A40F28075AC
:1004800020EE050AC2F2000585ED000A90ED006A33
:1004900040F2502736EE411A32EE011A21EE051ACB
:1004A00085ED011A90ED001A90ED016AC2F2000785
:1004B00036EE411A32EE011A21EE051A85ED021AC6
:1004C00090ED001A90ED012A90ED026A31EE021AC9
:1004D00026EE032A22EE042A002032EE411A04906E
:1004E000CDE90200B7F90E0021EE051A85ED031AD9
:1004F00001EE100AF8EEC10A07F1240002F0BAFA80
:1005000001AC20468DED010A00F0D2F99DED010A03
:1005100040F23076BDEEC00A10EE100AC2F20006BC
:100520003080B7F9DA0095ED010A01EE100AF8EE15
:10053000C10A07F1F00002F09DFA20468DED020A93
:1005400000F0B6F99DED020ABDEEC00A10EE100AE9
:100550007080B7F9A60195ED020A01EE100AF8EED7
:10056000C10A07F5DE7002F085FA20468DED030A18
:1005700000F09EF99DED030ABDEEC00A10EE100AD0
:10058000B080B7F9720295ED030A01EE100AF8EE99
:10059000C10A07F5227002F06DFA20468DED040ABB
:1005A00000F086F9318840F2000209BAC2F2000276
:1005B000090C918371889DED040A09BAB388BDEED8
:1005C000C00A090C10EE100A1184190A9177010A69
:1005D000F080D37782F8221082F8230005B0F0BDB6
:1005E000000080428988083E10B540F25024C2F2D3
:1005F0000004216F04F124008847D4F83C1104F171
:10060000F0008847D4F8081204F5DE708847D4F863
:10061000D41204F522708847D4F8A01304F555705D
:100620008847D4F8F41304F56A70884740F2000054
:10063000C2F200000021C0E9071110BDF0B581B081
:1006400090ED000A91ED001A20EE000A21EE011A49
:1006500030EE011AB1EEC10A0C460546B4EE400A6E
:10066000F1EE10FA80F10A8140F27C76C2F20006C7
:1006700096ED001AB0EEC02AB0EEC11A9FED823A94
:1006800032EE411AB4EE431A40F27877C2F2000714
:10069000F1EE10FA87ED000A0EDD40F26870C2F24A
:1006A00000000121017040F27470C2F200000021CC
:1006B0009FED770A017026E09FED740A40F26870A2
:1006C000B4EE401AC2F20000F1EE10FA0DDA002189
:1006D000017040F27470C2F200000122027040F218
:1006E0006470C2F20000016039E00078012840F037
:1006F000A58040F26470C2F2000090ED000A9FED08
:10070000641A30EE010A40F264709FED621AC2F280
:1007100000009FED612A80ED000A30EE010A60EED4
:10072000020A9FED5E0A04F0C7FAB7EE001A30EE37
:10073000010A81EE000A9FED5A1AB4EE410AF1EE69
:1007400010FA05DD40F26870C2F20000002101706D
:1007500040F27470C2F200000078012844D140F2E7
:100760006470C2F2000090ED000A9FED491A30EE6D
:10077000010A9FED4C1A80ED000A31EE400ABBEEF3
:10078000041A60EE010A9FED450A04F095FAB7EEEF
:10079000001A30EE010A81EE000A9FED431AB4EE12
:1007A000410AF1EE10FA05DA40F27470C2F200006C
:1007B0000021017040F26870C2F20000017840F23E
:1007C0007470C2F20000007811B394ED001A002892
:1007D00020EE011A84ED001A95ED001A20EE010AB0
:1007E00085ED000A46D139E040F26870C2F200009F
:1007F000007801282AD194ED001A20EE011A84ED28
:10080000001A95ED001A20EE010A85ED000A25E098
:1008100010B340F27070C2F2000090ED001A40F286
:100820006C7021EE001A84ED001AC2F2000090ED07
:10083000001A20EE010A85ED000A1BE040F27470F8
:10084000C2F20000007800287FF489AF40F26470A3
:10085000C2F200000021016095ED000A206840F21C
:100860007071C2F20001086040F26C70C2F20000C8
:1008700080ED000A3868306001B0F0BDB0EE410A8A
:1008800004F04CFDF0E600BF00007A4400007AC49A
:100890000AD7A33B866198BF3D0AD7BF54F82D40C5
:1008A00077BE7F3F9A99193E0AD7233C000000008B
:1008B0002DE9F04F81B02DED088B82B040F6A015E8
:1008C000C2F2000595ED010A9FEDEF1AB4EE410A60
:1008D000F1EE10FA0FDD40F25020C2F2000090ED70
:1008E000131A9FEDEA0AB4EE401AF1EE10FA7ADD1F
:1008F00080ED130A80E0044640F2C060C2F20000BE
:100900000068012800F0BE80002840F0B28140F26B
:100910005020C2F2000090ED0C0A90ED3F8A90ED5D
:10092000729A90EDA5AAB0EEC01AB0EEC82A31EEC8
:10093000021AB0EEC92A31EE021AB0EECA2A31EE1E
:1009400002BA80EE0B0A40F60400C2F2000080ED0D
:1009500000BA10EE100A05F0DBFB88EE0B0A41EC42
:10096000110B40F66826C2F2000686ED001B10EE61
:10097000100A05F0CDFB89EE0B0A41EC110B86ED58
:10098000021B10EE100A05F0C3FB8AEE0B0A41ECC5
:10099000110B86ED041B10EE100A05F0B9FB9FED5C
:1009A000C10A40F66C128BEE001A41EC100B40F6B7
:1009B000601186ED060BB7EE000AC2F20001C2F22A
:1009C0000002B4EE401AF1EE10FAC8BFB0EE401AC1
:1009D000288981ED001AA0F128010A2980F097806A
:1009E0009FEDB10AD9E09FEDB30AB4EE401AF1EEE3
:1009F00010FAB8BF80ED130A90ED461A9FEDAC0ACD
:100A0000B4EE401AF1EE10FA02DD80ED460A08E07D
:100A10009FEDA80AB4EE401AF1EE10FAB8BF80EDCF
:100A2000460A90ED791A9FEDA20AB4EE401AF1EE53
:100A300010FA02DD80ED790A08E09FED9E0AB4EE1F
:100A4000401AF1EE10FAB8BF80ED790A90EDAC0AC9
:100A50009FED971AB4EE410AF1EE10FA04DD4FF063
:100A60008B41C0F8B01204E19FED921AB4EE410A36
:100A7000F1EE10FA80F2FD800021CCF28051C0F836
:100A8000B012F6E040F60E00C2F20000008B40F615
:100A9000641501EE100AB8EE411A80EE010A9FEDCE
:100AA0007E1AC2F20005B4EE410AF1EE10FA85EDAD
:100AB000000A06DC9FED791AB4EE410AF1EE10FA55
:100AC00003DAB0EE410A85ED001A40F67C10C2F25E
:100AD0000000B0F9120040F6681140F63503C2F28A
:100AE00000014FF07C5298420A6017DB10EE100AAA
:100AF00005F00EFB41EC100B9FED651B03F0ACFA0B
:100B000051EC100B04F06EFD00EE100A0FE0A0F1A6
:100B10002301052928D2B6EE080A3EE0B0F5E16FC0
:100B200007DD40F63401884203D09FED5D0A85ED74
:100B3000000A94ED001A94ED012A20EE010A84EDDA
:100B4000000A95ED000A94ED023A94ED031A20EEA6
:100B5000022A84ED012A20EE032A20EE010A84ED08
:100B6000022A84ED030A84E0A0F11E01052902D2C5
:100B7000B6EE000A11E0A0F114010A2902D2B5EE86
:100B8000000A0AE0A0F10A010A2902D2B4EE000A22
:100B900003E00A2873D29FED450A82ED000A40F275
:100BA000506940F6601A40F66C1BA6F110056FF014
:100BB0000307C2F20009C2F2000AC2F2000B00BF32
:100BC000D9F8000005F0A4FA95ED040B024605F1F2
:100BD00010000B46019095ED068B51EC100B04F0C4
:100BE0009DFF0546DAF800000E4605F091FA024630
:100BF0000B462846314604F091FF0546DBF800001D
:100C00000E4605F085FA02460B462846314604F0AA
:100C100085FF04F0E7FC04EB0708C8F80400D9F8E6
:100C2000000005F075FA02460B4651EC180B04F073
:100C300075FF0546DAF800000E4605F069FA02462F
:100C40000B462846314604F069FF0546DBF80000F4
:100C50000E4605F05DFA02460B462846314604F082
:100C60005DFF04F0BFFC0837019D0C2FC8F8080099
:100C7000A6D102B0BDEC088B01B0BDE8F08F3C28D6
:100C800008BF82ED000A8AE700007044000080453A
:100C90009A9999999999D93FCDCC4C3F3333333FA9
:100CA000F304353F00F00C476666663FCDCC4C3D03
:100CB00000008045000080C5B0B540F2846100EBC3
:100CC0004000C2F2000140F2502501EBC004C2F224
:100CD000000505F12400214601F088FC05F1F00033
:100CE000214601F083FC05F5DE70214601F07EFC13
:100CF00005F52270214601F079FC40F25464C2F2FD
:100D0000000405F5557004F1180101F06FFC05F5BC
:100D10006A70214601F06AFC40F2F810C2F200004D
:100D20001C30B7EE000AF3EE040ABDE8B04001F053
:100D3000F5BA000040F2F815C2F20005687900210A
:100D40002971FFF7B9FFFFF74FFC40F62C0640F280
:100D5000000705F14C045035C2F20006C2F200074C
:100D600002F0ACF801F05CFE20462946FFF766FC75
:100D70002046FFF76DFB3046394601F039FE012071
:100D800002F060F8ECE7000070470000EFF310801D
:100D900072B600BFFEE7000010B590F820E0D0F872
:100DA00000C0AEF1010EBEF1010FDCF808E00DD875
:100DB0001EF0E05F10D0CEF3016EBEF1030F11D133
:100DC00000F1240101204FF4000235E000F124017C
:100DD00001204FF480222FE000F1240101204FF484
:100DE000001229E0012000FA0EF01860886828B18E
:100DF0004B68CC6844EAC303034303E00868CB684C
:100E000043EA40530CEB0E10C0F880310B69C0F878
:100E10008431097D012905D100F5C2710B6843F4C5
:100E200080730B605168C0F88C11126800F5C071B6
:100E3000C0F88821002001220B681A430A6010BD07
:100E40007047000010B590F82040013C012C0CD8F0
:100E5000D0F800C079B1DCF81040A4070FD100F140
:100E6000240101204FF400126FE000F12401012061
:100E70004FF4802269E0DCF80C40A40769D00CEB49
:100E8000011CDCF8B0410CF5D87E14F00404946029
:100E9000DCF8B04119BFE4085460640D1460DEF85A
:100EA0000040002904F00204D460DCF8B44104F0EE
:100EB0000F041461DCF8B441C4F307249461DCF836
:100EC000B4414FEA14445461DCF8B8211A70026846
:100ED00002EB0112D2F8B8214FEA12225A700268CE
:100EE00002EB0112D2F8B8214FEA12429A7002685E
:100EF00002EB0112D2F8B8214FEA1262DA700268EE
:100F000002EB0112D2F8BC211A71026802EB011245
:100F1000D2F8BC214FEA12225A71026802EB011288
:100F2000D2F8BC214FEA12429A71026802EB011218
:100F3000D2F8BC214FEA1262DA71006814BF00F1E6
:100F4000100100F10C01002020220B681A430A60F6
:100F500010BD00F1240101204FF40012F5E700005C
:100F600090F820100139012984BF002070470068E3
:100F7000816882688068C1F38061C2F3C0621144F5
:100F8000C0F30070084470472DE9F04F81B004466B
:100F900000684669D0F804908768D0F80CB0D0F8A3
:100FA00010A0D0F81880F10703D1002530071CD419
:100FB00023E0F90710D00121BA07816009D478072E
:100FC00000F1AA80380700F1B080204600F068FAEE
:100FD00002E0204600F066FA0025F80500F1848062
:100FE000F80300F1AA80300707D51BF0100004D0E9
:100FF000206845F400751021C160700708D51BF00A
:10100000080005D020680821C160204600F0E8F9FA
:10101000B00706D52068C068800702D0204600F0DF
:10102000E1F9700607D51AF0100004D0206845F4E5
:10103000806510210161B00608D51AF0080005D0BE
:10104000206808210161204600F024FAF00606D548
:1010500020680069800702D0204600F01DFAB00326
:1010600008D519F0100005D02068102141602046F5
:1010700000F014FAF00308D519F0080005D0206834
:1010800008214160204600F017FA300440F18F80BB
:101090005FEA497040F1888006F4807008EA102009
:1010A00028435FEA8871014648BF41F00201B2055A
:1010B00058BF01465FEA48700D4648BF45F0040539
:1010C000700558BF0D4630056ED518F070006BD016
:1010D00010380009052862D8DFE800F0035356599C
:1010E0005C5F45F008055AE020684FF48071BA054E
:1010F00081600AD4780512D4380519D4204600F04E
:10110000D3F9F8037FF56FAF17E0204600F0CEF972
:10111000F8037FF568AF10E04FF400655DE705F573
:101120000055F8037FF55FAF07E04FF4805554E7B3
:1011300005F58045F8037FF556AF20684FF4803100
:10114000BA0381600AD478030FD4380313D420463D
:1011500000F0AEF930073FF548AF4EE7204600F00B
:10116000A9F930073FF541AF47E705F500453007DE
:101170003FF53BAF41E705F5803530073FF535AF2B
:101180003BE745F010050AE045F0200507E045F093
:10119000400504E045F0800501E045F480752068D5
:1011A000816921F0700181612068042141604DB1A5
:1011B000606A40EA05012046616201B0BDE8F04F77
:1011C000FFF73EBE01B0BDE8F08F0000B0B5C8B17A
:1011D000044690F8200010B9204600F071F820680D
:1011E000016841F00101016000F040FA054600BFCE
:1011F00020684168C90707D100F038FA401B0B2866
:10120000F6D312E00120B0BD016821F002010160B7
:1012100000F02CFA054600BF2068416889070DD50B
:1012200000F024FA401B0B28F6D3606A052140F435
:1012300000306062012084F82010B0BD217E026879
:10124000012922F0800208BF80320260617E0268BC
:10125000012922F0400208BF40320260A17E0268EC
:10126000012922F0200208BF20320260E17E0268DC
:10127000012922F0100218BF10320260217F02689B
:10128000012922F0080208BF08320260617F02686B
:10129000012922F0040208BF04320260D4E901C22D
:1012A000D4E9033561691A432A431143ACF10102C1
:1012B0001143C16100200121606284F82010B0BD9B
:1012C00010B586B0006846F60002C4F200020021A4
:1012D0009042CDE90411CDE90211019133D046F2DB
:1012E0000041C4F20001884277D140F29071C2F20D
:1012F00000010A6843F64000C4F20200531C0B6070
:1013000052B900210091016841F00071016001684B
:1013100001F00071009100990021009150F8101C1B
:10132000142441F0080140F8101C50F8100C03215F
:1013300000F008000090009840F20040C4F2020063
:1013400000F5006035E043F64000C4F20200009171
:10135000016841F080610160016801F080610091E5
:10136000009940F29071C2F200010A68531C0B60B0
:1013700052B900210091016841F0007101600168DB
:1013800001F00071009100990021009150F8101CAB
:10139000402441F0020140F8101C50F8100C4FF4AA
:1013A000405100F002000090009840F20040C4F26A
:1013B0000200019102210291002103910321049175
:1013C0000921059101A900F079F8204605210022A4
:1013D00000F008FA204600F0F1F906B010BD000058
:1013E0007047000070B5016846F60002C4F20002C2
:1013F00091422FD046F20042C4F20002914218BF3F
:1014000070BD40F23871C2F200010C1D01F12005DF
:10141000002122462B46FFF715FD40F25026C2F26E
:10142000000620462946324601F0E6FB06F1CC02D2
:101430002046294601F0E0FB06F5CC7220462946FD
:1014400001F0DAFB06F5197220462946BDE8704026
:1014500001F0D2BB40F23871C2F200010C1D01F163
:101460002005002122462B46FFF7ECFC40F25020DD
:10147000C2F2000000F54C722046294601F0BCFB88
:1014800040F64C22C2F2000220462946BDE87040D8
:1014900001F0A4BC704700007047000070470000D6
:1014A0007047000070470000704700007047000060
:1014B0007047000070470000704700002DE9F04FB2
:1014C00082B000F13E4242F2004502F1FF77C4F2E1
:1014D00002050A2243F6004E4FEAB726A84208BF8B
:1014E0000922C4F2010E092E38BF4FEAB7220125A6
:1014F000002600274FF00008009208E008F10108DC
:101500000437B8F1100F06F1020600F0A6800C684F
:1015100005FA08F914EA090FF0D0D1F804B0032253
:101520000BF0030CACF10104B240012C6FEA020A8B
:1015300010D88268CC6802EA0A02B4402243826072
:101540004268CBF3001422EA090204FA08F42243A9
:10155000426005E0BCF1030F02D14FF0030C20E024
:10156000C2688C6802EA0A02B4402243BCF1020F4E
:10157000C26016D16FF0030202EA58020244D2F8A8
:1015800020C007F01C050F230C69AB402CEA0303B5
:1015900004FA05F52B431362D1F804B001250BF0D2
:1015A000030C02680CFA06F302EA0A021A431BF45F
:1015B000403F0260A2D0002243F644030192C4F2ED
:1015C00002031A684FF6084C42F480421A601A6807
:1015D000CFF6FF7C02F480420192019A28F00302C8
:1015E000724452F80C3007F00C050F24AC40A343B2
:1015F000009C04FA05F52B4342F80C30DEF8082075
:101600004B6842EA090543F60C4CDC0258BF22EA5B
:101610000905CEF80850C4F2010CDCF800209C0249
:1016200042EA090558BF22EA0905CCF80050DEF865
:1016300004209C0342EA090558BF22EA0905CEF8B6
:101640000450DEF80020DB0342EA090558BF22EA15
:101650000905CEF80050012550E702B0BDE8F08F33
:10166000002A08BF090481617047000044F29060BD
:10167000C2F200000068704740F2C46044F290611A
:10168000C2F20000C2F2000100780A68104408604B
:101690007047000080B543F60040C4F202000168C4
:1016A00041F400710160016841F4806101600168EA
:1016B00041F480710160032000F0C0F80F2000F0B9
:1016C00005F800F059F8002080BD000070B586B024
:1016D000002543F640010195C4F202010A68044660
:1016E00042F001020A60096801A801F001010191BC
:1016F0000199694600F0A0F9049E002E18BF01264A
:1017000000F0BAF94DF68361B040C4F21B31A0FB82
:1017100001014FF0FF3000EB914140F6D400C2F2DE
:1017200000004FF0804240F2E733C0E90021C0E9F9
:1017300002530561856100F03FFC0546C8B940F6DB
:10174000D400C2F2000000F067FC054688B91C20F6
:1017500000F034F80F2C0BD81C2021460022002565
:1017600000F040F840F2C860C2F20000046000E0FF
:101770000125284606B070BD82B0002043F6400126
:101780000190C4F202014A6842F480424A604A6809
:1017900002F480420192019A00900868002240F011
:1017A0008050086008680F2100F080500090009879
:1017B0006FF0010002B000F015B80000002848BF2B
:1017C0007047C1B200F01F00012202FA00F04EF291
:1017D0000012CEF2000242EAD10121F003010860BA
:1017E0007047000010B54EF60C5CCEF2000CDCF831
:1017F0000030C3F3022E8EF00704042C28BF04240B
:10180000BEF103034FF0FF3E0EFA04F438BF00238D
:10181000A14399400EFA03F39A43114300F00F02DB
:1018200000F160430901043A03F56443624400286F
:1018300048BF02F10C03197010BD00004EF60C51A8
:10184000CEF200010A684FF6FF031A4060F30A2245
:1018500042F0806040F0FD700860704770B582B063
:101860000020019043F64000C4F2020001684026C7
:1018700041F0805101600068C4F20E2600F08050F3
:101880000190019847F204050120C4F20005306080
:10189000FFF7ECFE044600BF2868C00306D4FFF73C
:1018A000E5FE001BB0F57A7FF6D90EE001207060EE
:1018B000FFF7DCFE044600BF2868800308D4FFF76A
:1018C000D5FE001BB0F57A7FF6D9032002B070BDBB
:1018D000002002B070BD00002DE9F041002800F0AA
:1018E0008B8043F60808C4F202080446D8F8F803CF
:1018F0000D4600F00F00884207D288F8F853D8F858
:10190000F80300F00F00A84276D12068810717D5B0
:10191000410705D5D8F8001041F4E051C8F800108F
:10192000010705D5D8F8001041F46041C8F800104F
:10193000D8F80010A26821F0F0011143C8F8001097
:10194000C0073FD1D8F8F80300F00F00A84207D92C
:1019500088F8F853D8F8F80300F00F00A8424BD1EC
:101960002068410707D5D8F80010E26821F4E0515B
:101970001143C8F80010000708D5D8F80000216905
:1019800020F4604040EAC100C8F8000000F09CF874
:10199000D8F8001046F2D842C1F30311C0F6000295
:1019A000515C40F24C6220FA01F140F2C860C2F290
:1019B00000000068C2F200021160FFF787FE0020FD
:1019C000BDE8F0816068811E022907D258F8081C22
:1019D00089015CBF0120BDE8F08110E0012807D13A
:1019E00058F8081C89035CBF0120BDE8F08106E0BF
:1019F00058F8081C890702D40120BDE8F081D8F806
:101A0000001021F003010843C8F80000FFF72EFE84
:101A1000064641F2883700BFD8F80000616800F040
:101A20000C00B0EB810F8DD0FFF720FE801BB84279
:101A3000F2D90320BDE8F0810F22026043F60802CC
:101A4000C4F20202136803F003034360136803F057
:101A5000F0038360136803F4E053C360D2F800C05E
:101A60004FF4E05303EADC030361D2F8F80300F01B
:101A70000F0008607047000040F24C6043F6080118
:101A8000C2F20000C4F202010068096846F2E842AE
:101A9000C1F38221C0F60002515CC84070470000CB
:101AA00040F24C6043F60801C2F20000C4F20201A9
:101AB0000068096846F2E842C1F34231C0F600020C
:101AC000515CC8407047000010B543F60404C4F2EE
:101AD0000204606800F00C0008280AD0042819BF2E
:101AE00042F20040C0F2F40041F60030C0F2B7000C
:101AF00010BD206821682368490241F60031C0F218
:101B0000B70100F03F02C3F388105CBF42F200410E
:101B1000C0F2F401A1FB00010023FEF7C7FB21681E
:101B20000222C1F3014102EB4101B0FBF1F010BD13
:101B30002DE9F04182B0002868D00446007843F6D1
:101B40000006C007C4F202060BD0B06800F00C001B
:101B5000042840F09C803068800302D5606800282B
:101B600054D0207880071AD5B06810F00C0F09D037
:101B7000B06800F00C00082840F0A38070684002B4
:101B800000F19F803068800702D5E06801283DD1D0
:101B90003068216920F0F80040EAC1003060207808
:101BA000000737D4207840074BD4A56955B3B068F7
:101BB00000F00C00082840F0B780012D26D0706896
:101BC000E16900F480028A4220D1216A00F03F02DC
:101BD0008A421BD147F6C071626A0140B1EB821F95
:101BE00014D1A16A4FF6FF73C903994300F4403240
:101BF000A1F580318A4209D1E16A00F07060B0EB52
:101C0000016F03D1002002B0BDE8F081012002B0D5
:101C1000BDE8F0816069002840F20000C4F247206E
:101C200072D00121C0F8801EFFF720FD054600BFDD
:101C3000706F8007B6D4FFF719FD401B0228F7D953
:101C4000D7E0306C10F080580AD100200190306C41
:101C500040F080503064306C00F08050019001986A
:101C600047F20007C4F200073868C0053ED4386860
:101C700040F480703860FFF7F9FC05463868C0050D
:101C800034D4FFF7F3FC401B0228F7D9B1E0B06869
:101C900000F00C00082803D1706840023FF55BAFEC
:101CA0006068B0F5803F07D0B0F5A02F40F08B8082
:101CB000306840F480203060306840F4803030601C
:101CC0008BE0E068002851D00020C4F247200121B9
:101CD0000160FFF7CBFC0546306880073FF558AF41
:101CE000FFF7C4FC401B0228F6D982E0A068012857
:101CF00005D005284ED1306F40F004003067306FBA
:101D000040F0010030674FE00021C0F8801EFFF76F
:101D1000ADFC0546706F80077FF544AFFFF7A6FC6A
:101D2000401B0228F6D964E00027C4F247270020B0
:101D30003866FFF79BFC022D05460BD13068800109
:101D40005BD5FFF793FC401B02284FF00300F5D949
:101D500059E700BF306880017FF554AFFFF786FC7C
:101D6000401B02284FF00300F4D94CE70020C4F2D6
:101D7000472000210160FFF779FC054630688007A5
:101D80007FF50DAFFFF772FC401B02284FF00300F8
:101D9000F4D938E7316F002821F001013167316F44
:101DA00021F00401316749D0FFF760FC054641F29C
:101DB000883700BF306F800751D4FFF757FC401BB6
:101DC000B842F7D915E03168002821F4803131603C
:101DD000316821F4802131604AD0FFF747FC054685
:101DE000306880033FF5BDAEFFF740FC401B642820
:101DF000F6D9032002B0BDE8F08104F11C052FCD17
:101E0000084340EA8210D9034FF6FF729143A1F5CF
:101E1000803140EA05600843706001203866FFF7B2
:101E200025FC0446306880013FF5ECAEFFF71EFC50
:101E3000001B02284FF00300F4D9E4E6FFF716FC7C
:101E4000054641F2883700BF306F800707D5FFF79E
:101E50000DFC401BB8424FF00300F5D9D3E6B8F1B2
:101E6000000F7FF4A2AE306C20F0805030649CE60E
:101E7000FFF7FCFB054600BF306880037FF571AEBD
:101E8000FFF7F4FB401B64284FF00300F4D9BAE6D7
:101E900070B538B10446406A30B10020206104F1C9
:101EA000140007E0012070BD6068B0F5827F03D0A8
:101EB00004F11C00002101600026A66294F8510084
:101EC00020B9204684F8506000F03CF8022084F8E5
:101ED000510094E80F0001F48271056802F4044295
:101EE00025F040050560114403F4006223691144A4
:101EF00003F002026369114403F00102A369E5697A
:101F0000114403F40072114405F03802256A1144AB
:101F100005F08002A56A114305F4005211430160E7
:101F2000626A042101EA134102F010021144416087
:101F3000C16921F40061C1610120666584F8510026
:101F4000304670BD80B586B0016845F20000C4F22D
:101F50000100814201D006B080BD002143F630026D
:101F60000191C4F20202536900F5444043F4801326
:101F70005361536903F480130193019B019113682A
:101F800043F020031360126802F020020192019ACC
:101F90004FF4707201920222CDE9022103210491D3
:101FA0000521059101A9FFF789FA06B080BD00005F
:101FB0007047000070470000002804BF01207047F0
:101FC00010B5044690F83D0028B9002084F83C0084
:101FD000204600F01FF8022084F83D002068211DF3
:101FE00000F0FEFB012084F8460084F83E0084F8EF
:101FF0003F0084F8400084F8410084F8420084F8EF
:10200000430084F8440084F8450084F83D00002033
:1020100010BD00007047000090F83D1001291CBF62
:1020200001207047022180F83D10006841F2FF72E4
:10203000C168C4F20002904241F00101C1600DDCB0
:1020400040F2FF71C4F20001884215DCB0F1804F0C
:1020500029D040F20041C4F2000122E040F2FF31F9
:10206000C4F20101884212DC41F60001C4F2000111
:10207000884218D0002112E040F60001C4F20001AD
:10208000884210D040F60041C4F2000109E044F259
:102090000001C4F20101884205D040F20041C4F2BF
:1020A0000101884206D1816801F00701062904BFB9
:1020B00000207047016841F0010101600020704775
:1020C0007047000010B5016804460869800744BFE6
:1020D000C8685FEA807038D40869400744BFC868A0
:1020E0005FEA40703DD40869000744BFC8685FEAF2
:1020F000007043D40869C00644BFC8685FEAC06086
:1021000048D40869C0071CBFC8685FEAC0704ED1D8
:102110000869000644BFC8685FEA00604FD40869D8
:10212000400644BFC8685FEA406050D40869800632
:1021300046BFC8685FEA806010BD6FF0200220468D
:102140000A61BDE81040FFF735BF6FF0020008617B
:10215000012020778869800741D02046FFF7B0FF33
:1021600043E06FF00400086102202077886910F4D2
:10217000407F3ED02046FFF7A3FF40E06FF008000D
:10218000086104202077C86980073CD02046FFF70B
:1021900097FF3EE06FF01000086108202077C869C3
:1021A00010F4407F39D02046FFF78AFF3BE06FF004
:1021B00001000861204600F03FF82168A8E76FF0B1
:1021C000800008612046FFF7F3FE2168A7E76FF063
:1021D00040000861204600F037F82168A6E7204655
:1021E00000F026F8204600F025F82168002020772E
:1021F00072E7204600F01CF8204600F01BF821682A
:10220000002020776FE7204600F012F8204600F00B
:1022100011F82168002020776CE7204600F008F8CC
:10222000204600F007F821680020207769E70000C9
:1022300070470000704700000068B0F1804F18BF81
:102240007047FFF719BA000070470000002804BF6C
:102250000120704710B5044690F83D0028B90020D1
:1022600084F83C00204600F021F8242084F83D004A
:102270002068C16821F40051C160204600F042FB93
:102280002068016921F490410161416921F02A012E
:102290004161C16841F40051C160002020212064E7
:1022A00084F83D1084F83E1010BD000080B586B063
:1022B000016844F60000C4F20000814201D006B07B
:1022C00080BD002143F630020191C4F2020213697D
:1022D00000F5E03043F480231361136903F4802395
:1022E0000193019B0191136843F00403136012688A
:1022F00002F004020192019A4FF44062019202221C
:10230000CDE90221032104910721059101A9FFF7DD
:10231000D5F806B080BD0000FEE7000000214FF0B8
:102320007E52416180ED090AC0ED0A0AC0E9072129
:10233000C262C0E90011704740F64C20C2F20000B2
:1023400040F29471007DC2F200010A7FC0F30010D8
:10235000824248771EBF00220A830877CA7E00287F
:1023600040F60000C2F2000008D14AB10A8B531CAB
:102370009AB2062A0B8316D3002228E0022A08D13B
:1023800000220A83897E042912D0012917D00078FF
:1023900070470A8B531C9AB2B2F5FA7F0B8309D3AC
:1023A00040F2022213E0052AECD140F204424A83B3
:1023B000002105E0062A06D340F201124A830121DA
:1023C000017000787047052ADCD140F203320078B2
:1023D0004A83704780B540F62C0046F20041C2F2B5
:1023E0000000C4F200010023102280E80E00C0E9C2
:1023F0000333C0E905338383FEF7E8FE002808BFF6
:1024000080BDBDE88040FEF7C1BC000080B540F64D
:10241000540046F60001C2F20000C4F2000100239D
:10242000102280E80E00C0E90333C0E9053383833E
:10243000FEF7CCFE002808BF80BDBDE88040FEF757
:10244000A5BC000080B58EB0154808AF079014A059
:1024500000F1040E9EE80E50806987E80E500D9042
:1024600007A8002100F0FCFC40F60801C2F20001C0
:10247000124A086011A000F1040E00929EE80E506E
:10248000806901AF87E80E5006906846002100F091
:10249000E7FC40F26071C2F2000108600EB080BD3E
:1024A000FC640008C52600080000000000000000D1
:1024B000800000000000000000000000F064000840
:1024C000350D0008FDFF0000000000008000000046
:1024D000000000000000000081B0002143F6300041
:1024E0000091C4F20200026842F001020260026838
:1024F00002F001020092009A0091026842F0080284
:102500000260026802F008020092009A00910268DC
:1025100042F004020260026802F004020092009A93
:102520000091026842F080020260026802F08002BC
:102530000092009A0091026842F020020260026854
:1025400002F020020092009A0091016841F002011D
:102550000160006800F002000090009801B0704730
:1025600080B540F67C0045F20001C2F20000C4F2E2
:1025700001014FF4827200234FF4802C80E80E009A
:102580000A21C0E90333C0E9053CC361C0E908334F
:10259000C0E90A31FFF77CFC002808BF80BDBDE818
:1025A0008040FEF7F3BB000080B540F61C1044F6F7
:1025B0000001C2F20000C4F2000100234FF00C0C35
:1025C0004FF4E13280E80E00C0E90333C0E905C3EF
:1025D000C361FFF73BFE002808BF80BDBDE8804017
:1025E000FEF7D4BBFEE70000FEE70000B0B5C26C0A
:1025F00004460D469047A869A063E869E063286A2D
:102600002064686AE062A86A2063E86A6063002068
:10261000A4F8440084F84600C4E90700C4E90900AE
:10262000B0BD00000000000000000000000000003D
:10263000EFF30980BFF36F8F154B1A681EF0100F70
:1026400008BF20ED108A20E9F04F10602DE9090045
:102650004FF0500080F31188BFF34F8FBFF36F8F9F
:1026600001F0FEF94FF0000080F31188BDE8090089
:1026700019680868B0E8F04F1EF0100F08BFB0EC02
:10268000108A80F30988BFF36F8F704700BF00BFC7
:10269000B009002000000000000000000000000061
:1026A000074B19680868B0E8F04F80F30988BFF35A
:1026B0006F8F4FF0000080F31188704700BF00BF9C
:1026C000B0090020012000F0BDFBFBE780B54FF012
:1026D000500080F31188BFF36F8FBFF34F8F01F06D
:1026E00031FB30B14EF60450CEF200004FF0805175
:1026F0000160002080F3118880BD000080B592B099
:10270000002043F64001CDE90A00CDE9080005901C
:10271000CDE90300CDE901000090C4F202010A688E
:1027200042F080520A60096801F0805100910099DE
:10273000009047F20000C4F20000016841F44041FB
:10274000016000684FF4800100F440400090009860
:10275000012006904FF480300D9106210790022051
:102760000E91B4210C90CDE90F100420119006A811
:10277000FFF7DEF918B1EFF3108072B6FEE7FFF74E
:102780006DF820B1EFF3108072B600BFFEE70F20A6
:10279000019002200290002003904FF4A05004907A
:1027A0004FF48050059001A80521FFF795F820B15E
:1027B000EFF3108072B600BFFEE712B080BD0000DC
:1027C0004EF68850CEF20000016841F470010160BD
:1027D0007047000040F6D400C2F20000FFF772BC60
:1027E00010B540F6FF3E0368C4F2000E40F2004C04
:1027F0007045C4F2010C0FDCB0F1804F19D040F2EB
:102800000042C4F20002904213D040F60002C4F22B
:10281000000290420DD010E040F60042C4F20002E7
:10282000904206D0604504D00022C4F201029042DA
:1028300003D14A6823F07003134341F6FF72C4F2D8
:10284000000290420DDC70451FDCB0F1804F41D09A
:1028500040F20042C4F2000290423BD040F6000237
:1028600021E043F6FF72C4F20102904220DC42F202
:102870000002C4F2000290422CD00022C4F20102F5
:10288000904227D0604525D028E040F60042C4F2AF
:10289000000290421ED041F60002C4F200029042B3
:1028A00018D041F60042C4F20002904212D015E066
:1028B00044F20002C4F2010290420BD044F600023E
:1028C000C4F20102904205D044F20042C4F2010277
:1028D000904203D1CA6823F44073134323F080026B
:1028E0004B69D1F800E08C681A430260C46240F47E
:1028F0008062C0F828E0624504BF096901630121D4
:10290000416110BD10B504460068D4E902C22369D4
:10291000016921F4405111430161626943EA0C01EC
:10292000E3691143C268194349F20C639A431143A6
:10293000C1604169A26921F4407141F20043114331
:1029400040F48062C4F201039A42416102D1FFF770
:10295000A7F801E0FFF790F8E16963681922B1F583
:10296000004FA0FB020121D15A00DB0FFDF79EFCB6
:1029700048F21F51C5F2EB11A0FB01235A094FF693
:102980009C73C0F6FF7303F1805302FB03003223F4
:1029900003EBC000A0FB01014FF4F87000EA111036
:1029A00000EB0210C1F3421108441DE09A009B0F96
:1029B000FDF77CFC48F21F51C5F2EB11A0FB01238F
:1029C0005A094FF69C73C0F6FF7302FB03003223D3
:1029D00003EB0010A0FB0101F02000EA511000EB16
:1029E0000210C1F3431108442168886010BD000043
:1029F00010B582B0086878B10C460020019000BF85
:102A00002068FEF7ADFA0028FAD0211D54F81C0BFF
:102A100001AB2246FEF7C0F902B010BDFEE7000090
:102A200010B540F67C14C2F20004B4F91200B0F5FF
:102A3000E16F02DAFFF780FC78B1012441F6000073
:102A4000C4F202004FF400512246FEF709FE40F2A4
:102A5000C060C2F20000046010BDB4F91200B0F50D
:102A6000E16FF9DAFFF768FC002818BF10BD0024F9
:102A7000E4E7000080B52DED028B9FED5E8A70B11A
:102A8000816A21F00042B2F1FF4F03D9022180F8A0
:102A9000461002E090F8462032B1C16C8847B0EE93
:102AA000480ABDEC028B80BD08EE101A017880ED5B
:102AB000010A0229C0ED020A1FD0012940F08180DD
:102AC00090ED0E2A30EE600AB0EEC03A90ED031A97
:102AD000B4EE423AF1EE10FA80ED030A80ED041AEA
:102AE0006FDD90ED0C2AB5EE402AF1EE10FA3AD0E7
:102AF00090ED063A30EE033A37E090ED0E3A30EEC4
:102B0000600AB0EEC04A90ED032A90ED041AB4EECC
:102B1000434AF1EE10FA80ED030A80ED042A80EDBD
:102B2000051A4EDD90ED0B4A90ED0C5A30EE423A0C
:102B300032EE022A90ED0D6A23EE043A20EE054AA9
:102B400030EE420A31EE000A20EE060A33EE041A95
:102B500080ED090A31EE000A30EE088A80ED073A6E
:102B600080ED084A2BE09FED233A90ED0F4A80ED6F
:102B7000063AB4EE443AF1EE10FA06DCB1EE444AFD
:102B8000B4EE443AF1EE10FA03DAB0EE443A80EDD6
:102B9000064A90ED0B4A90ED0D5A20EE044A22EEC3
:102BA000032A30EE410A20EE050A34EE021A80EDC7
:102BB000074A80ED082A80ED090A31EE008A80ED8F
:102BC0000A8A90ED100AB4EE408AF1EE10FA04DDA4
:102BD00080ED0A0AB0EE408A61E7B1EE400AB4EE39
:102BE000408AF1EE10FABCBF80ED0A0AB0EE408ACE
:102BF00055E700BF0000000010B500685368984218
:102C000040F0E38091F806C082F818C00888BCF153
:102C1000510F03BA4FEA134313824B8890FAB0FE68
:102C20001BBA4FEA1343D381898809BA4FEA11418D
:102C300091810BD3D18B01318BB2C92BD18307D3B7
:102C40000021D183022182F8201001E00021D183EC
:102C5000117F02291CD001290ED0002918BF10BDF8
:102C60001178012920D1B2F912309E4528DAAEEB55
:102C7000030101F5005429E0107801281AD1B2F9B6
:102C800012309E4546DAAEEB030000F5005147E0F6
:102C90001078012838D1B2F912309E4568DAAEEBCF
:102CA000030000F5005169E0012100241170546116
:102CB00073460BE0012000211070516173462FE034
:102CC000C6BFAEEB0301A1F500540024AEEB030335
:102CD00020B20FFA83FC84EAE031A1EBE03083EA12
:102CE000EC31A1EBEC3180B289B2A2F812E088425B
:102CF00088BF1C4620B200EE100A9FED371AB8EECE
:102D0000C00A20EE010A28E0012000211070516164
:102D1000734633E0C6BFAEEB0300A0F500510021BF
:102D2000AEEB03000CB20FFA80FC81EAE433A3EBB4
:102D3000E43380EAEC34A4EBEC349BB2A4B2A342BB
:102D400088BF014608B200EE100A9FED221AB8EEC5
:102D5000C00A80EE010AA2F812E09FED1D1A92ED62
:102D6000052A20EE010A30EE020A82ED050A10BDA6
:102D7000C6BFAEEB0300A0F500510021AEEB03008F
:102D80000CB20FFA80FC81EAE433A3EBE43380EA6F
:102D9000EC34A4EBEC349BB2A4B2A34288BF01464E
:102DA00008B200EE100A9FED091AB8EEC00A80EED4
:102DB000010A9FED071A92ED052AA2F812E020EE13
:102DC000010A30EE020A82ED050A10BD00009048AB
:102DD0000000B4432CA0194800000039E2B100689B
:102DE00040F20233984218BF704708788009907209
:102DF0000878C0F30110D0720878C0F3C000907555
:102E0000488800BA000CD080888800BA000C9080F6
:102E1000C88800BA000C908270470000FEF73AFCA8
:102E2000FFF76CFCFFF758FBFFF7D4FAFFF7EEFA59
:102E3000FFF7BAFBFFF794FBFFF704FB00F00AF87B
:102E4000FEE7000080B5002808BF012000F02CFD3F
:102E5000002080BD80B500F089FD002080BD00000D
:102E6000B0B584B043698E4693B1846984B1058955
:102E7000D0E9001C026928B2843D18BFC51CCDE909
:102E8000005360467346029400F020FF04B0B0BDCA
:102E90000589D0E90013028A28B2843D18BFC51CF9
:102EA00003AC184673460095019400F0DFFE0399C9
:102EB000012818BF0021084604B0B0BD80B58AB013
:102EC00040F67410C2F20000017869B340F69C1E0F
:102ED000C2F2000EBEF80020012A4DD140F6721C4D
:102EE000C2F2000CBCF800304AF6AB220133CAF63D
:102EF000AA22A3FB0221C90801EB4101A3EB810136
:102F00005AA3ACF8001033F8111040F2BC63C2F2BF
:102F10000003198040F67811C2F20001002209680E
:102F2000AEF8002002702EE040F67811C2F20001E7
:102F300000220A6040F67211C2F2000109880122E3
:102F40000B29027023D8DFE801F006060606060604
:102F50000606243D556740F2BC60C2F200000088BE
:102F600040F67011C2F20001088003900020022197
:102F70000590CDE906106DE040F67812C2F200022D
:102F8000116801311160652924BF002101700AB068
:102F900080BD40F2BC60C2F20000008840F67011B3
:102FA000C2F20001088040F2B460C2F20000008862
:102FB00000214FF4C0620891CDE90611CDE904115A
:102FC00003923EE040F2BC6040F2B86240F60C036F
:102FD000C2F20000C2F20002C2F20003008840F612
:102FE000701112881B88C2F200010880981840F204
:102FF000016122E040F2BC60C2F20000008840F6AD
:103000007011C2F20001088040F2BA60C2F2000002
:10301000008840F2026110E040F2BC60C2F20000A1
:10302000008840F67011C2F20001088040F2B660DC
:10303000C2F20000008840F2036103910021CDE953
:10304000051104220792020A8DF804208DF805006C
:10305000ADF8061040F62C00C2F2000003A901AA48
:1030600009ABFDF799FE0AB080BD00BF000601065E
:1030700002060306100611061206130600060106D4
:10308000020603062DE9F04381B0044600F044FB3C
:1030900044F29460C2F20000016840F6B0160131BB
:1030A0000160C2F20006316844F65C1740F6C015B4
:1030B000C2F20007C2F2000549B13868002851D1B8
:1030C0003068E16AC06A884298BF34604AE0346080
:1030D0000068012846D1284600F0C6FA05F1140020
:1030E00000F0C2FA05F1280000F0BEFA05F13C003C
:1030F00000F0BAFA05F1500000F0B6FA05F16400EC
:1031000000F0B2FA05F1780000F0AEFA44F2AC68D3
:10311000C2F20008404600F0A7FA44F2C069C2F2C9
:103120000009484600F0A0FA44F64810C2F2000038
:1031300000F09AFA44F67C10C2F2000000F094FA13
:1031400044F66810C2F2000000F08EFA40F6B410A7
:10315000C2F20000C0F8008040F6BC10C2F20000CD
:10316000C0F8009044F2A060C2F20000016844F28E
:10317000A46201310160E06AC2F200020121136819
:103180008140194300EB8000116005EB8000211D98
:1031900000F0AAFA00F0E4FA386878B13068E16A21
:1031A000C06A88420AD24EF60450CEF200004FF0B8
:1031B00080510160BFF34F8FBFF36F8F01B0BDE847
:1031C000F083000044F2986540F6C01A4EF60458A9
:1031D00044F67C1744F29466C2F20005C2F2000A7B
:1031E000CEF200084FF08059C2F20007C2F200068A
:1031F00003E000BF204600F0CBFA2868C8B100F019
:103200008BFAF868C468201D00F00EFA30680138A7
:10321000306028680138286000F0A2FA94F8510064
:103220000228EAD00128E5D070B9206B00F0B0FA8E
:10323000E0E7DAF800000228DFD3C8F80090BFF317
:103240004F8FBFF36F8FD8E74FF0500080F3118896
:10325000BFF36F8FBFF34F8FFEE700002DE9F047FC
:10326000DDE909878246386B089C00EB8200043850
:103270009946002920F0070655D0087887F83400D1
:10328000087800284BD0487887F83500487800281F
:1032900045D0887887F83600887800283FD0C878ED
:1032A00087F83700C878D0B3087987F838000879EC
:1032B000A8B3487987F83900487980B3887987F8C6
:1032C0003A00887958B3C87987F83B00C87930B399
:1032D000087A87F83C00087A08B3487A87F83D00F6
:1032E000487AE0B1887A87F83E00887AB8B1C87A1F
:1032F00087F83F00C87A90B1087B87F84000087BC8
:1033000068B1487B87F84100487B40B1887B87F8EB
:103310004200887B00281CBFC87B87F84300002040
:1033200087F8430002E0002087F834000025381DAC
:10333000062C28BF0624FC62C7E9114500F0A0F95D
:1033400007F1180000F09CF984F00700B8613046DE
:1033500051464A463F617F62FD6487F8505000F055
:103360004FF9B8F1000F386018BFC8F80070BDE819
:10337000F087000008480068006880F308884FF074
:10338000000080F3148862B661B6BFF34F8FBFF3BD
:103390006F8F00DF00BF000008ED00E081B000206B
:1033A000009040F2CC60C2F2000000684FF0500183
:1033B00081F31188BFF36F8FBFF34F8F013007D0B8
:1033C000FEE700BF009830B9009820B9009810B906
:1033D00000980028F6D001B0704700002DE9F041B8
:1033E000044600F035FB40F6B811C2F2000108684F
:1033F00044F2A86EC2F2000E30B19EF80000002820
:1034000018BF4FF0004033E040F68820C2F20000C1
:10341000C31D23F0070310F00702A0EB030718BF3A
:10342000184644F66013C2F200030026C3E9000602
:103430004FF47053002A18BF07F57053C21822F0DA
:103440000702A2F108030B6042E902661A1AC0E9FA
:10345000003244F63010C2F20000026044F2D46040
:10346000C2F20000026001208EF800004FF0004020
:10347000002C4FF0000500F0B280204040F0AF80FB
:1034800024F0070000F11002600708BF04F10802F1
:10349000002A4FF0000500F0A28044F2D46CC2F282
:1034A000000CDCF80000824200F2998044F66013C0
:1034B000C2F2000318684468944228D20568BDB17E
:1034C00006466C68944218D22F68B7B17C68944263
:1034D00016D23B68A3B15C68944214D21E6896B1C0
:1034E0007468944212D235683046002DE9D10EE05E
:1034F00044F66013C2F2000309E02846334606E0B2
:1035000038462B4603E018463B4600E030460D683F
:10351000A84212D0D3F800800768A61A112E1F60A7
:103520003CD3841863070AD04FF0500080F3118811
:10353000BFF36F8FBFF34F8FFEE700254FE066604C
:10354000426044F66012C2F2000200BF1668A64252
:103550000AD23268A2420AD21668A64204D232685F
:103560003346A242F2D303E01346324600E033462C
:103570005F686668DD19A54202D13E441C465E6064
:10358000A519954206D109688A4203D0D2E90021E3
:1035900031446160A342226018BF1C6044F63012BF
:1035A0004168DCF80030C2F2000214685B1AA342E2
:1035B000CCF8003038BF13609EF8002008F10805F1
:1035C000002A4FF0000218BF41F00041026044F6AB
:1035D0003C12C2F2000213684160581C106000F0F7
:1035E00071FC680709D04FF0500080F31188BFF3D9
:1035F0006F8FBFF34F8F00BFFEE72846BDE8F08115
:10360000034643F29D30C0F600004FF0807C21F06D
:10361000010103E903106FF0020043F8240CA3F149
:10362000440043F8202C7047D0E9013201699A60C8
:10363000D1F804C082688445536008BF4A60002204
:1036400002610868013808600868704744F6DC03C6
:10365000C2F20003036044F2D860C2F200000860C6
:1036600080201060704700004FF0FF31024642F8A2
:10367000081F00214260C0E903220160704700007A
:10368000002101617047000010B5D1F800E01EF183
:10369000010213D000F1080462681368734511D861
:1036A00053681C68744510D85A68146874450ED85D
:1036B00054682368A4467345EED90AE00269D2F83B
:1036C00004C006E09446224603E09C4601E094468E
:1036D0001A46C1F804C0CCF808108A60516008612D
:1036E00001680131016010BDD0F800C04368086175
:1036F0009A684B608A609A68996051600CF1010188
:1037000001607047DFF80C00016841F4700101604E
:103710007047000088ED00E04FF0500080F3118802
:10372000BFF36F8FBFF34F8F40F2CC60C2F2000047
:1037300001684A1C026001B170474EF60450CEF297
:1037400000000068000608BF70474FF0500080F38B
:103750001188BFF36F8FBFF34F8F00BFFEE70000EC
:1037600040F2CC60C2F20000016839B10139016059
:1037700018BF7047002080F3118870474FF0500049
:1037800080F31188BFF36F8FBFF34F8FFEE7000008
:10379000B0B5002808BFB0BD044644F2A860C2F22C
:1037A0000000007854F8041C002818BF4FF00040B7
:1037B00008420CD0A4F108052A6892B14FF05000DD
:1037C00080F31188BFF36F8FBFF34F8FFEE74FF089
:1037D000500080F31188BFF36F8FBFF34F8F00BF8E
:1037E000FEE721EA000044F8040C00F031F944F24D
:1037F000D460C2F2000054F8041C02680A4402605B
:1038000044F66010C2F200000368AB420AD21868A6
:10381000A8420AD20368AB4204D218681A46A842EA
:10382000F2D303E00246184600E01A465368D41863
:10383000AC4202D11944154651606B1883420AD13B
:1038400040F6B813C2F200031B68984203D0D0E9D7
:10385000000319446960286044F64010AA4218BF6A
:103860001560C2F20000016801310160BDE8B0409E
:1038700000F028BB4EF21000CEF2000000210160E3
:10388000816040F24C61C2F20001096844F6D352F3
:10389000C1F26202A1FB02124FF0FF3101EB921163
:1038A000416007210160704770B5002851D004467F
:1038B00044F29C60C2F20000016841B14FF0500038
:1038C00080F31188BFF36F8FBFF34F8FFEE701685E
:1038D00040F6B0150131016044F69010C2F20000CC
:1038E000C2F20005066828680430FFF79DFE60B943
:1038F000286844F2A462C06AC2F20002012113687F
:1039000001FA00F023EA000010602868A41944605E
:1039100009D340F6BC10C2F20000006829680431E7
:10392000FFF7B2FE10E040F6B410C2F200000068EB
:1039300029680431FFF7A8FE44F63410C2F20000F3
:1039400001688C4238BF046000F0BCFA002818BF40
:1039500070BD4EF60450CEF200004FF08051016071
:10396000BFF34F8FBFF36F8F70BD0000B0B588B04D
:103970000020CDE9050006A805A904AAFFF766FE08
:103980000598002842D0069C002C48D05421049A67
:103990000791079954294CD107992063022084F894
:1039A000510007A80025CDE9005043F2C510C0F62C
:1039B000000025A100230294FFF750FC2046FFF7EA
:1039C00061FB079844F6D801C2F200010860D8B143
:1039D0004FF0500080F31188BFF36F8FBFF34F8F0C
:1039E00044F63410C2F200004FF0FF31016044F69B
:1039F0005C10C2F200000121016044F69010C2F296
:103A00000000056000F06EF808B0B0BD4FF0500047
:103A100080F31188BFF36F8FBFF34F8FFEE74FF036
:103A2000500080F31188BFF36F8FBFF34F8F00BF3B
:103A3000FEE74FF0500080F31188BFF36F8FBFF3A4
:103A40004F8F00BFFEE700BF49444C450000000017
:103A500044F29C60C2F200000168013101607047CD
:103A600044F29C60C2F20000006830B144F6941049
:103A7000C2F2000001210160704744F69410C2F2C6
:103A800000000021016044F2A460C2F2000000685E
:103A9000B0FA80F0C0B2C0F11F0040F6C01100EBD8
:103AA0008000C2F2000151F820208AB101EB8001B0
:103AB00051F8040F40680A1D9042086001D1406827
:103AC0000860C06840F6B011C2F20001086070479B
:103AD0004FF0500080F31188BFF36F8FBFF34F8F0B
:103AE000FEE70000B0B584B04EF2004CCEF2000C00
:103AF0004CF27021C4F20F11DCF800294B1C9A42E1
:103B000009D14FF0500080F31188BFF36F8FBFF3DE
:103B10004F8F00BFFEE7DCF800298A4209D14FF041
:103B2000500080F31188BFF36F8FBFF34F8F00BF3A
:103B3000FEE79CF8001044F288620291FF218CF8A5
:103B400000109CF80010C2F200028DF807109DF8DA
:103B5000071001F05001117044F28C61C2F20001B3
:103B600007220A609DF90720B2F1FF3F67DC0322BC
:103B7000D31C0B609DF8070040008DF807009DF9ED
:103B80000700B0F1FF3F23DC931C0B609DF807009A
:103B900040008DF807009DF90700B0F1FF3F17DCEA
:103BA000531C0B609DF8070040008DF807009DF93D
:103BB0000700B0F1FF3F0BDC0A609DF80700043AF4
:103BC00040008DF807009DF907000028D0D4131D90
:103BD000032B34D14FF44070086002988CF8000039
:103BE000DCF8200940F47000CCF82009DCF820094A
:103BF00040F07040CCF82009FFF73CFE40F2CC6466
:103C0000C2F2000400252560FFF77CFD4EF63470FB
:103C1000CEF20000016841F040410160FFF7AAFBCD
:103C2000FFF71EFF039520684FF0500181F31188C4
:103C3000BFF36F8FBFF34F8F013010D0FEE74FF00F
:103C4000500080F31188BFF36F8FBFF34F8F00BF19
:103C5000FEE7039830B9039820B9039810B9039888
:103C60000028F6D0002004B0B0BD00002DE9F043DC
:103C700083B007469000984615468946FFF7AEFB8D
:103C8000F0B106465420FFF7A9FBB0B10446DDE9C8
:103C90000A100022266384F85120CDE9001038462E
:103CA00049462A4643460294FFF7D8FA2046FFF7D2
:103CB000E9F9012003B0BDE8F0833046FFF768FD65
:103CC0004FF0FF3003B0BDE8F083000070B586B060
:103CD0000B9CCCB10C9E06B354250495049D542D29
:103CE00025D1049DDDF828C0022586F8515005AD88
:103CF0003463CDE900C50296FFF7B0FA3046FFF70E
:103D0000C1F9059806B070BD4FF0500080F31188DE
:103D1000BFF36F8FBFF34F8FFEE74FF0500080F37C
:103D20001188BFF36F8FBFF34F8F00BFFEE74FF0D7
:103D3000500080F31188BFF36F8FBFF34F8F00BF28
:103D4000FEE700002DE9F04F81B044F29C60C2F222
:103D50000000006840B144F64410C2F2000001685F
:103D6000002401310160A9E044F69010C2F2000085
:103D700001684E1C06602ED340F6B410C2F200005B
:103D80000168096849B14FF0500080F31188BFF312
:103D90006F8FBFF34F8F00BFFEE740F6BC12C2F239
:103DA0000002016813680360116044F63811C2F222
:103DB00000010A6801320A600168096821B10068DF
:103DC000C068C068406801E04FF0FF3044F634112D
:103DD000C2F20001086044F63411C2F20001086822
:103DE00040F6B01A8642C2F2000A01D200244FE027
:103DF00040F6B41BC2F2000BDBF8000000240068A0
:103E0000E0B344F2A4690127C2F2000920E000BF38
:103E1000D8F82C00D9F8001007FA00F21143C9F8BD
:103E2000001040F6C01100EB8000C2F2000101EB6F
:103E300080002946FFF758FCD8F82C00DAF800106B
:103E4000C96ADBF800208842106828BF3C46C0B130
:103E5000DBF80000C068D0F80C80454655F8040F28
:103E6000864210D32846FFF7DFFBD8F82800002849
:103E7000CED008F11800FFF7D7FBC9E74FF0FF30AD
:103E800005E04FF0FF3044F63411C2F20001086043
:103E9000DAF8000040F6C011C06AC2F2000100EB7F
:103EA000800051F82000012844F69410C2F200006E
:103EB00088BF01240068002818BF0124204601B0F3
:103EC000BDE8F08F2DE9F04F81B044F29C64C2F25E
:103ED0000004206868B1FFF71FFC206801382060EB
:103EE000206880B10024FFF73BFC204601B0BDE80C
:103EF000F08F4FF0500080F31188BFF36F8FBFF346
:103F00004F8F00BFFEE744F29460C2F200000068E9
:103F1000002847D044F64816C2F20006306844F63E
:103F200094180028C2F2000845D044F2A46540F677
:103F3000C01940F6B01A4FF0010BC2F20005C2F2F0
:103F40000009C2F2000A00BFF068C76807F1180054
:103F5000FFF76AFB3C1D2046FFF766FBF86A2968FD
:103F60000BFA00F2114300EB8000296009EB80009E
:103F70002146FFF7B9FBF86ADAF80010C96A8842EF
:103F800028BFC8F800B030680028DDD140F6B41072
:103F9000C2F200000168096831B10068C068C068F9
:103FA000406803E000249EE74FF0FF3044F63411F0
:103FB000C2F20001086044F64414C2F2000425680D
:103FC00055B10126FFF7BEFE002818BFC8F80060F3
:103FD000013DF7D100202060D8F8000060B14EF616
:103FE0000450CEF200004FF080510160BFF34F8FBC
:103FF0000124BFF36F8F76E7002474E703B40198C0
:104000004100009850EAC12018BF04204A0D18BF93
:1040100040F0010040F2FF72B2EB515F08BF40F088
:104020000200012808BF052002B0704741000802C5
:1040300018BF04200A0E18BF40F001004FF07F4265
:1040400032EA010108BF40F00200012808BF052044
:1040500070470000000000002DE9F04D2DED040B2D
:104060002DED0E8B94B0DDE92350259CDDF888A062
:1040700025F0004624F00048BAF1000F14BF0121DA
:10408000002101EB4502FC4953184A1093422AD300
:10409000002814BF0123002303EB44030B44F7491A
:1040A0008B4220D358EA00019FEDF5AB76D0DFF8C4
:1040B000D8B35D4503D1BAF1000F05D188E0BAF15C
:1040C000000F08BF002100D0012101EB450111F5CF
:1040D000001F08D8002814BF0121002101EB440172
:1040E00011F5001F0BD99DED241B9DED220B14B083
:1040F000BDEC0E8B04B0BDE8F04D01F0C1B9002756
:10410000002DBCBFE149884521DAE1498845A8BFB7
:1041100002271CDAC3451ADCDE4901EB28511429B9
:1041200008DDC1F1340220FA02F101FA02F2824202
:104130000DD108E058B9C1F1140228FA02F101FAD0
:1041400002F2424503D101F00101C1F1020756EA32
:104150000A0124D1002C22DA002D18BF022F01D031
:10416000012F0AD00220FCF721F914B0BDEC0E8B10
:1041700004B0BDE8F04D01F06BB90220FCF716F970
:1041800001F066F951EC100B01F01FFA41EC100B35
:1041900014B0BDEC0E8B04B0BDE8F08D18E09FEDBF
:1041A000BE9B9FEDBF8B002871D1B848804522D1BE
:1041B00005F1804010F5801008BFBAF1000F07D05C
:1041C000B3450ADC002CA8BF9DED240BE0DA0DE01E
:1041D000B0EE4A0AF0EE6A0ADAE7002C06DA9DED44
:1041E000240B51EC100B01F0F0F96FE0AE4878446D
:1041F00090ED000BCCE7D8454DD1002C48DA2EB11C
:1042000086423AD1BAF1000F42D126E0BAF1000F4E
:1042100013D00220FCF7CAF801F04EF98DED020B25
:104220009DED220B8DED000B10EE900A039961F3CA
:104230001E0003909DED020BAAE78DED029B9DED04
:10424000220B19EE901A10EE900A8DED000B61F31F
:104250001E0003909DED020B9AE78DED028B9DED04
:10426000220B18EE901A10EE900A8DED000B61F300
:104270001E0003909DED020B8AE709DA9DED220BEB
:1042800051EC1A0B53EC102B01F09AFA1EE020E0CF
:104290009DED220B7CE786421BDAB4F1804F0DD0F6
:1042A000A4F10050B0F1FF5013D1002D11DB9DEDB2
:1042B000220B51EC100B01F051F907E09DED220BA0
:1042C00053EC102B51EC100B00F0CABC41EC100B5E
:1042D0005EE79DED220B51EC100B01F033F9BAF1C2
:1042E000000FCDE90A0142D19FED710B46B3A6F153
:1042F000E040B0F17F600CD05E4538D1002D00DA8F
:10430000A7B3022F0CBF01204FF0FF3001F0B2FB2A
:10431000DCE7002D01DD002C0DDA002D01DD002C85
:104320001FDB002D16DA002C14DB012F08BF9FEDD8
:10433000620B3FF42DAFB0EE490AF0EE690A27E7B1
:10434000022F18BF002D0CD0012F0AD1002DFFF62F
:104350001FAF06E0002DB8BF002C08DA012F3FF494
:1043600017AFB0EE480AF0EE680A11E71BE0012033
:1043700000EBE57050EA070115D0791EB0EE4A8ACD
:10438000F0EE6A8A084308BF9FED4D8B4E4800252A
:10439000804570DD4D494E48884514DDB0420DDB47
:1043A000002C19DB2FE00120FCF700F814B0BDEC65
:1043B0000E8B04B0BDE8F04D01F06EB8B34502DCE1
:1043C000002C09DC1FE0864202DA002C1BDA03E035
:1043D0005E452BDD002C16DD0220FBF7E7FF01F028
:1043E0006BF88DED020B53EC192B51EC180B01F00F
:1043F00095FBCDE900010399019861F31E0003903C
:104400009DED020BC4E60220FBF7D0FF01F064F83B
:1044100010EE901A18EE900A8DED020B8DED008BC8
:1044200061F31E0003909DED020BB1E69DED0A0BBA
:1044300053EC1A2B51EC100B01F07CFD9FED260B79
:10444000CDE90A0153EC102B9DED0A0B51EC100B3A
:1044500001F064FB9FED221B53EC112B01F092FC49
:104460009DED0A1B53EC112B01F058FB9FED1E1B19
:1044700053EC112B3CE08CE0FFFF1F00FFFF0F000F
:10448000000000000000F03F0000F03F0000F07F5F
:104490000000404301FCFFFF000000000000F07F2F
:1044A0000000000000000000DE220000000000000C
:1044B0000000000000000080000000000000F0FF8D
:1044C000000000000000F0BF0000E0410000F043E9
:1044D000FFFFEF3F00000000000000000000D03FA1
:1044E000555555555555D53F000000000000E03F9B
:1044F00001F048FC9DED0A0B41EC190B53EC102B1D
:1045000051EC100B01F00AFB53EC192B01F006FBE8
:104510009DED0A0B41EC1B0B53EC102B9FEDFE0B9A
:1045200051EC100B01F0FAFA41EC190B9FEDFC0B6A
:1045300051EC1B0B53EC102B01F0F0FA41EC1B0B70
:104540009FEDF90B53EC102B9DED0A0B51EC100B6A
:1045500001F0E4FA53EC1B2B01F0ECFC41EC1B0BDB
:1045600051EC190B53EC1B2B01F06EF80490CDE9C4
:1045700004519DED040B53EC192B51EC100B01F081
:10458000D9FC53EC1B2B01F0FDFB41EC100B00F0B0
:10459000A9B90020B6F5801F0EDA9FEDE50B53ECAC
:1045A000102B9DED0A0B51EC100B01F0B7FACDE981
:1045B0000A016FF034000E4600EB2650A0F2FF37E0
:1045C000C6F31300DC4940F07F6646F0405688424F
:1045D000D8BF002408DDD9498142C8BF012403DCCB
:1045E0000024A6F580167F1CD548784400EBC4084B
:1045F0000B9698ED000B53EC102B9DED0A0B51EC34
:10460000100B01F097FC98ED000B41EC1B0B53ECE9
:10461000102B9DED0A0B51EC100B01F015F841EC3D
:10462000100B51EC1A0B53EC102B01F0C9F841ECB4
:104630001C0B51EC1B0B53EC1C2B01F06FFA41ECE3
:10464000190BC0488DED0E9B78440E9590ED000B34
:104650004FF0005040EA660000EB84408DED120BF5
:1046600000F50020139098ED000B53EC102B9DEDFE
:10467000120B51EC100B01F05DFC9DED0A1B53EC8D
:10468000112B01F07FFB41EC100B53EC102B9DED37
:104690000E0B51EC100B01F041FA9DED120B41ECA9
:1046A0001D0B53EC102B9DED0E0B51EC100B01F07C
:1046B00035FA53EC1B2B01F065FB53EC1D2B01F07D
:1046C00039FC53EC1C2B01F029FA41EC1C0B53EC88
:1046D000192B51EC190B01F021FA41EC1B0B9A48F4
:1046E0000621B0EE4B0AF0EE6B0A784400F033FE80
:1046F000B0EE401AF0EE601AB0EE41DAF0EE61DA98
:1047000053EC1B2B51EC1B0B01F008FA53EC1D2B47
:1047100001F004FA9DED0E0B41EC1B0B53EC192B31
:1047200051EC100B00F090FF53EC1C2B01F0F6F94C
:1047300053EC1B2B00F088FF9DED0E0B41EC1B0B87
:1047400053EC102B51EC100B01F0E8F941EC1D0B70
:1047500053EC1D2B9FED7EEB51EC1E0B00F074FF14
:1047600053EC1B2B00F070FF1290CDE912519DED20
:10477000120B53EC1E2B51EC100B01F0DBFB53EC36
:104780001D2B01F0D7FB53EC1B2B01F0FBFA9DED29
:10479000120B41EC1D0B53EC102B9DED0E0B51EC4D
:1047A000100B01F0BBF941EC1B0B53EC192B51EC36
:1047B0001D0B01F0B3F99DED120B41EC190B53ECFD
:1047C000102B51EC1C0B01F0A9F953EC192B00F044
:1047D0003BFF41EC190B51EC1B0B53EC192B00F078
:1047E00033FF0490CDE904519DED040B53EC1B2BDA
:1047F00051EC100B01F09EFB53EC192B01F0C2FAA7
:104800009DED040B41EC190B53EC102B9FED520B5B
:1048100051EC100B01F082F941EC1B0B9FED500B9A
:1048200051EC190B53EC102B01F078F99DED040BB2
:1048300041EC190B53EC102B9FED4B0B51EC100B73
:1048400001F06CF953EC192B00F0FEFE41EC100B5B
:104850004748784400EBC40090ED001B51EC100B6E
:1048600053EC112B00F0F0FE41EC190B384601F02F
:1048700001F9CDE90A0153EC192B51EC1B0B00F0A7
:10488000E3FE41EC100B3B48784400EBC40451ECD0
:10489000100B94ED001B53EC112B00F0D5FE9DED99
:1048A0000A1B53EC112B00F0CFFE0490CDE904510C
:1048B0009DED0A0B53EC102B9DED040B51EC100BEE
:1048C00001F038FB94ED001B53EC112B01F032FB8F
:1048D00053EC1B2B01F02EFB53EC192B01F052FA79
:1048E00041EC100B9DED241B53EC102B8DED001BA8
:1048F00000959DED240B51EC100B01F00FF99DED8F
:10490000000B41EC190B53EC102B9DED240B51ECDB
:10491000100B01F00FFB2FE0000000604715F73F80
:10492000FE822B654715F73F44DF5DF80BAE543E22
:1049300000000000000040438E9803007AB60B0090
:104940001A1D0000841E00004A1C00000000000028
:104950000000000000000840000000E009C7EE3F32
:10496000FD033ADC09C7EE3FF5015B14E02F3EBEC4
:10497000D21A00008C1A00009DED041B53EC112B81
:1049800001F0CCF853EC192B00F05EFE9DED040B0A
:1049900041EC190B53EC102B9DED000B51EC100B5F
:1049A00001F0BCF8CDE904019DED040B51EC190BAD
:1049B00053EC102B00F048FECDE902010C46AA4949
:1049C0008C422FDB611A084318D19DED040B53EC88
:1049D000102B9DED020B51EC100B01F0ABFA41ECEA
:1049E0001B0B9FEDA30B51EC190B53EC102B00F09C
:1049F0002BFE53EC1B2B01F08FF92DD20220FBF77D
:104A0000D5FC00F059FD10EE901A18EE900A8DEDCD
:104A1000020B8DED008B61F31E0003909DED020BE8
:104A2000FFF7B6BB944A24F00041914214D3934956
:104A3000214408437FF4E7AC9DED040B53EC102BAD
:104A40009DED020B51EC100B01F074FA53EC192B95
:104A500001F062F97FF6D7AC24F000408849894A1A
:104A6000002601EB205182422BDA481C4FF48011C2
:104A700021FA00F02044844AC0F30A517A44A1F29A
:104A8000FF3192ED000B814A8DED0A0BCA4020EAFE
:104A90000202C0F3130040F48010C1F1140120FAA7
:104AA00001F60B92002CB8BF76429DED0A0B53EC39
:104AB000102B9DED040B51EC100B01F03BFACDE9EE
:104AC00004019DED040B51EC190B53EC102B00F07D
:104AD000BBFD9FED6F0B0A90CDE90A5153EC102BF3
:104AE0009DED0A0B51EC100B01F018F841EC1B0B7B
:104AF0009FED690B53EC102B9DED0A0B51EC100B45
:104B000001F00CF89DED040B41EC1C0B53EC102B49
:104B10009DED0A0B51EC100B01F00CFA53EC192B24
:104B200001F030F99FED5E1B53EC112B00F0F6FF06
:104B300053EC1C2B00F088FD41EC190B51EC1B0BC6
:104B400053EC192B00F080FDCDE902019DED020B25
:104B500053EC1B2B51EC100B01F0ECF953EC192B1F
:104B600001F010F99DED020B41EC190B53EC102BE9
:104B700051EC100B00F0D2FFCDE90A014A489DED3F
:104B80000A0B0521784400F0E6FB9DED0A1B51EC71
:104B9000100B53EC112B00F0C1FF9DED021B53ECE9
:104BA000112B01F0EFF8CDE904019DED020B53EC60
:104BB000192B51EC100B00F0B1FF53EC192B00F046
:104BC00043FD9FED3B0B41EC190B53EC102B9DED7E
:104BD000040B51EC100B01F0ADF99DED040B41EC11
:104BE0001B0B53EC102B9DED020B51EC100B00F046
:104BF00095FF53EC1B2B00F0E3FD53EC192B01F058
:104C000099F99DED021B53EC112B01F093F953EC34
:104C10001A2B01F0B7F8CDE9020101EB065001159E
:104C20000029C8BF039015DC9DED020B324651EC04
:104C3000100B01F022FBFFF7E1F9042808BF00F098
:104C40004BFC32469DED020B51EC100B01F015FBB5
:104C5000CDE902019DED020B51EC180B53EC102B2A
:104C600000F05CFFFFF732BB000090400000000046
:104C7000FE822B654715973C00CC904000346F3F77
:104C800001FCFFFF0000E03F501A0000FFFF0F0093
:104C900000000000432EE63F396CA80C615C20BE8A
:104CA000EF39FAFE422EE63FE01700000000000058
:104CB000000000000000004010B510EE100A2DEDBD
:104CC000068BB7EE001A10EE901AB0EE418A002261
:104CD000A0F5000CDFEDFE9A4FF00073BCF1FE4F23
:104CE0004FF07F4403EB410C80F0B481BCF1804F66
:104CF000C0F02082F74901449FEDF73AB1F5005F1B
:104D000040F2D48200F58021CB0C03F00F0101EEBC
:104D1000901AC3F307137F3BA0EBC350B8EEE12A10
:104D200000EE100A1A44DFEDED2AF0EE411A42EED1
:104D3000221AF0EE613A70EE232A30EE632A12EE68
:104D4000900A00F500606FF30B0001EE900A73EE1D
:104D5000E13A33EE804AC1EE223A22EE230A10EE07
:104D6000100A00F500606FF30B0000EE100A00EE71
:104D7000612A00EE442A62EE232A70EE221A21EE06
:104D8000A12ADFEDD73A02EE233A23EE023A20EED3
:104D9000012A22EE811A03EE211A32EE010A10EEE8
:104DA000100A00F500606FF30B0000EE100A72EEBF
:104DB000401A31EE812A9FEDCB1A60EE011A9FED69
:104DC000CA1A20EE011A9FEDC90A02EE001A31EE4E
:104DD000810A10EE100A00F500606FF30B0000EE80
:104DE000100AC34871EEC01A31EE812A784400EBF4
:104DF000C10090ED003AD0ED011A100101EE100A49
:104E0000F8EEC12A32EE211A31EE001A31EE031A01
:104E100031EE221A11EE100A00F500606FF30B005C
:104E200009EE100A39EE621A31EE431A31EE400AE9
:104E300030EE610A32EE40AA10EE900A002100F531
:104E400000606FF30B0008EE900A084670EEE8AAC7
:104E50004FF0000029EE280A00F00C01F0EEC00A25
:104E600010EE900AB0F18B4F0DDD10EE900AB4EB0E
:104E7000400F08D310EE100A4FF08B4262F31E0071
:104E800008EE900A13E069EE2A0A38EEAA1A4AEEF2
:104E9000010A30EE201A11EE100A00F500606FF3DF
:104EA0000B0008EE900A30EE680A70EE209A0C2093
:104EB0004FF0000038EEA90AB5EEC00AF1EE10FA84
:104EC00034BFFEEE000AF6EE000A30EE800ABDEEB8
:104ED000C00A10EE100A011100EE101AF8EEC00A16
:104EE00000EE100AB8EEC00A38EEC00A30EE290A09
:104EF000DFED801A9FED801A00EE211ADFED7F1A98
:104F00007F4900F00F0040EE011A21EE800A79443B
:104F100001EB800191ED001A7A49794401EB80019F
:104F2000D1ED001A784901EE801A794401EB800036
:104F3000764990ED000A31EE001AB0EEE00A10EE6C
:104F4000100A884215DA10EE100AB4EB400F10D3A5
:104F50009FED6F0A30EE800ADFED6E0A20EE200A28
:104F600068EE010ABDEC068BBCEEC00A20EE200AFA
:104F700010BD10EE100A6849884243DA10EE100A9C
:104F8000B4EB400F3ED3BDEEE00A68EE010A10EE2E
:104F9000100A00EBD0725110C90501F17E5100EEEC
:104FA000101AA0EB6200C00560EE200A00F17E50EE
:104FB00000EE100A60EE808A18EE900AB4EB400F03
:104FC0000FD10220FBF7F2F900F0ACFA10EE101A44
:104FD00018EE100ABDEC068B61F31E0000EE100AFD
:104FE00010BD18EE900A400011D018EE900AFFF79D
:104FF0001DF8042808BF00F09DFAB0EE680ABDEC69
:10500000068B10BDF5EEC00AF1EE10FA0FD20220A9
:10501000FBF7CCF900F08EFA10EE101A18EE100A19
:10502000BDEC068B61F31E0000EE100A10BD0220DD
:10503000FBF7BCF900F076FA10EE101AB0EE480A51
:1050400010EE100ABDEC068B61F31E0000EE100A94
:1050500010BD00BFBCF1804F6CD300BF00F1FF4317
:10506000B3F1FE4F24D200BFB0EEC00A10EE100A1A
:10507000C1F3C7537F2B0DDB972BBFF63BAEC3F1BC
:1050800096034FF0010C0CFA03F3A3F1010C1CEA98
:10509000010F08D00120FBF789F9BDEC068BBDE8B4
:1050A000104000F037BA0B4218BFBFEE008A21E66D
:1050B00043001CBF4FF08073B3EB400F34D96FF047
:1050C0001A02DFED161A20EE210A10EE100A27E070
:1050D00000000000001080C0ABAAAA3E0000803D86
:1050E0007EE24C3E00B03842D49AB8BB3BAA38426C
:1050F000A0150000FC596337C9FF753A1872313D9D
:105100003E15000072150000E21400000000FC4291
:105110000000FE420000004B000040430000004D34
:1051200010F0004FA0D1E5E5A0F50003B3F1FE4F6C
:1051300021D2DFE503EB4103B3F1007F11D3F5EE9C
:10514000C00AF1EE10FA05D1430018BFB4EB400FCE
:1051500076D883E701F0004141F0FC5100EE901A4F
:105160007CE7B3F1807F06D210EE903AA3F50003FE
:1051700000EE903A72E720F000426FF0FF4C604C76
:1051800002EB0C03A34210D321F000439C44A4453E
:105190000BD3B0F17E5F18BF5FEA410C50D0B2F183
:1051A000FF4F98BFB3F1FF4F05D9BDEC068BBDE8AB
:1051B000104000F0ABB9B0F1FF4F0FD0C1F3C752B0
:1051C0007F2A09DB972A11DAC2F19602012303FA3A
:1051D00002F2531E0B4205D0002208E011F0004FEE
:1051E00055D128E00A4218BF012200D1022210F551
:1051F000000F13D028B3B0F1004F26D010F1814F2B
:105200004FD04FF0FE42B2EB400F94BF0120002080
:10521000012202EBE171884239D10CE011F0004F1C
:1052200002D0012A38D032E0012A02BF9FED350AB0
:10523000BDEC068B10BD9FED340ABDEC068B10BD96
:105240002FE011F0004F0CD121E0B1F1FF4F1ED043
:1052500011F5000F05D011F0004F15D00AB1012A49
:1052600008D00220FBF7A2F8BDEC068BBDE8104089
:1052700000F042B90220FBF799F800F03DF9BDECCF
:10528000068BB1EE400A10BD0AB1012A04D0B0EE7F
:10529000690ABDEC068B10BDBDEC068B9FED1B0AA9
:1052A00010BDBDEC068BB7EE000A10BD30EE410A12
:1052B000B5EE001A9FED172A00EE413AB6EE001A3D
:1052C00060EE001A00EE431A61EEC11A9FED101A4B
:1052D00020EE011A20EE020A9FED0F2A01EE820A4B
:1052E00071EE001A11EE900A00F500606FF30B00EA
:1052F00009EE100A31EE491A31EE00AA9CE50000D1
:10530000FFFF3F00000080FF0000807F0000008062
:1053100000B0B841D49A38BB3BAAB84110B52DEDC6
:10532000028BB1EEC08A18EE100A20F00040C0F1E6
:10533000FF40C00F0AD010EE100A20F00040C0F16C
:10534000FF40C00F04BF0120FBF730F8B0EE480A61
:10535000BDEC028B10BD70B504462DED028B4D1EC9
:1053600000EBC500B0EE408AF0EE608A90ED000BD5
:1053700035F0060017D053EC182B51EC100B00F051
:10538000CDFB41EC100B6D1E04EBC50090ED001B36
:1053900051EC100B53EC112B00F056F941EC100BB3
:1053A00035F00600E7D1022D36D0042D1CD0062D95
:1053B0001CBFBDEC028B70BD53EC182B51EC100BD5
:1053C00000F0ACFB94ED0A1B53EC112B00F03CF900
:1053D00053EC182B00F0A2FB94ED081B53EC112B9F
:1053E00000F032F941EC100B53EC182B51EC100B80
:1053F00000F094FB94ED061B53EC112B00F024F904
:1054000053EC182B00F08AFB94ED040B53EC102B9B
:1054100000F01AF941EC100B53EC182B51EC100B67
:1054200000F07CFB94ED021B53EC112B00F00CF907
:1054300053EC182B00F072FB94ED001B53EC112B76
:1054400000F002F9BDEC028B41EC100B70BD0000C6
:105450009FED070B10B553EC102B9FED070B51EC94
:10546000100B00F0ADF941EC100B10BD0000000076
:105470000000000000000000000000000000F03FFD
:1054800010B553EC112B51EC100B00F0DDF841EC92
:10549000100B10BD000000009FED050B10B553EC84
:1054A000102B51EC100B00F08BF941EC100B10BDE0
:1054B00000000000000000009FED050B10B553EC4C
:1054C000102B51EC100B00F029FB41EC100B10BD20
:1054D00000000000000000709FED050B10B553ECBC
:1054E000102B51EC100B00F019FB41EC100B10BD10
:1054F0000000000000000010DFED030AB7EE001A04
:1055000081EE200A704700000000000030EE200A03
:1055100070470000DFED020A80EEA00A704700002D
:10552000000000009FED020A20EE000A7047000014
:10553000000000709FED020A20EE000A7047000094
:105540000000001082B0CDE9000121F00040019080
:105550009DED000B02B051EC100B704700B52DED26
:10556000048B83B041EC190B00F018FC41EC180BD4
:1055700018EE100A18EE901A8DED008B002818BF57
:105580000120084320F00040C0F17F6000F1E040BE
:10559000C00F14D019EE101A19EE900A8DED009B71
:1055A000002918BF0121084320F00040C0F17F60AE
:1055B00000F1E040C00F04BF0120FAF7F7FE51EC04
:1055C000180B03B0BDEC048B00BD81F000417047A7
:1055D00080F00040704721F00041704720F000400B
:1055E0007047000021F0004201F00043A2F1605238
:1055F000B2F5801F28BFD2F17F6C0BD95FEA001C87
:1056000043EAC20242EB507018BF704728BF20F037
:1056100001007047B2F5801FBCBF184670474FEAC3
:10562000410C1CF5001F02D2084600F0EFBD70B51A
:1056300000F01EFB00000089FFF7F6BF4FF00040AE
:10564000A0F580007047000010B591EA030F48BF35
:1056500083F0004300F17684841A71EB030C05D2C9
:10566000121943EB0C03001B61EB0C014FEA1154C0
:10567000A4EB135CDFF81CE11EEA430F18BF9EEA9F
:10568000445F00F0748021EA045123EA0E0343F4DE
:105690008013DCF1200E32D322FA0CFE10EB0E0048
:1056A00023FA0CFE41EB0E01CCF1200E03FA0EFEA4
:1056B00010EB0E00CCF1200E51F10001B1F5801F6E
:1056C00032D201EB045112FA0EF2BDE8104058BF7D
:1056D0007047401C38BF5FEA420218BF704700287D
:1056E00014BF20F0010041F100014FEA410313F51E
:1056F000001F38BF7047A1F1C04100F007BB012A6D
:1057000043EB0302ACF1200CDCF11F0E32BF4FF073
:10571000000E23FA0CF310EB030041EB0451B4EB41
:10572000115FD0D0A1EB045101F58011490801EBC4
:1057300004515FEA30000ED350F1000038BF12FA76
:105740000EFE08D1BDE81040C9E7401C38BF5FEA33
:105750004202CAD1C3E7BDE810404FEA410313F546
:10576000001F38BF7047A1F1C04100F0CFBA9EEAD8
:10577000445F08D011EA5E0FBDE8104004BF01F09D
:10578000004100207047BDE8104070B500F070FA8D
:1057900064FBBE3E0000E0FF02494FF0000000F055
:1057A0003ABD00BF0000F87F491058BFC1F1404129
:1057B0005B1058BFC3F140438B42EFF3008070474A
:1057C0002DE9C04130B4DFF8A4C23CEA111418BF7F
:1057D0003CEA131400F0ED801CEA111481EA030581
:1057E00044EAD57418BF1CEA131500F0C880A4EB76
:1057F000050404F17F7404F500344FF0004545EAD8
:10580000C12145EAC32341EA505143EA52534FEACA
:10581000C0204FEAC222994208BF904200F09D800A
:105820004FEA13650FF24416765D4FEA134506FB07
:1058300005F7C7F1807706FB07F74FEAD737A7FBD5
:1058400003687642A7FB06CEC8F5803838BFA8F1BA
:10585000010807FB08E6A6FB028C4FF0000EE6FBF2
:1058600003CEDCF1000CCEF1004E38BFAEF1010EDC
:10587000A6FB0C584FF00007E6FB0E87A1FB08C6FD
:10588000A0FB07CE16EB0E064FF0000545F1000514
:10589000E1FB076515F1E04E7EBFA4F580345FEAB9
:1058A00046066D4116F1800745F100054FEA1727BE
:1058B00047EA05674FEA15254FEA0666A6F1DE4678
:1058C000B6F1805F20D9384605EBC47124F0010C95
:1058D00001EB0C11BCF1FE6F02D8F0BCBDE80081F9
:1058E00024425CBF01F5801E9EEAC47F02D4F0BC56
:1058F000BDE80081244200F13980A1F1C041F0BC33
:10590000BDE8004100F002BA4FEAD02040EA415021
:105910004FEAD1214FEAD22242EA43524FEAD3233F
:10592000A7FB028607FB036605FB02661EEA0E0F55
:1059300058BFA6EB0056B6EB00564FEA520E4EEAA1
:10594000C37E18EB0E0E56EB530EBCD518EB0208B7
:105950005E417F1C55F10005B5E74FF480154FF00F
:1059600000074FF000064FF00008ACE701F1C0411E
:1059700001F000414FF00000F0BCBDE800810CEAEE
:10598000131511EA0C1F00D00CE013EA0C1F00F0F5
:1059900026804FF0000081EA030101F00041F0BCD5
:1059A000BDE80081F0BCBDE8004181EA030100F0E0
:1059B000ADB9F0BCBDE8004170B500F059F900BFC9
:1059C000097EFC3E00F007B84FF0000081EA0301B9
:1059D00001F00041704781EA030100F097B9F0BC83
:1059E000BDE8004122494FF000007047FFFDFBF980
:1059F000F7F5F4F2F0EEEDEBE9E8E6E4E3E1E0DE02
:105A0000DDDBDAD8D7D5D4D3D1D0CFCDCCCBCAC873
:105A1000C7C6C5C4C2C1C0BFBEBDBCBBBAB9B8B79A
:105A2000B6B5B4B3B2B1B0AFAEADACABAAA9A8A88D
:105A3000A7A6A5A4A3A3A2A1A09F9F9E9D9C9C9B5B
:105A40009A99999897979695959493939291919006
:105A50008F8F8E8E8D8C8C8B8B8A89898888878797
:105A60008685858484838382828181800000FF070C
:105A70000000F87F10F0004248BF4042B0FA80F3C7
:105A800010FA03F10AD0C3F11D0303F5806302EBA2
:105A900003524FEA415002EBD12170474FF0000012
:105AA0007047000051EA030C17D41CF5801F58BF43
:105AB000BCF5801F00F10680994218BF704708BFEF
:105AC0009042704707D711F5801F58BF13F5801F0C
:105AD00019D499427047894270471CF5801F08D538
