:020000040800F2
:10000000984B00206D020008BD1A0008E91800088E
:10001000B91A000819040008811E00080000000039
:10002000000000000000000000000000311B00087C
:100030003504000800000000C11A00085D1B00081C
:10004000870200088702000887020008870200086C
:10005000870200088702000887020008870200085C
:10006000870200088702000887020008870200084C
:10007000870200088702000887020008870200083C
:10008000870200088702000887020008870200082C
:100090001D04000887020008870200088702000884
:1000A000870200088702000887020008870200080C
:1000B000651C000887020008870200088702000804
:1000C00087020008870200088702000887020008EC
:1000D00087020008870200088702000887020008DC
:1000E00087020008870200088702000887020008CC
:1000F00087020008870200088702000887020008BC
:1001000087020008870200088702000887020008AB
:10011000870200088702000887020008870200089B
:10012000870200088702000887020008870200088B
:10013000870200088702000887020008870200087B
:1001400029040008870200088702000887020008C7
:10015000870200088702000887020008870200085B
:10016000870200088702000887020008870200084B
:1001700087020008870200088702000800000000CC
:10018000870200088702000887020008870200082B
:10019000870200088702000887020008870200081B
:1001A00000000000000000008702000800F002F8D4
:1001B00000F04CF80AA090E8000C82448344AAF1B5
:1001C0000107DA4501D100F041F8AFF2090EBAE8B3
:1001D0000F0013F0010F18BFFB1A43F0010318477B
:1001E000202F0000402F00000A4410F8014B14F0AB
:1001F0000F0508BF10F8015B240908BF10F8014B78
:100200006D1E05D010F8013B6D1E01F8013BF9D1C0
:10021000641E03D0641E01F8015BFBD19142E4D35C
:10022000704700000023002400250026103A28BF54
:1002300078C1FBD8520728BF30C148BF0B60704758
:100240001FB502F03DFF1FBD10B510BD00F0AEF8A8
:100250001146FFF7F5FF01F027FF00F0CCF803B4DB
:10026000FFF7F2FF03BC00F0CFF800000948804719
:1002700009480047FEE7FEE7FEE7FEE7FEE7FEE788
:10028000FEE7FEE7FEE7FEE704480549054A064BA0
:1002900070470000511C0008AD010008984500207F
:1002A000984B0020984700209847002053EA020C02
:1002B00000F069802DE9F04B4FF00006002B1FBFC6
:1002C000B3FA83F503FA05F424FA05F65E4012BF8B
:1002D0001643B2FA82F502FA05F4C5F120051EBFF5
:1002E00022FA05FC44EA0C04203556EA044C4FEA95
:1002F000144418BF641C4FF000084FF000099042EE
:1003000071EB030C39D3002919BFB1FA81F701FA57
:1003100007F6B0FA80F700FA07F6C7F120071EBF0C
:1003200020FA07FC46EA0C062037B6FBF4FCA7EBE4
:100330000507103F07F01F0BCBF120062CFA06F63D
:100340000CFA0BFB44BFB3460026202FA4BF5E4629
:100350004FF0000B5BEA060C08BF4FF0010B19EBE6
:100360000B0948EB0608ABFB027C06FB02CC0BFB3F
:1003700003CCC01B71EB0C01C1E70B4602464146A2
:100380004846BDE8F08B13B5084318BF4FF0FF3067
:100390000146AFF30080BDE81C40704770477047CE
:1003A0007047000000487047100400207546FFF7B2
:1003B000F9FFAE4605006946534620F00700854622
:1003C00018B020B5FFF760FFBDE820404FF00006F1
:1003D0004FF000074FF000084FF0000BAC46ACE8C0
:1003E000C009ACE8C009ACE8C009ACE8C00921F01C
:1003F00007018D46704710B50446AFF300802046D4
:10040000BDE81040FFF72BBF01491820ABBEFEE747
:100410002600020070470000FEE7000040F2A04006
:10042000C2F2000000F09EB840F2C840C2F20000E4
:1004300000F098B870470000EFF3108072B600BF6C
:10044000FEE700007047000010B590F82040013C26
:10045000012C0CD8D0F800C079B1DCF81040A4070A
:100460000FD100F1240101204FF400126FE000F1E0
:10047000240101204FF4802269E0DCF80C40A4073D
:1004800069D00CEB011CDCF8B0410CF5D87E14F0FF
:1004900004049460DCF8B04119BFE4085460640DB2
:1004A0001460DEF80040002904F00204D460DCF897
:1004B000B44104F00F041461DCF8B441C4F3072420
:1004C0009461DCF8B4414FEA14445461DCF8B8217B
:1004D0001A70026802EB0112D2F8B8214FEA122218
:1004E0005A70026802EB0112D2F8B8214FEA1242A8
:1004F0009A70026802EB0112D2F8B8214FEA126238
:10050000DA70026802EB0112D2F8BC211A7102689B
:1005100002EB0112D2F8BC214FEA12225A71026892
:1005200002EB0112D2F8BC214FEA12429A71026822
:1005300002EB0112D2F8BC214FEA1262DA710068B4
:1005400014BF00F1100100F10C01002020220B6803
:100550001A430A6010BD00F1240101204FF400127B
:10056000F5E700002DE9F04F81B0044600684669C8
:10057000D0F804908768D0F80CB0D0F810A0D0F86C
:100580001880F10703D1002530071CD423E0F907B8
:1005900010D00121BA07816009D4780700F1AA8040
:1005A000380700F1B080204600F068FA02E02046EB
:1005B00000F066FA0025F80500F18480F80300F1E8
:1005C000AA80300707D51BF0100004D0206845F43E
:1005D00000751021C160700708D51BF0080005D018
:1005E00020680821C160204600F0E8F9B00706D570
:1005F0002068C068800702D0204600F0E1F970064C
:1006000007D51AF0100004D0206845F48065102149
:100610000161B00608D51AF0080005D0206808214D
:100620000161204600F024FAF00606D52068006932
:10063000800702D0204600F01DFAB00308D519F05B
:10064000100005D0206810214160204600F014FA07
:10065000F00308D519F0080005D020680821416092
:10066000204600F017FA300440F18F805FEA4970AD
:1006700040F1888006F4807008EA102028435FEA81
:100680008871014648BF41F00201B20558BF0146DA
:100690005FEA48700D4648BF45F00405700558BF35
:1006A0000D4630056ED518F070006BD0103800097B
:1006B000052862D8DFE800F0035356595C5F45F027
:1006C00008055AE020684FF48071BA0581600AD4A9
:1006D000780512D4380519D4204600F0D3F9F80370
:1006E0007FF56FAF17E0204600F0CEF9F8037FF5F5
:1006F00068AF10E04FF400655DE705F50055F803BD
:100700007FF55FAF07E04FF4805554E705F580456E
:10071000F8037FF556AF20684FF48031BA0381604B
:100720000AD478030FD4380313D4204600F0AEF96E
:1007300030073FF548AF4EE7204600F0A9F93007F3
:100740003FF541AF47E705F5004530073FF53BAFC3
:1007500041E705F5803530073FF535AF3BE745F01C
:1007600010050AE045F0200507E045F0400504E0EB
:1007700045F0800501E045F480752068816921F02D
:10078000700181612068042141604DB1606A40EAD6
:1007900005012046616201B0BDE8F04FFFF752BE8F
:1007A00001B0BDE8F08F0000B0B5C8B1044690F8C4
:1007B000200010B9204600F071F82068016841F06F
:1007C0000101016000F03AFA054600BF2068416867
:1007D000C90707D100F032FA401B0B28F6D312E00C
:1007E0000120B0BD016821F00201016000F026FA8D
:1007F000054600BF2068416889070DD500F01EFA44
:10080000401B0B28F6D3606A052140F4003060627B
:10081000012084F82010B0BD217E0268012922F059
:10082000800208BF80320260617E0268012922F0E6
:10083000400208BF40320260A17E0268012922F016
:10084000200208BF20320260E17E0268012922F006
:10085000100218BF10320260217F0268012922F0C5
:10086000080208BF08320260617F0268012922F095
:10087000040208BF04320260D4E901C2D4E903359E
:1008800061691A432A431143ACF101021143C1616A
:1008900000200121606284F82010B0BD10B586B040
:1008A000006846F60002C4F2000200219042CDE941
:1008B0000411CDE90211019133D046F20041C4F296
:1008C0000001884277D140F29841C2F200010A68E3
:1008D00043F64000C4F20200531C0B6052B90021E1
:1008E0000091016841F000710160016801F0007140
:1008F000009100990021009150F8101C142441F03F
:10090000080140F8101C50F8100C032100F00800FA
:100910000090009840F20040C4F2020000F5006030
:1009200035E043F64000C4F202000091016841F056
:1009300080610160016801F080610091009940F2DE
:100940009841C2F200010A68531C0B6052B90021A1
:100950000091016841F000710160016801F00071CF
:10096000009100990021009150F8101C402441F0A2
:10097000020140F8101C50F8100C4FF4405100F0E8
:1009800002000090009840F20040C4F20200019181
:100990000221029100210391032104910921059173
:1009A00001A900F079F820460521002200F002FAA2
:1009B000204600F0EBF906B010BD000070470000C3
:1009C00070B5016846F60002C4F2000291422FD0D1
:1009D00046F20042C4F20002914218BF70BD40F2DC
:1009E0007041C2F200010C1D01F1200500212246D8
:1009F0002B46FFF729FD40F20006C2F20006204612
:100A00002946324601F03EFA06F1CC02204629463C
:100A100001F038FA06F5CC722046294601F032FA88
:100A200006F5197220462946BDE8704001F02ABA41
:100A300040F27041C2F200010C1D01F120050021BD
:100A400022462B46FFF700FD40F20000C2F20000F4
:100A500000F54C722046294601F014FA40F270620B
:100A6000C2F2000220462946BDE8704001F0FCBAFF
:100A7000704700007047000070470000704700009A
:100A8000704700007047000070470000704700008A
:100A900070470000704700002DE9F04F82B000F170
:100AA0003E4242F2004502F1FF77C4F202050A22FB
:100AB00043F6004E4FEAB726A84208BF0922C4F207
:100AC000010E092E38BF4FEAB72201250026002764
:100AD0004FF00008009208E008F101080437B8F16F
:100AE000100F06F1020600F0A6800C6805FA08F95E
:100AF00014EA090FF0D0D1F804B003220BF0030C74
:100B0000ACF10104B240012C6FEA020A10D88268ED
:100B1000CC6802EA0A02B440224382604268CBF306
:100B2000001422EA090204FA08F42243426005E0B4
:100B3000BCF1030F02D14FF0030C20E0C2688C68B7
:100B400002EA0A02B4402243BCF1020FC26016D18D
:100B50006FF0030202EA58020244D2F820C007F004
:100B60001C050F230C69AB402CEA030304FA05F5BE
:100B70002B431362D1F804B001250BF0030C02687B
:100B80000CFA06F302EA0A021A431BF4403F026021
:100B9000A2D0002243F644030192C4F202031A6871
:100BA0004FF6084C42F480421A601A68CFF6FF7C78
:100BB00002F480420192019A28F00302724452F832
:100BC0000C3007F00C050F24AC40A343009C04FA42
:100BD00005F52B4342F80C30DEF808204B6842EA5A
:100BE000090543F60C4CDC0258BF22EA0905CEF891
:100BF0000850C4F2010CDCF800209C0242EA09050E
:100C000058BF22EA0905CCF80050DEF804209C0306
:100C100042EA090558BF22EA0905CEF80450DEF879
:100C20000020DB0342EA090558BF22EA0905CEF895
:100C30000050012550E702B0BDE8F08F44F290204B
:100C4000C2F200000068704740F2004044F2902178
:100C5000C2F20000C2F2000100780A681044086085
:100C60007047000080B543F60040C4F202000168FE
:100C700041F400710160016841F480610160016824
:100C800041F480710160032000F0C0F80F2000F0F3
:100C900005F800F059F8002080BD000070B586B05E
:100CA000002543F640010195C4F202010A6804469A
:100CB00042F001020A60096801A801F001010191F6
:100CC0000199694600F0A0F9049E002E18BF012684
:100CD00000F0BAF94DF68361B040C4F21B31A0FBBD
:100CE00001014FF0FF3000EB914140F24850C2F259
:100CF00000004FF0804240F2E733C0E90021C0E934
:100D000002530561856100F03FFC0546C8B940F219
:100D10004850C2F2000000F067FC054688B91C206C
:100D200000F034F80F2C0BD81C202146002200259F
:100D300000F040F840F20440C2F20000046000E01D
:100D40000125284606B070BD82B0002043F6400160
:100D50000190C4F202014A6842F480424A604A6843
:100D600002F480420192019A00900868002240F04B
:100D70008050086008680F2100F0805000900098B3
:100D80006FF0010002B000F015B80000002848BF65
:100D90007047C1B200F01F00012202FA00F04EF2CB
:100DA0000012CEF2000242EAD10121F003010860F4
:100DB0007047000010B54EF60C5CCEF2000CDCF86B
:100DC0000030C3F3022E8EF00704042C28BF042445
:100DD000BEF103034FF0FF3E0EFA04F438BF0023C8
:100DE000A14399400EFA03F39A43114300F00F0216
:100DF00000F160430901043A03F5644362440028AA
:100E000048BF02F10C03197010BD00004EF60C51E2
:100E1000CEF200010A684FF6FF031A4060F30A227F
:100E200042F0806040F0FD700860704770B582B09D
:100E30000020019043F64000C4F202000168402601
:100E400041F0805101600068C4F20E2600F080502D
:100E50000190019847F204050120C4F200053060BA
:100E6000FFF7ECFE044600BF2868C00306D4FFF776
:100E7000E5FE001BB0F57A7FF6D90EE00120706028
:100E8000FFF7DCFE044600BF2868800308D4FFF7A4
:100E9000D5FE001BB0F57A7FF6D9032002B070BDF5
:100EA000002002B070BD00002DE9F041002800F0E4
:100EB0008B8043F60808C4F202080446D8F8F80309
:100EC0000D4600F00F00884207D288F8F853D8F892
:100ED000F80300F00F00A84276D12068810717D5EB
:100EE000410705D5D8F8001041F4E051C8F80010CA
:100EF000010705D5D8F8001041F46041C8F800108A
:100F0000D8F80010A26821F0F0011143C8F80010D1
:100F1000C0073FD1D8F8F80300F00F00A84207D966
:100F200088F8F853D8F8F80300F00F00A8424BD126
:100F30002068410707D5D8F80010E26821F4E05195
:100F40001143C8F80010000708D5D8F8000021693F
:100F500020F4604040EAC100C8F8000000F09CF8AE
:100F6000D8F8001043F2DA02C1F30311C0F6000210
:100F7000515C40F2FC3220FA01F140F20440C2F22E
:100F800000000068C2F200021160FFF787FE002037
:100F9000BDE8F0816068811E022907D258F8081C5C
:100FA00089015CBF0120BDE8F08110E0012807D174
:100FB00058F8081C89035CBF0120BDE8F08106E0F9
:100FC00058F8081C890702D40120BDE8F081D8F840
:100FD000001021F003010843C8F80000FFF72EFEBF
:100FE000064641F2883700BFD8F80000616800F07B
:100FF0000C00B0EB810F8DD0FFF720FE801BB842B4
:10100000F2D90320BDE8F0810F22026043F6080206
:10101000C4F20202136803F003034360136803F091
:10102000F0038360136803F4E053C360D2F800C098
:101030004FF4E05303EADC030361D2F8F80300F055
:101040000F0008607047000040F2FC3043F60801D2
:10105000C2F20000C4F202010068096843F2EA0229
:10106000C1F38221C0F60002515CC8407047000005
:1010700040F2FC3043F60801C2F20000C4F2020163
:101080000068096843F2EA02C1F34231C0F6000287
:10109000515CC8407047000010B543F60404C4F228
:1010A0000204606800F00C0008280AD0042819BF68
:1010B00042F20040C0F2F40041F60030C0F2B70046
:1010C00010BD206821682368490241F60031C0F252
:1010D000B70100F03F02C3F388105CBF42F2004149
:1010E000C0F2F401A1FB00010023FFF7DFF8216843
:1010F0000222C1F3014102EB4101B0FBF1F010BD4E
:101100002DE9F04182B0002868D00446007843F60B
:101110000006C007C4F202060BD0B06800F00C0055
:10112000042840F09C803068800302D56068002865
:1011300054D0207880071AD5B06810F00C0F09D071
:10114000B06800F00C00082840F0A38070684002EE
:1011500000F19F803068800702D5E06801283DD10A
:101160003068216920F0F80040EAC1003060207842
:10117000000737D4207840074BD4A56955B3B06831
:1011800000F00C00082840F0B780012D26D07068D0
:10119000E16900F480028A4220D1216A00F03F0216
:1011A0008A421BD147F6C071626A0140B1EB821FCF
:1011B00014D1A16A4FF6FF73C903994300F440327A
:1011C000A1F580318A4209D1E16A00F07060B0EB8C
:1011D000016F03D1002002B0BDE8F081012002B010
:1011E000BDE8F0816069002840F20000C4F24720A9
:1011F00072D00121C0F8801EFFF720FD054600BF18
:10120000706F8007B6D4FFF719FD401B0228F7D98D
:10121000D7E0306C10F080580AD100200190306C7B
:1012200040F080503064306C00F0805001900198A4
:1012300047F20007C4F200073868C0053ED438689A
:1012400040F480703860FFF7F9FC05463868C00547
:1012500034D4FFF7F3FC401B0228F7D9B1E0B068A3
:1012600000F00C00082803D1706840023FF55BAF26
:101270006068B0F5803F07D0B0F5A02F40F08B80BC
:10128000306840F480203060306840F48030306056
:101290008BE0E068002851D00020C4F247200121F3
:1012A0000160FFF7CBFC0546306880073FF558AF7B
:1012B000FFF7C4FC401B0228F6D982E0A068012891
:1012C00005D005284ED1306F40F004003067306FF4
:1012D00040F0010030674FE00021C0F8801EFFF7AA
:1012E000ADFC0546706F80077FF544AFFFF7A6FCA5
:1012F000401B0228F6D964E00027C4F247270020EB
:101300003866FFF79BFC022D05460BD13068800143
:101310005BD5FFF793FC401B02284FF00300F5D983
:1013200059E700BF306880017FF554AFFFF786FCB6
:10133000401B02284FF00300F4D94CE70020C4F210
:10134000472000210160FFF779FC054630688007DF
:101350007FF50DAFFFF772FC401B02284FF0030032
:10136000F4D938E7316F002821F001013167316F7E
:1013700021F00401316749D0FFF760FC054641F2D6
:10138000883700BF306F800751D4FFF757FC401BF0
:10139000B842F7D915E03168002821F48031316076
:1013A000316821F4802131604AD0FFF747FC0546BF
:1013B000306880033FF5BDAEFFF740FC401B64285A
:1013C000F6D9032002B0BDE8F08104F11C052FCD51
:1013D000084340EA8210D9034FF6FF729143A1F50A
:1013E000803140EA05600843706001203866FFF7ED
:1013F00025FC0446306880013FF5ECAEFFF71EFC8B
:10140000001B02284FF00300F4D9E4E6FFF716FCB6
:10141000054641F2883700BF306F800707D5FFF7D8
:101420000DFC401BB8424FF00300F5D9D3E6B8F1EC
:10143000000F7FF4A2AE306C20F0805030649CE648
:10144000FFF7FCFB054600BF306880037FF571AEF7
:10145000FFF7F4FB401B64284FF00300F4D9BAE611
:1014600070B538B10446406A30B10020206104F103
:10147000140007E0012070BD6068B0F5827F03D0E2
:1014800004F11C00002101600026A66294F85100BE
:1014900020B9204684F8506000F03CF8022084F81F
:1014A000510094E80F0001F48271056802F40442CF
:1014B00025F040050560114403F4006223691144DE
:1014C00003F002026369114403F00102A369E569B4
:1014D000114403F40072114405F03802256A1144E6
:1014E00005F08002A56A114305F400521143016022
:1014F000626A042101EA134102F0100211444160C2
:10150000C16921F40061C1610120666584F8510060
:10151000304670BD80B586B0016845F20000C4F267
:101520000100814201D006B080BD002143F63002A7
:101530000191C4F20202536900F5444043F4801360
:101540005361536903F480130193019B0191136864
:1015500043F020031360126802F020020192019A06
:101560004FF4707201920222CDE90221032104910D
:101570000521059101A9FFF78FFA06B080BD000093
:101580007047000070470000002804BF012070472A
:1015900010B5044690F83D0028B9002084F83C00BE
:1015A000204600F01FF8022084F83D002068211D2D
:1015B00000F05EFB012084F8460084F83E0084F8C9
:1015C0003F0084F8400084F8410084F8420084F829
:1015D000430084F8440084F8450084F83D0000206E
:1015E00010BD00007047000090F83D1001291CBF9D
:1015F00001207047022180F83D10006841F2FF721F
:10160000C168C4F20002904241F00101C1600DDCEA
:1016100040F2FF71C4F20001884215DCB0F1804F46
:1016200029D040F20041C4F2000122E040F2FF3133
:10163000C4F20101884212DC41F60001C4F200014B
:10164000884218D0002112E040F60001C4F20001E7
:10165000884210D040F60041C4F2000109E044F293
:101660000001C4F20101884205D040F20041C4F2F9
:101670000101884206D1816801F00701062904BFF3
:1016800000207047016841F00101016000207047AF
:101690007047000010B5016804460869800744BF20
:1016A000C8685FEA807038D40869400744BFC868DA
:1016B0005FEA40703DD40869000744BFC8685FEA2C
:1016C000007043D40869C00644BFC8685FEAC060C0
:1016D00048D40869C0071CBFC8685FEAC0704ED113
:1016E0000869000644BFC8685FEA00604FD4086913
:1016F000400644BFC8685FEA406050D4086980066D
:1017000046BFC8685FEA806010BD6FF020022046C7
:101710000A61BDE81040FFF735BF6FF002000861B5
:10172000012020778869800741D02046FFF7B0FF6D
:1017300043E06FF00400086102202077886910F40C
:10174000407F3ED02046FFF7A3FF40E06FF0080047
:10175000086104202077C86980073CD02046FFF745
:1017600097FF3EE06FF01000086108202077C869FD
:1017700010F4407F39D02046FFF78AFF3BE06FF03E
:1017800001000861204600F03FF82168A8E76FF0EB
:10179000800008612046FFF7F3FE2168A7E76FF09D
:1017A00040000861204600F037F82168A6E720468F
:1017B00000F026F8204600F025F821680020207768
:1017C00072E7204600F01CF8204600F01BF8216864
:1017D000002020776FE7204600F012F8204600F046
:1017E00011F82168002020776CE7204600F008F807
:1017F000204600F007F821680020207769E7000004
:1018000070470000704700000068B0F1804F18BFBB
:101810007047FFF719BA000070470000002804BFA6
:101820000120704710B5044690F83D0028B900200B
:1018300084F83C00204600F021F8242084F83D0084
:101840002068C16821F40051C160204600F0A2FA6E
:101850002068016921F490410161416921F02A0168
:101860004161C16841F40051C16000202021206421
:1018700084F83D1084F83E1010BD000080B586B09D
:10188000016844F60000C4F20000814201D006B0B5
:1018900080BD002143F630020191C4F202021369B7
:1018A00000F5E03043F480231361136903F48023CF
:1018B0000193019B0191136843F0040313601268C4
:1018C00002F004020192019A4FF440620192022256
:1018D000CDE90221032104910721059101A9FFF718
:1018E000DBF806B080BD0000FEE7000080B540F2E6
:1018F000A04046F20041C2F20000C4F20001002301
:10190000102280E80E00C0E90333C0E90533838369
:10191000FEF74AFF002808BF80BDBDE88040FEF703
:101920008BBD000080B540F2C84046F60001C2F20F
:101930000000C4F200010023102280E80E00C0E97C
:101940000333C0E905338383FEF72EFF002808BF69
:1019500080BDBDE88040FEF76FBD000080B588B057
:101960000B4802AF01900AA000F1040E9EE80E5051
:10197000806987E80E50079001A8002100F0B6FBAF
:1019800040F29C41C2F20001086008B080BD00BF77
:10199000F2300008551B00080000000000000000A5
:1019A00080000000000000000000000081B0002165
:1019B00043F630000091C4F20200026842F00102D6
:1019C0000260026802F001020092009A009102682F
:1019D00042F008020260026802F008020092009AD7
:1019E0000091026842F004020260026802F0040200
:1019F0000092009A0091026842F080020260026840
:101A000002F080020092009A0091026842F02002E7
:101A10000260026802F020020092009A00910168C0
:101A200041F002010160006800F00200009000989F
:101A300001B0704780B540F2F04045F20001C2F2BB
:101A40000000C4F201014FF4827200234FF4802C95
:101A500080E80E000A21C0E90333C0E9053CC361F8
:101A6000C0E90833C0E90A31FFF7FAFC002808BFD3
:101A700080BDBDE88040FEF7DFBC000080B540F2CD
:101A8000905044F60001C2F20000C4F200010023AD
:101A90004FF00C0C4FF4E13280E80E00C0E9033344
:101AA000C0E905C3C361FFF7B9FE002808BF80BDC8
:101AB000BDE88040FEF7C0BCFEE70000FEE7000086
:101AC000EFF30980BFF36F8F154B1A681EF0100FEC
:101AD00008BF20ED108A20E9F04F10602DE90900C1
:101AE0004FF0500080F31188BFF34F8FBFF36F8F1B
:101AF00001F018F84FF0000080F31188BDE80900EC
:101B000019680868B0E8F04F1EF0100F08BFB0EC7D
:101B1000108A80F30988BFF36F8F704700BF00BF42
:101B2000D4050020000000000000000000000000BC
:101B3000074B19680868B0E8F04F80F30988BFF3D5
:101B40006F8F4FF0000080F31188704700BF00BF17
:101B5000D4050020012000F0BBFAFBE780B54FF070
:101B6000500080F31188BFF36F8FBFF34F8F01F0E8
:101B70004BF930B14EF60450CEF200004FF08051D8
:101B80000160002080F3118880BD000080B592B014
:101B9000002043F64001CDE90A00CDE90800059098
:101BA000CDE90300CDE901000090C4F202010A680A
:101BB00042F080520A60096801F08051009100995A
:101BC000009047F20000C4F20000016841F4404177
:101BD000016000684FF4800100F4404000900098DC
:101BE000012006904FF480300D91062107900220CD
:101BF0000E91B4210C90CDE90F100420119006A88D
:101C0000FFF77EFA18B1EFF3108072B6FEE7FFF728
:101C10000DF920B1EFF3108072B600BFFEE70F2080
:101C2000019002200290002003904FF4A0500490F5
:101C30004FF48050059001A80521FFF735F920B138
:101C4000EFF3108072B600BFFEE712B080BD000057
:101C50004EF68850CEF20000016841F47001016038
:101C60007047000040F24850C2F20000FFF712BD7A
:101C700010B540F6FF3E0368C4F2000E40F2004C7F
:101C80007045C4F2010C0FDCB0F1804F19D040F266
:101C90000042C4F20002904213D040F60002C4F2A7
:101CA000000290420DD010E040F60042C4F2000263
:101CB000904206D0604504D00022C4F20102904256
:101CC00003D14A6823F07003134341F6FF72C4F254
:101CD000000290420DDC70451FDCB0F1804F41D016
:101CE00040F20042C4F2000290423BD040F60002B3
:101CF00021E043F6FF72C4F20102904220DC42F27E
:101D00000002C4F2000290422CD00022C4F2010270
:101D1000904227D0604525D028E040F60042C4F22A
:101D2000000290421ED041F60002C4F2000290422E
:101D300018D041F60042C4F20002904212D015E0E1
:101D400044F20002C4F2010290420BD044F60002B9
:101D5000C4F20102904205D044F20042C4F20102F2
:101D6000904203D1CA6823F44073134323F08002E6
:101D70004B69D1F800E08C681A430260C46240F4F9
:101D80008062C0F828E0624504BF0969016301214F
:101D9000416110BD10B504460068D4E902C2236950
:101DA000016921F4405111430161626943EA0C0168
:101DB000E3691143C268194349F20C639A43114322
:101DC000C1604169A26921F4407141F200431143AD
:101DD00040F48062C4F201039A42416102D1FFF7EC
:101DE00047F901E0FFF730F9E16963681922B1F5BD
:101DF000004FA0FB020121D15A00DB0FFEF756FA7B
:101E000048F21F51C5F2EB11A0FB01235A094FF60E
:101E10009C73C0F6FF7303F1805302FB030032236F
:101E200003EBC000A0FB01014FF4F87000EA1110B1
:101E300000EB0210C1F3421108441DE09A009B0F11
:101E4000FEF734FA48F21F51C5F2EB11A0FB012353
:101E50005A094FF69C73C0F6FF7302FB030032234E
:101E600003EB0010A0FB0101F02000EA511000EB91
:101E70000210C1F3431108442168886010BD0000BE
:101E8000FEE7000010B500685368984240F0E38018
:101E900091F806C082F818C00888BCF1510F03BA47
:101EA0004FEA134313824B8890FAB0FE1BBA4FEAF5
:101EB0001343D381898809BA4FEA114191810BD329
:101EC000D18B01318BB2C92BD18307D30021D183B0
:101ED000022182F8201001E00021D183117F022924
:101EE0001CD001290ED0002918BF10BD117801297E
:101EF00020D1B2F912309E4528DAAEEB030101F58C
:101F0000005429E0107801281AD1B2F912309E4508
:101F100046DAAEEB030000F5005147E010780128E7
:101F200038D1B2F912309E4568DAAEEB030000F505
:101F3000005169E0012100241170546173460BE0E7
:101F4000012000211070516173462FE0C6BFAEEB37
:101F50000301A1F500540024AEEB030320B20FFAF5
:101F600083FC84EAE031A1EBE03083EAEC31A1EBC1
:101F7000EC3180B289B2A2F812E0884288BF1C46D8
:101F800020B200EE100A9FED371AB8EEC00A20EE1C
:101F9000010A28E00120002110705161734633E0EE
:101FA000C6BFAEEB0300A0F500510021AEEB03006D
:101FB0000CB20FFA80FC81EAE433A3EBE43380EA4D
:101FC000EC34A4EBEC349BB2A4B2A34288BF01462C
:101FD00008B200EE100A9FED221AB8EEC00A80EE99
:101FE000010AA2F812E09FED1D1A92ED052A20EEDB
:101FF000010A30EE020A82ED050A10BDC6BFAEEB43
:102000000300A0F500510021AEEB03000CB20FFA63
:1020100080FC81EAE433A3EBE43380EAEC34A4EB04
:10202000EC349BB2A4B2A34288BF014608B200EED2
:10203000100A9FED091AB8EEC00A80EE010A9FED62
:10204000071A92ED052AA2F812E020EE010A30EEFE
:10205000020A82ED050A10BD000090480000B4435A
:102060002CA0194800000039E2B1006840F20233A8
:10207000984218BF70470878800990720878C0F3BA
:102080000110D0720878C0F3C0009075488800BA7B
:10209000000CD080888800BA000C9080C88800BAF4
:1020A000000C908270470000FEF7DCFDFFF76EFD2C
:1020B000FFF77CFCFFF71AFCFFF734FCFFF7DEFCB0
:1020C000FFF7B8FCFFF74AFC00F00AF8FEE7000053
:1020D00080B5002808BF012000F048FC002080BD2A
:1020E00080B500F0A5FC002080BD0000B0B584B034
:1020F00043698E4693B1846984B10589D0E9001C97
:10210000026928B2843D18BFC51CCDE90053604662
:102110007346029400F03CFE04B0B0BD0589D0E9DE
:102120000013028A28B2843D18BFC51C03AC1846B0
:1021300073460095019400F0FBFD0399012818BF38
:102140000021084604B0B0BD2DE9F04381B004463B
:1021500000F044FB44F29420C2F20000016840F217
:10216000D45601310160C2F20006316844F25C5776
:1021700040F2E455C2F20007C2F2000549B13868E6
:10218000002851D13068E16AC06A884298BF346043
:102190004AE034600068012846D1284600F0C6FABB
:1021A00005F1140000F0C2FA05F1280000F0BEFAB3
:1021B00005F13C0000F0BAFA05F1500000F0B6FA63
:1021C00005F1640000F0B2FA05F1780000F0AEFA13
:1021D00044F2AC28C2F20008404600F0A7FA44F2EC
:1021E000C029C2F20009484600F0A0FA44F2485063
:1021F000C2F2000000F09AFA44F27C50C2F20000F1
:1022000000F094FA44F26850C2F2000000F08EFA36
:1022100040F2D850C2F20000C0F8008040F2E05016
:10222000C2F20000C0F8009044F2A020C2F2000008
:10223000016844F2A42201310160E06AC2F20002A6
:10224000012113688140194300EB8000116005EB08
:102250008000211D00F0AAFA00F0E4FA386878B195
:102260003068E16AC06A88420AD24EF60450CEF263
:1022700000004FF080510160BFF34F8FBFF36F8FAD
:1022800001B0BDE8F083000044F2982540F2E45A22
:102290004EF6045844F27C5744F29426C2F20005EC
:1022A000C2F2000ACEF200084FF08059C2F20007D5
:1022B000C2F2000603E000BF204600F0CBFA286817
:1022C000C8B100F08BFAF868C468201D00F00EFA5F
:1022D00030680138306028680138286000F0A2FAC0
:1022E00094F851000228EAD00128E5D070B9206B9B
:1022F00000F0B0FAE0E7DAF800000228DFD3C8F80F
:102300000090BFF34F8FBFF36F8FD8E74FF05000AF
:1023100080F31188BFF36F8FBFF34F8FFEE700008C
:102320002DE9F047DDE909878246386B089C00EB10
:10233000820004389946002920F0070655D0087815
:1023400087F83400087800284BD0487887F83500A3
:102350004878002845D0887887F8360088780028A3
:102360003FD0C87887F83700C878D0B3087987F8A5
:1023700038000879A8B3487987F83900487980B3DC
:10238000887987F83A00887958B3C87987F83B008C
:10239000C87930B3087A87F83C00087A08B3487ADD
:1023A00087F83D00487AE0B1887A87F83E00887A5D
:1023B000B8B1C87A87F83F00C87A90B1087B87F82F
:1023C0004000087B68B1487B87F84100487B40B1FA
:1023D000887B87F84200887B00281CBFC87B87F871
:1023E0004300002087F8430002E0002087F8340013
:1023F0000025381D062C28BF0624FC62C7E91145BC
:1024000000F0A0F907F1180000F09CF984F0070033
:10241000B861304651464A463F617F62FD6487F8A5
:10242000505000F04FF9B8F1000F386018BFC8F8ED
:102430000070BDE8F087000008480068006880F37D
:1024400008884FF0000080F3148862B661B6BFF3CD
:102450004F8FBFF36F8F00DF00BF000008ED00E07B
:1024600081B00020009040F20840C2F200000068F5
:102470004FF0500181F31188BFF36F8FBFF34F8F7F
:10248000013007D0FEE700BF009830B9009820B9AE
:10249000009810B900980028F6D001B070470000ED
:1024A0002DE9F041044600F035FB40F2DC51C2F268
:1024B0000001086844F2A82EC2F2000E30B19EF866
:1024C0000000002818BF4FF0004033E040F2886061
:1024D000C2F20000C31D23F0070310F00702A0EBB7
:1024E000030718BF184644F26053C2F200030026E7
:1024F000C3E900064FF47053002A18BF07F5705364
:10250000C21822F00702A2F108030B6042E902663A
:102510001A1AC0E9003244F23050C2F200000260E0
:1025200044F2D420C2F20000026001208EF80000C4
:102530004FF00040002C4FF0000500F0B28020402A
:1025400040F0AF8024F0070000F11002600708BFE0
:1025500004F10802002A4FF0000500F0A28044F2C6
:10256000D42CC2F2000CDCF80000824200F2998008
:1025700044F26053C2F2000318684468944228D2BF
:102580000568BDB106466C68944218D22F68B7B191
:102590007C68944216D23B68A3B15C68944214D222
:1025A0001E6896B17468944212D235683046002D88
:1025B000E9D10EE044F26053C2F2000309E028467C
:1025C000334606E038462B4603E018463B4600E01B
:1025D00030460D68A84212D0D3F800800768A61ACA
:1025E000112E1F603CD3841863070AD04FF05000AF
:1025F00080F31188BFF36F8FBFF34F8FFEE7002585
:102600004FE06660426044F26052C2F2000200BFD6
:102610001668A6420AD23268A2420AD21668A642B8
:1026200004D232683346A242F2D303E01346324664
:1026300000E033465F686668DD19A54202D13E447A
:102640001C465E60A519954206D109688A4203D0EE
:10265000D2E9002131446160A342226018BF1C60AE
:1026600044F230524168DCF80030C2F200021468D3
:102670005B1AA342CCF8003038BF13609EF80020EC
:1026800008F10805002A4FF0000218BF41F0004190
:10269000026044F23C52C2F2000213684160581CCE
:1026A000106000F071FC680709D04FF0500080F313
:1026B0001188BFF36F8FBFF34F8F00BFFEE728462F
:1026C000BDE8F081034642F26140C0F600004FF0E1
:1026D000807C21F0010103E903106FF0020043F850
:1026E000240CA3F1440043F8202C7047D0E90132B8
:1026F00001699A60D1F804C082688445536008BFBC
:102700004A60002202610868013808600868704762
:1027100044F2DC43C2F20003036044F2D820C2F268
:102720000000086080201060704700004FF0FF310B
:10273000024642F8081F00214260C0E903220160FE
:1027400070470000002101617047000010B5D1F80A
:1027500000E01EF1010213D000F108046268136862
:10276000734511D853681C68744510D85A681468AA
:1027700074450ED854682368A4467345EED90AE020
:102780000269D2F804C006E09446224603E09C4663
:1027900001E094461A46C1F804C0CCF808108A60DB
:1027A0005160086101680131016010BDD0F800C0BE
:1027B000436808619A684B608A609A6899605160C2
:1027C0000CF1010101607047DFF80C00016841F471
:1027D000700101607047000088ED00E04FF050008C
:1027E00080F31188BFF36F8FBFF34F8F40F2084023
:1027F000C2F2000001684A1C026001B170474EF647
:102800000450CEF200000068000608BF70474FF089
:10281000500080F31188BFF36F8FBFF34F8F00BF5D
:10282000FEE7000040F20840C2F20000016839B142
:102830000139016018BF7047002080F3118870478C
:102840004FF0500080F31188BFF36F8FBFF34F8FAD
:10285000FEE70000B0B5002808BFB0BD044644F252
:10286000A820C2F20000007854F8041C002818BF09
:102870004FF0004008420CD0A4F108052A6892B13C
:102880004FF0500080F31188BFF36F8FBFF34F8F6D
:10289000FEE74FF0500080F31188BFF36F8FBFF356
:1028A0004F8F00BFFEE721EA000044F8040C00F05F
:1028B00031F944F2D420C2F2000054F8041C02683A
:1028C0000A44026044F26050C2F200000368AB4266
:1028D0000AD21868A8420AD20368AB4204D2186828
:1028E0001A46A842F2D303E00246184600E01A4610
:1028F0005368D418AC4202D11944154651606B1884
:1029000083420AD140F2DC53C2F200031B689842B2
:1029100003D0D0E9000319446960286044F24050B4
:10292000AA4218BF1560C2F20000016801310160BF
:10293000BDE8B04000F028BB4EF21000CEF200001F
:1029400000210160816040F2FC31C2F2000109689F
:1029500044F6D352C1F26202A1FB02124FF0FF31E2
:1029600001EB9211416007210160704770B50028AA
:1029700051D0044644F29C20C2F20000016841B1EB
:102980004FF0500080F31188BFF36F8FBFF34F8F6C
:10299000FEE7016840F2D4550131016044F29050E5
:1029A000C2F20000C2F20005066828680430FFF792
:1029B0009DFE60B9286844F2A422C06AC2F20002F7
:1029C0000121136801FA00F023EA00001060286872
:1029D000A419446009D340F2E050C2F2000000683C
:1029E00029680431FFF7B2FE10E040F2D850C2F27D
:1029F0000000006829680431FFF7A8FE44F2345053
:102A0000C2F2000001688C4238BF046000F0BCFADA
:102A1000002818BF70BD4EF60450CEF200004FF0F3
:102A200080510160BFF34F8FBFF36F8F70BD000007
:102A3000B0B588B00020CDE9050006A805A904AA14
:102A4000FFF766FE0598002842D0069C002C48D06F
:102A50005421049A0791079954294CD1079920636E
:102A6000022084F8510007A80025CDE9005042F269
:102A70008920C0F6000025A100230294FFF750FC36
:102A80002046FFF761FB079844F2D841C2F20001EB
:102A90000860D8B14FF0500080F31188BFF36F8FFA
:102AA000BFF34F8F44F23450C2F200004FF0FF31B9
:102AB000016044F25C50C2F200000121016044F266
:102AC0009050C2F20000056000F06EF808B0B0BD92
:102AD0004FF0500080F31188BFF36F8FBFF34F8F1B
:102AE000FEE74FF0500080F31188BFF36F8FBFF304
:102AF0004F8F00BFFEE74FF0500080F31188BFF307
:102B00006F8FBFF34F8F00BFFEE700BF49444C45B6
:102B10000000000044F29C20C2F200000168013174
:102B20000160704744F29C20C2F20000006830B19E
:102B300044F29450C2F2000001210160704744F257
:102B40009450C2F200000021016044F2A420C2F2BD
:102B500000000068B0FA80F0C0B2C0F11F0040F27F
:102B6000E45100EB8000C2F2000151F820208AB14C
:102B700001EB800151F8040F40680A1D9042086083
:102B800001D140680860C06840F2D451C2F200012F
:102B9000086070474FF0500080F31188BFF36F8FCB
:102BA000BFF34F8FFEE70000B0B584B04EF2004C8B
:102BB000CEF2000C4CF27021C4F20F11DCF80029A7
:102BC0004B1C9A4209D14FF0500080F31188BFF39B
:102BD0006F8FBFF34F8F00BFFEE7DCF800298A42FA
:102BE00009D14FF0500080F31188BFF36F8FBFF30E
:102BF0004F8F00BFFEE79CF8001044F2882202913C
:102C0000FF218CF800109CF80010C2F200028DF831
:102C100007109DF8071001F05001117044F28C214B
:102C2000C2F2000107220A609DF90720B2F1FF3FBE
:102C300067DC0322D31C0B609DF8070040008DF871
:102C400007009DF90700B0F1FF3F23DC931C0B60E8
:102C50009DF8070040008DF807009DF90700B0F1CE
:102C6000FF3F17DC531C0B609DF8070040008DF8F8
:102C700007009DF90700B0F1FF3F0BDC0A609DF8EB
:102C80000700043A40008DF807009DF9070000286E
:102C9000D0D4131D032B34D14FF440700860029838
:102CA0008CF80000DCF8200940F47000CCF8200912
:102CB000DCF8200940F07040CCF82009FFF73CFE1A
:102CC00040F20844C2F2000400252560FFF77CFDB5
:102CD0004EF63470CEF20000016841F040410160D0
:102CE000FFF7AAFBFFF71EFF039520684FF0500186
:102CF00081F31188BFF36F8FBFF34F8F013010D076
:102D0000FEE74FF0500080F31188BFF36F8FBFF3E1
:102D10004F8F00BFFEE7039830B9039820B903989E
:102D200010B903980028F6D0002004B0B0BD000010
:102D30002DE9F04383B00746900098461546894632
:102D4000FFF7AEFBF0B106465420FFF7A9FBB0B188
:102D50000446DDE90A100022266384F85120CDE9FB
:102D60000010384649462A4643460294FFF7D8FAEF
:102D70002046FFF7E9F9012003B0BDE8F0833046B3
:102D8000FFF768FD4FF0FF3003B0BDE8F0830000AF
:102D900070B586B00B9CCCB10C9E06B3542504953F
:102DA000049D542D25D1049DDDF828C0022586F808
:102DB000515005AD3463CDE900C50296FFF7B0FA76
:102DC0003046FFF7C1F9059806B070BD4FF05000CE
:102DD00080F31188BFF36F8FBFF34F8FFEE74FF083
:102DE000500080F31188BFF36F8FBFF34F8F00BF88
:102DF000FEE74FF0500080F31188BFF36F8FBFF3F1
:102E00004F8F00BFFEE700002DE9F04F81B044F284
:102E10009C20C2F20000006840B144F24450C2F26B
:102E200000000168002401310160A9E044F29050E3
:102E3000C2F2000001684E1C06602ED340F2D8504A
:102E4000C2F200000168096849B14FF0500080F3F8
:102E50001188BFF36F8FBFF34F8F00BFFEE740F2C3
:102E6000E052C2F20002016813680360116044F28C
:102E70003851C2F200010A6801320A60016809682B
:102E800021B10068C068C068406801E04FF0FF30C1
:102E900044F23451C2F20001086044F23451C2F2EB
:102EA0000001086840F2D45A8642C2F2000A01D2F8
:102EB00000244FE040F2D85BC2F2000BDBF80000C8
:102EC00000240068E0B344F2A4290127C2F20009FB
:102ED00020E000BFD8F82C00D9F8001007FA00F263
:102EE0001143C9F8001040F2E45100EB8000C2F237
:102EF000000101EB80002946FFF758FCD8F82C00B0
:102F0000DAF80010C96ADBF800208842106828BF90
:102F10003C46C0B1DBF80000C068D0F80C804546E4
:102F200055F8040F864210D32846FFF7DFFBD8F888
:102F300028000028CED008F11800FFF7D7FBC9E71A
:102F40004FF0FF3005E04FF0FF3044F23451C2F251
:102F500000010860DAF8000040F2E451C06AC2F2F1
:102F6000000100EB800051F82000012844F2945049
:102F7000C2F2000088BF01240068002818BF0124A5
:102F8000204601B0BDE8F08F2DE9F04F81B044F24A
:102F90009C24C2F20004206868B1FFF71FFC20687F
:102FA00001382060206880B10024FFF73BFC2046F8
:102FB00001B0BDE8F08F4FF0500080F31188BFF3EF
:102FC0006F8FBFF34F8F00BFFEE744F29420C2F231
:102FD00000000068002847D044F24856C2F20006BC
:102FE000306844F294580028C2F2000845D044F2F8
:102FF000A42540F2E45940F2D45A4FF0010BC2F23A
:103000000005C2F20009C2F2000A00BFF068C768FA
:1030100007F11800FFF76AFB3C1D2046FFF766FB2F
:10302000F86A29680BFA00F2114300EB800029606E
:1030300009EB80002146FFF7B9FBF86ADAF80010C7
:10304000C96A884228BFC8F800B030680028DDD1BE
:1030500040F2D850C2F200000168096831B100683E
:10306000C068C068406803E000249EE74FF0FF306E
:1030700044F23451C2F20001086044F24454C2F2F6
:103080000004256855B10126FFF7BEFE002818BFD1
:10309000C8F80060013DF7D100202060D8F800009A
:1030A00060B14EF60450CEF200004FF08051016046
:1030B000BFF34F8F0124BFF36F8F76E7002474E7CF
:1030C000F1EE100A4FF6FF71C0F2C03120EA0100A4
:1030D00040F04070E1EE100A704700000000000070
:1030E00000000102030406070809000000000102B5
:1030F000030464656661756C745461736B00000051
:10310000203100080000002010040000E801000841
:1031100068310008100400208847000024020008DD
:1031200051430102041164004002B401430302044C
:103130001164004002B40143020204116400400221
:10314000B401430402041164004002B401430502C7
:1031500004C26800404524F40001421055AAAAAAFE
:08316000AA00000000000000BD
:04000005080001AD41
:00000001FF
