:020000040800F2
:10000000184800204D02000839190008D5170008CB
:1000100035190008F9030008F11C00080000000071
:10002000000000000000000000000000B1190008FE
:10003000150400080000000041190008DD1900083F
:1000400067020008670200086702000867020008EC
:1000500067020008670200086702000867020008DC
:1000600067020008670200086702000867020008CC
:1000700067020008670200086702000867020008BC
:1000800067020008670200086702000867020008AC
:10009000FD03000867020008670200086702000805
:1000A000670200086702000867020008670200088C
:1000B000E51A0008670200086702000867020008E6
:1000C000670200086702000867020008670200086C
:1000D000670200086702000867020008670200085C
:1000E000670200086702000867020008670200084C
:1000F000670200086702000867020008670200083C
:10010000670200086702000867020008670200082B
:10011000670200086702000867020008670200081B
:10012000670200086702000867020008670200080B
:1001300067020008670200086702000867020008FB
:100140000904000867020008670200086702000847
:1001500067020008670200086702000867020008DB
:1001600067020008670200086702000867020008CB
:10017000670200086702000867020008000000002C
:1001800067020008670200086702000867020008AB
:10019000670200086702000867020008670200089B
:1001A00000000000000000006702000800F002F8F4
:1001B00000F03CF80AA090E8000C82448344AAF1C5
:1001C0000107DA4501D100F031F8AFF2090EBAE8C3
:1001D0000F0013F0010F18BFFB1A43F0010318477B
:1001E0000C2E00002C2E0000103A24BF78C878C1D5
:1001F000FAD8520724BF30C830C144BF04680C602D
:10020000704700000023002400250026103A28BF74
:1002100078C1FBD8520728BF30C148BF0B60704778
:100220001FB502F0B5FE1FBD10B510BD00F0AEF851
:100230001146FFF7F5FF01F081FE00F0CCF803B4A2
:10024000FFF7F2FF03BC00F0CFF800000948804739
:1002500009480047FEE7FEE7FEE7FEE7FEE7FEE7A8
:10026000FEE7FEE7FEE7FEE704480549054A064BC0
:1002700070470000D11A0008AD01000818420020A4
:1002800018480020184400201844002053EA020CAB
:1002900000F069802DE9F04B4FF00006002B1FBFE6
:1002A000B3FA83F503FA05F424FA05F65E4012BFAB
:1002B0001643B2FA82F502FA05F4C5F120051EBF15
:1002C00022FA05FC44EA0C04203556EA044C4FEAB5
:1002D000144418BF641C4FF000084FF0000990420E
:1002E00071EB030C39D3002919BFB1FA81F701FA78
:1002F00007F6B0FA80F700FA07F6C7F120071EBF2D
:1003000020FA07FC46EA0C062037B6FBF4FCA7EB04
:100310000507103F07F01F0BCBF120062CFA06F65D
:100320000CFA0BFB44BFB3460026202FA4BF5E4649
:100330004FF0000B5BEA060C08BF4FF0010B19EB06
:100340000B0948EB0608ABFB027C06FB02CC0BFB5F
:1003500003CCC01B71EB0C01C1E70B4602464146C2
:100360004846BDE8F08B13B5084318BF4FF0FF3087
:100370000146AFF30080BDE81C40704770477047EE
:100380007047000000487047E80000207546FFF7FE
:10039000F9FFAE4605006946534620F00700854642
:1003A00018B020B5FFF760FFBDE820404FF0000611
:1003B0004FF000074FF000084FF0000BAC46ACE8E0
:1003C000C009ACE8C009ACE8C009ACE8C00921F03C
:1003D00007018D46704710B50446AFF300802046F4
:1003E000BDE81040FFF72BBF01491820ABBEFEE768
:1003F0002600020070470000FEE7000040F278107F
:10040000C2F2000000F09EB840F2A010C2F200005C
:1004100000F098B870470000EFF3108072B600BF8C
:10042000FEE700007047000010B590F82040013C46
:10043000012C0CD8D0F800C079B1DCF81040A4072A
:100440000FD100F1240101204FF400126FE000F100
:10045000240101204FF4802269E0DCF80C40A4075D
:1004600069D00CEB011CDCF8B0410CF5D87E14F01F
:1004700004049460DCF8B04119BFE4085460640DD2
:100480001460DEF80040002904F00204D460DCF8B7
:10049000B44104F00F041461DCF8B441C4F3072440
:1004A0009461DCF8B4414FEA14445461DCF8B8219B
:1004B0001A70026802EB0112D2F8B8214FEA122238
:1004C0005A70026802EB0112D2F8B8214FEA1242C8
:1004D0009A70026802EB0112D2F8B8214FEA126258
:1004E000DA70026802EB0112D2F8BC211A710268BC
:1004F00002EB0112D2F8BC214FEA12225A710268B3
:1005000002EB0112D2F8BC214FEA12429A71026842
:1005100002EB0112D2F8BC214FEA1262DA710068D4
:1005200014BF00F1100100F10C01002020220B6823
:100530001A430A6010BD00F1240101204FF400129B
:10054000F5E700002DE9F04F81B0044600684669E8
:10055000D0F804908768D0F80CB0D0F810A0D0F88C
:100560001880F10703D1002530071CD423E0F907D8
:1005700010D00121BA07816009D4780700F1AA8060
:10058000380700F1B080204600F06EFA02E0204605
:1005900000F06CFA0025F80500F18480F80300F102
:1005A000AA80300707D51BF0100004D0206845F45E
:1005B00000751021C160700708D51BF0080005D038
:1005C00020680821C160204600F0EEF9B00706D58A
:1005D0002068C068800702D0204600F0E7F9700666
:1005E00007D51AF0100004D0206845F4806510216A
:1005F0000161B00608D51AF0080005D0206808216E
:100600000161204600F02AFAF00606D5206800694C
:10061000800702D0204600F023FAB00308D519F075
:10062000100005D0206810214160204600F01AFA21
:10063000F00308D519F0080005D0206808214160B2
:10064000204600F01DFA300440F18F805FEA4970C7
:1006500040F1888006F4807008EA102028435FEAA1
:100660008871014648BF41F00201B20558BF0146FA
:100670005FEA48700D4648BF45F00405700558BF55
:100680000D4630056ED518F070006BD0103800099B
:10069000052862D8DFE800F0035356595C5F45F047
:1006A00008055AE020684FF48071BA0581600AD4C9
:1006B000780512D4380519D4204600F0D9F9F8038A
:1006C0007FF56FAF17E0204600F0D4F9F8037FF50F
:1006D00068AF10E04FF400655DE705F50055F803DD
:1006E0007FF55FAF07E04FF4805554E705F580458F
:1006F000F8037FF556AF20684FF48031BA0381606C
:100700000AD478030FD4380313D4204600F0B4F988
:1007100030073FF548AF4EE7204600F0AFF930070D
:100720003FF541AF47E705F5004530073FF53BAFE3
:1007300041E705F5803530073FF535AF3BE745F03C
:1007400010050AE045F0200507E045F0400504E00B
:1007500045F0800501E045F480752068816921F04D
:10076000700181612068042141604DB1606A40EAF6
:1007700005012046616201B0BDE8F04FFFF752BEAF
:1007800001B0BDE8F08F0000B0B5C8B1044690F8E4
:10079000200010B9204600F077F82068016841F089
:1007A0000101016000F04CFA054600BF2068416875
:1007B000C90707D100F044FA401B0B28F6D312E01A
:1007C0000120B0BD016821F00201016000F038FA9B
:1007D000054600BF2068416889070DD500F030FA52
:1007E000401B0B28F6D3606A052140F4003060629C
:1007F000012084F82010B0BD217E0268012922F07A
:10080000800308BF42F080030360617E0268012913
:1008100022F0400308BF42F040030360A17E02685B
:10082000012922F0200308BF42F020030360E17E8B
:100830000268012942F0100308BF22F01003036090
:10084000217F0268012922F0080308BF42F0080353
:100850000360617F0268012922F0040308BF42F0AF
:1008600004030360D4E901C2D4E9033561691A4382
:100870002A431143ACF101021143C161002001215F
:10088000606284F82010B0BD10B586B00021CDE9BB
:100890000411CDE90211006846F60002C4F200021C
:1008A0009042019134D046F20041C4F200018842E6
:1008B00078D140F27011C2F200010A6843F640009C
:1008C000C4F20200531C0B6052B900210091016870
:1008D00041F000710160016801F000710091009920
:1008E0000021009150F8101C142441F0080140F838
:1008F000101C50F8100C00F0080000900098032025
:10090000019040F20040C4F2020000F5006036E0C1
:1009100043F64000C4F202000091016841F080619A
:100920000160016801F080610091009940F270114E
:10093000C2F200010A68531C0B6052B900210091F9
:10094000016841F000710160016801F000710091DF
:1009500000990021009150F8101C402441F0020140
:1009600040F8101C50F8100C00F0020000900098A5
:100970004FF44050019040F20040C4F202000221C6
:10098000029100210391032104910921059101A9FC
:1009900000F078F820460521002200F009FA2046F0
:1009A00000F0F6F906B010BD7047000070B50168A0
:1009B00046F60002C4F2000291422FD046F20042F5
:1009C000C4F20002914218BF70BD40F24811C2F259
:1009D00000010C1D01F12005002122462B46FFF7E6
:1009E00023FD40F20006C2F20006204629463246A8
:1009F00001F080F906F124022046294601F07AF937
:100A000006F148022046294601F074F906F16C020D
:100A100020462946BDE8704001F06CB940F248110B
:100A2000C2F200010C1D01F12005002122462B46D7
:100A3000FFF7FAFC40F20000C2F2000000F1900261
:100A40002046294601F056F940F2F022C2F2000297
:100A500020462946BDE8704001F050BA70470000BA
:100A600070470000704700007047000070470000AA
:100A7000704700007047000070470000704700009A
:100A8000704700002DE9F04F82B000F13E4242F283
:100A9000004502F1FF77C4F202050A224FEAB726A9
:100AA000A84208BF0922092E38BF4FEAB7224FF0EB
:100AB000010A002400274FF00008009208E000BF60
:100AC000023708F10108202F04F1040400F0B4807B
:100AD0000E680AFA08F916EA090FF1D0D1F804A055
:100AE0000AF0030BABF10106012E17D8032286682A
:100AF00002FA07FECA6826EA0E06BA40324382604E
:100B00004268CAF3001522EA090205FA08F54FEA1D
:100B1000480C6FEA0E062A4342600BE00322BA40FB
:100B2000D643BBF1030FBC4604D1BC464FF0030BC8
:100B300022E000BFC2688D68324005FA0CF52A43F6
:100B4000BBF1020FC26017D16FF0030202EA580234
:100B5000024404F01C030F25D2F820E005FA03FA42
:100B60000D692EEA0A0E05FA03F343EA0E03136237
:100B7000D1F804A00AF0030B02680BFA0CF3324020
:100B80001A431AF4403F4FF0010A026098D0002245
:100B900043F644030192C4F202031A6843F6004E7E
:100BA00042F480421A601A68C4F2010E02F48042D4
:100BB0000192019A28F003024FF6084C7244CFF6D6
:100BC000FF7C52F80C3004F00C060F25B540AB4307
:100BD000009D05FA06F6334342F80C30DEF8082093
:100BE0004B6842EA090643F60C4CDD0258BF22EA84
:100BF0000906CEF80860C4F2010CDCF800209D0262
:100C000042EA090658BF22EA0906CCF80060DEF87D
:100C100004209D0342EA090658BF22EA0906CEF8DD
:100C20000460DEF80020DB0342EA090658BF22EA2E
:100C30000906CEF8006043E702B0BDE8F08F00007F
:100C400043F61070C2F200000068704740F2DC000A
:100C500043F61071C2F20000C2F2000100780A6887
:100C6000104408607047000080B543F60040C4F2AD
:100C70000200016841F400710160016841F4806183
:100C80000160016841F480710160032000F0BCF84C
:100C90000F2000F005F800F059F8002080BD00009A
:100CA00070B586B0002543F640010195C4F20201FB
:100CB0000A68044642F001020A60096801A801F0CE
:100CC000010101910199694600F09CF9049E002EF2
:100CD00018BF012600F0B6F94DF68361B040C4F2AA
:100CE0001B31A0FB01014FF0FF3000EB914140F2BE
:100CF000C810C2F200004FF0804240F2E733C0E972
:100D00000021C0E902530561856100F0AFFB054693
:100D1000C8B940F2C810C2F2000000F0D7FB054687
:100D200088B91C2000F034F80F2C0BD81C20214669
:100D30000022002500F03CF840F2E000C2F2000082
:100D4000046000E00125284606B070BD82B0002096
:100D500043F640010190C4F202014A6842F4804225
:100D60004A604A6802F480420192019A0090086841
:100D7000002240F08050086008680F2100F0805089
:100D8000009000986FF0010002B000F011B8000070
:100D9000002848BF704700F01F01012202FA01F14C
:100DA0004EF200124009CEF2000242F820107047C5
:100DB00010B54EF60C5CCEF2000CDCF80030C3F33C
:100DC000022E8EF00704042C28BF0424BEF1030376
:100DD0004FF0FF3E0EFA04F438BF0023A1439940C0
:100DE0000EFA03F39A4300F00F03043B11436344EC
:100DF00009010C3300F16042B0F1FF3FC8BF02F5BA
:100E00006443197010BD00004EF60C51CEF2000183
:100E10000A684FF6FF031A4060F30A2242F080602E
:100E200040F0FD700860704770B582B000200190FE
:100E300043F64000C4F202000168402641F08051B0
:100E400001600068C4F20E2600F080500190019805
:100E500047F204050120C4F200053060FFF7F0FE00
:100E6000044600BF2868C00306D4FFF7E9FE001B54
:100E7000B0F57A7FF6D90EE001207060FFF7E0FE52
:100E8000044600BF2868800308D4FFF7D9FE001B82
:100E9000B0F57A7FF6D9032002B070BD002002B011
:100EA00070BD00002DE9F041002800F08B8043F672
:100EB0000808C4F202080446D8F8F8030D4600F00A
:100EC0000F00884207D288F8F853D8F8F80300F0EA
:100ED0000F00A84276D12068810717D5410705D5B4
:100EE000D8F8001041F4E051C8F80010010705D50A
:100EF000D8F8001041F46041C8F80010D8F800108C
:100F0000A26821F0F0011143C8F80010C0073FD1DA
:100F1000D8F8F80300F00F00A84207D988F8F85372
:100F2000D8F8F80300F00F00A8424BD12068410721
:100F300007D5D8F80010E26821F4E0511143C8F851
:100F40000010000708D5D8F80000216920F460409F
:100F500040EAC100C8F8000000F09CF8D8F8001082
:100F600042F6C872C1F30311C0F60002515C40F2B0
:100F7000D80220FA01F140F2E000C2F2000000685D
:100F8000C2F200021160FFF78BFE0020BDE8F08185
:100F90006068811E022907D258F8081C89015CBFCD
:100FA0000120BDE8F08110E0012807D158F8081CA5
:100FB00089035CBF0120BDE8F08106E058F8081CF9
:100FC000890702D40120BDE8F081D8F8001021F093
:100FD00003010843C8F80000FFF732FE064641F25D
:100FE000883700BFD8F80000616800F00C00B0EB53
:100FF000810F8DD0FFF724FE801BB842F2D9032069
:10100000BDE8F0810F22026043F60802C4F202023A
:10101000136803F003034360136803F0F003836075
:10102000136803F4E053C360D2F800C04FF4E053F8
:1010300003EADC030361D2F8F80300F00F00086054
:101040007047000040F2D80043F60801C2F20000E9
:10105000C4F202010068096842F6D872C1F3822125
:10106000C0F60002515CC8407047000040F2D80052
:1010700043F60801C2F20000C4F2020100680968E8
:1010800042F6D872C1F34231C0F60002515CC8404A
:101090007047000010B543F60404C4F2020460680F
:1010A00000F00C0008280AD0042819BF42F20040C2
:1010B000C0F2F40041F60030C0F2B70010BD206865
:1010C00021682368490241F60031C0F2B70100F0FF
:1010D0003F02C3F388105CBF42F20041C0F2F4014A
:1010E000A1FB00010023FFF7D1F821680222C1F320
:1010F000014102EB4101B0FBF1F010BD2DE9F041DF
:1011000082B0002868D00446007843F60006C00785
:10111000C4F202060BD0B06800F00C00042840F0C6
:10112000A0803068800302D56068002854D0207801
:1011300080071AD5B06810F00C0F09D0B06800F025
:101140000C00082840F0B4807068400200F1B080C4
:101150003068800702D5E06801283DD130682169F8
:1011600020F0F80040EAC10030602078000737D452
:10117000207840074BD4A56955B3B06800F00C0047
:10118000082840F0DA80012D26D07068E16900F46B
:1011900080028A4220D1216A00F03F028A421BD19C
:1011A00047F6C071626A0140B1EB821F14D1A16A97
:1011B0004FF6FF73C903994300F44032A1F5803123
:1011C0008A4209D1E16A00F07060B0EB016F03D18F
:1011D000002002B0BDE8F081012002B0BDE8F0813E
:1011E0006069002840F20000C4F2472000F09180BE
:1011F0000121C0F8801EFFF723FD0546706F8007B0
:10120000B6D4FFF71DFD401B0228F7D991E0306CE2
:101210004FF00008C0000CD4CDF80480306C4FF0C3
:10122000010840F080503064306C00F08050019034
:10123000019847F20007C4F200073868C0054DD492
:10124000386840F480703860FFF7FAFC054600BF4C
:101250003868C00542D4FFF7F3FC401B0228F7D9D9
:1012600067E0B06800F00C00082803D17068400205
:101270003FF557AF6568B5F5803F07D03068B5F5E5
:10128000A02F40F0B38040F480203060306840F4FC
:1012900080303060FFF7D4FC054600BF3068800323
:1012A0003FF545AFFFF7CCFC401B6428F6D940E082
:1012B000E068002864D00020C4F2472001210160CA
:1012C000FFF7BEFC054600BF306880073FF546AF1C
:1012D000FFF7B6FC401B0228F6D92AE0A568012DCD
:1012E00005D0306F052D5FD140F004003067306FBE
:1012F00040F001003067FFF7A3FC054641F2883754
:10130000306F800769D4FFF79BFC401BB842F7D9C8
:101310000FE00021C0F8801EFFF792FC054600BFD9
:10132000706F80077FF524AFFFF78AFC401B02280F
:10133000F6D9032002B0BDE8F0810027C4F24727A8
:1013400000203866FFF77CFC022D05460CD100BF5B
:101350003068800164D5FFF773FC401B02284FF012
:101360000300F5D935E700BF306880017FF530AF65
:10137000FFF766FC401B02284FF00300F4D928E772
:101380000020C4F2472000210160FFF759FC054608
:10139000306880077FF5E9AEFFF752FC401B02285A
:1013A0004FF00300F4D914E720F001003067306FEC
:1013B00020F004003067FFF743FC002D05469DD167
:1013C00041F28837306F800707D5FFF739FC401BA3
:1013D000B8424FF00300F5D9FBE6B8F1000F3FF437
:1013E000CAAE306C20F080503064C4E620F4803007
:1013F0003060306820F480203060FFF721FC002D41
:1014000005467FF44BAF07E0FFF71AFC401B64284A
:101410004FF003003FF6DDAE30688003F4D486E67B
:1014200004F11C052FCD084340EA8210D9034FF682
:10143000FF729143A1F5803140EA05600843706076
:1014400001203866FFF7FCFB044600BF30688001CE
:101450003FF5BEAEFFF7F4FB001B02284FF0030080
:10146000F4D9B6E67047000070470000002804BFBA
:101470000120704710B5044690F83D0028B90020BF
:1014800084F83C00204600F01FF8022084F83D005C
:101490002068211D00F02CFB012084F8460084F810
:1014A0003E0084F83F0084F8400084F8410084F84E
:1014B000420084F8430084F8440084F8450084F82E
:1014C0003D00002010BD00007047000090F83D1066
:1014D00001291CBF01207047022180F83D100068DF
:1014E00041F2FF72C168C4F20002904241F0010172
:1014F000C1600DDC40F2FF71C4F20001884215DCCE
:10150000B0F1804F29D040F20041C4F2000122E046
:1015100040F2FF31C4F20101884212DC41F60001C1
:10152000C4F20001884218D0002112E040F6000108
:10153000C4F20001884210D040F60041C4F200011C
:1015400009E044F20001C4F20101884205D040F2F2
:101550000041C4F20101884206D1816801F007010F
:10156000062904BF00207047016841F001010160B5
:10157000002070477047000010B5016804460869F4
:10158000800744BFC8685FEA807038D408694007A4
:1015900044BFC8685FEA40703DD40869000744BF93
:1015A000C8685FEA007043D40869C00644BFC868D1
:1015B0005FEAC06048D40869C0071CBFC8685FEA1A
:1015C000C0704ED10869000644BFC8685FEA006079
:1015D0004FD40869400644BFC8685FEA406050D4F1
:1015E0000869800646BFC8685FEA806010BD6FF07A
:1015F000200220460A61BDE81040FFF735BF6FF0BA
:1016000002000861012020778869800741D02046C8
:10161000FFF7B0FF43E06FF004000861022020777D
:10162000886910F4407F3ED02046FFF7A3FF40E0DA
:101630006FF00800086104202077C86980073CD05B
:101640002046FFF797FF3EE06FF01000086108208A
:101650002077C86910F4407F39D02046FFF78AFF11
:101660003BE06FF001000861204600F03FF8216880
:10167000A8E76FF0800008612046FFF7F3FE2168BD
:10168000A7E76FF040000861204600F037F82168B6
:10169000A6E7204600F026F8204600F025F821684D
:1016A0000020207772E7204600F01CF8204600F06A
:1016B0001BF82168002020776FE7204600F012F821
:1016C000204600F011F82168002020776CE72046C2
:1016D00000F008F8204600F007F821680020207785
:1016E00069E7000070470000704700000068B0F133
:1016F000804F08BFFFF7AABA70470000704700008C
:10170000002804BF0120704710B5044690F83D0042
:1017100028B9002084F83C00204600F021F824205D
:1017200084F83D002068C16821F40051C160204662
:1017300000F070FA2068016921F49041016141696B
:1017400021F02A014161C16841F40051C1600020CB
:101750002021206484F83D1084F83E1010BD000064
:1017600080B586B000220592CDE9032244F600013F
:101770000068C4F2000188420292019201D006B0D2
:1017800080BD43F630000092C4F20200036943F4C6
:1017900080230361036903F480230093009B00927C
:1017A000036843F004030360006800F00400009045
:1017B00000984FF4406001900220CDE9020203201E
:1017C00004900720059001F5E03001A9FFF75AF9D0
:1017D00006B080BDFEE7000080B540F2781046F20A
:1017E0000041C2F20000C4F200010023102280E890
:1017F0000E00C0E90333C0E905338383FEF7C4FF5D
:10180000002808BF80BDBDE88040FEF705BE00008F
:1018100080B540F2A01046F60001C2F20000C4F20A
:1018200000010023102280E80E00C0E90333C0E964
:1018300005338383FEF7A8FF002808BF80BDBDE8FD
:101840008040FEF7E9BD000010B588B042F6AC70EC
:10185000C0F6000090E80E50D0E9054001910292D8
:101860000393CDF810C0CDF814E0CDE9064001A8EF
:10187000002100F083FB40F27411C2F20001086005
:1018800008B010BD81B0002143F630000091C4F2D1
:101890000200026842F001020260026802F00102E6
:1018A0000092009A0091026842F008020260026809
:1018B00002F008020092009A0091026842F00402CD
:1018C0000260026802F004020092009A009102682D
:1018D00042F080020260026802F080020092009AE8
:1018E0000091016841F002010160006800F002000F
:1018F0000090009801B0704780B540F2102044F687
:101900000001C2F20000C4F2000100234FF00C0CF1
:101910004FF4E13280E80E00C0E90333C0E905C3AB
:10192000C361FFF7EDFE002808BF80BDBDE8804021
:10193000FEF772BDFEE70000FEE7000000000000B9
:10194000EFF30980BFF36F8F154B1A681EF0100F6D
:1019500008BF20ED108A20E9F04F10602DE9090042
:101960004FF0500080F31188BFF34F8FBFF36F8F9C
:1019700001F03EF84FF0000080F31188BDE8090047
:1019800019680868B0E8F04F1EF0100F08BFB0ECFF
:10199000108A80F30988BFF36F8F704700BF00BFC4
:1019A00054020020000000000000000000000000C1
:1019B000074B19680868B0E8F04F80F30988BFF357
:1019C0006F8F4FF0000080F31188704700BF00BF99
:1019D00054020020012000F0C3FAFBE780B54FF06D
:1019E000500080F31188BFF36F8FBFF34F8F01F06A
:1019F0006DF930B14EF60450CEF200004FF0805138
:101A00000160002080F3118880BD000080B592B095
:101A1000002043F64001CDE90A00CDE90800059019
:101A2000CDE90300CDE901000090C4F202010A688B
:101A300042F080520A60096801F0805100910099DB
:101A4000009047F20000C4F20000016841F44041F8
:101A5000016000684FF4800100F44040009000985D
:101A6000012006904FF480300D910621079002204E
:101A70000E91B4210C90CDE90F100420119006A80E
:101A8000FFF73CFB18B1EFF3108072B6FEE7FFF7EB
:101A9000CBF920B1EFF3108072B600BFFEE70F2044
:101AA000019002200290002003904FF4A050049077
:101AB0004FF48050059001A80521FFF7F3F920B1FC
:101AC000EFF3108072B600BFFEE712B080BD0000D9
:101AD0004EF68850CEF20000016841F470010160BA
:101AE0007047000040F2C810C2F20000FFF744BD8A
:101AF00010B540F6FF3E0368C4F2000E40F2004C01
:101B00007045C4F2010C0FDCB0F1804F19D040F2E7
:101B10000042C4F20002904213D040F60002C4F228
:101B2000000290420DD010E040F60042C4F20002E4
:101B3000904206D0604504D00022C4F201029042D7
:101B400003D14A6823F07003134341F6FF72C4F2D5
:101B5000000290420DDC70451FDCB0F1804F41D097
:101B600040F20042C4F2000290423BD040F6000234
:101B700021E043F6FF72C4F20102904220DC42F2FF
:101B80000002C4F2000290422CD00022C4F20102F2
:101B9000904227D0604525D028E040F60042C4F2AC
:101BA000000290421ED041F60002C4F200029042B0
:101BB00018D041F60042C4F20002904212D015E063
:101BC00044F20002C4F2010290420BD044F600023B
:101BD000C4F20102904205D044F20042C4F2010274
:101BE000904203D1CA6823F44073134323F0800268
:101BF0004B69D1F800E08C681A430260C46240F47B
:101C00008062C0F828E0624504BF096901630121D0
:101C1000416110BD10B504460068D4E902C22369D1
:101C2000016921F4405111430161626943EA0C01E9
:101C3000E3691143C268194349F20C639A431143A3
:101C4000C1604169A26921F4407141F2004311432E
:101C500040F48062C4F201039A42416102D1FFF76D
:101C600005FA01E0FFF7EEF9E16963681922B1F5C1
:101C7000004FA0FB02011CD15A00DB0FFEF706FB50
:101C800048F21F51C5F2EB11A0FB01235A096FF076
:101C9000630302FB0300322303EBC000A0FB01013E
:101CA0004FF4F87000EA111000EB0210C1F342117A
:101CB0001AE09A009B0FFEF7E9FA48F21F51C5F2AD
:101CC000EB11A0FB01235A096FF0630302FB030031
:101CD000322303EB0010A0FB0101F02000EA5110B9
:101CE00000EB0210C1F3431122680843906010BD5D
:101CF000FEE7000080B500685368984240F0F58028
:101D000091F806C082F818C00888BCF1510F03BAD8
:101D10004FEA134313824B88C0BA1BBA4FEA1343EE
:101D2000D381898809BA4FEA114191810BD3D18BB4
:101D300001318BB2C92BD18307D30021D18302217A
:101D400082F8201001E00021D183117F02291ED0EA
:101D500001290FD0002918BF80BD1178012923D196
:101D6000134633F912EF704534DAA0EB0E0101F59A
:101D7000005C36E01178012921D1134633F912EFC6
:101D8000704555DAA0EB0E0101F5005C57E01178C3
:101D9000012942D1134633F912EF704577DAA0EBEF
:101DA0000E0101F5005C79E0012113464FF0000CB3
:101DB000117023F8120FC2F814C0864611E00121F9
:101DC00013464FF0000C117023F8120FC2F814C024
:101DD000864634E0C6BFA0EB0E01A1F5005C4FF0D3
:101DE000000CA0EB0E0E0FFA8CF1002918800FFAF0
:101DF0008EF048BF4942002848BF40428142CCBFD4
:101E00000FFA8EF00FFA8CF000EE100A9FED3A1ADE
:101E1000B8EEC00A20EE010A2CE0012113464FF073
:101E2000000C117023F8120FC2F814C0864635E07A
:101E3000C6BFA0EB0E01A1F5005C4FF0000CA0EBBB
:101E40000E0E0FFA8CF1002918800FFA8EF048BFA1
:101E50004942002848BF40428142CCBF0FFA8EF071
:101E60000FFA8CF000EE100A9FED221AB8EEC00AAD
:101E700080EE010A9FED1E1A92ED052A20EE010A5E
:101E800030EE020A82ED050A82ED050A80BDC6BF6A
:101E9000A0EB0E01A1F5005C4FF0000CA0EB0E0EC4
:101EA0000FFA8CF1002918800FFA8EF048BF4942D2
:101EB000002848BF40428142D4BF0FFA8CF00FFA8D
:101EC0008EF000EE100A9FED091AB8EEC00A80EEFF
:101ED000010A9FED071A92ED052A20EE010A30EE65
:101EE000020A82ED050A82ED050A80BD00009048D5
:101EF0000000B4432CA0194800000039E2B100688A
:101F000040F20233984218BF7047087880099072F7
:101F10000878C0F30110D0720878C0F3C000907543
:101F2000488800BA000CD080888800BA000C9080E5
:101F3000C88800BA000C908270470000FEF794FE3B
:101F4000FFF764FDFFF79EFCFFF746FCFFF760FC20
:101F5000FFF7D2FCFFF778FC00F00AF8FEE700007C
:101F600080B5002808BF012000F066FC002080BD7D
:101F700080B500F0C3FC002080BD0000B0B584B087
:101F800043698E469BB184698CB10589D0E9001CF8
:101F9000026928B2843D18BFC51CCDE900536046D4
:101FA0007346029400F056FE039004B0B0BD05895C
:101FB000D0E90013028A28B2843D18BFC51C03ACC7
:101FC000184673460095019400F014FE01460398EC
:101FD000012918BF002004B0B0BD00002DE9F04376
:101FE00081B0044600F05EFB43F61470C2F20000BC
:101FF000016840F2542601310160C2F200063168E6
:1020000044F2DC1740F26425C2F20007C2F2000578
:1020100049B13868002851D13068E16AC06A884205
:1020200098BF34604AE034600068012846D12846F1
:1020300000F0E0FA05F1140000F0DCFA05F12800E8
:1020400000F0D8FA05F13C0000F0D4FA05F1500098
:1020500000F0D0FA05F1640000F0CCFA05F1780048
:1020600000F0C8FA43F62C78C2F20008404600F0AF
:10207000C1FA43F64079C2F20009484600F0BAFAC4
:1020800044F2C810C2F2000000F0B4FA44F2FC10AE
:10209000C2F2000000F0AEFA44F2E810C2F2000012
:1020A00000F0A8FA40F25820C2F20000C0F8008008
:1020B00040F26020C2F20000C0F8009043F62070A9
:1020C000C2F20000016843F6247201310160E06A47
:1020D000C2F20002012113688140194300EB800025
:1020E000116005EB8000211D00F0C4FA00F0FEFA3B
:1020F000386878B13068E16AC06A88420AD24EF620
:102100000450CEF200004FF080510160BFF34F8FBA
:10211000BFF36F8F01B0BDE8F083000043F6187580
:1021200040F2642A4EF6045844F2FC1743F6147643
:10213000C2F20005C2F2000ACEF200084FF0805948
:10214000C2F20007C2F2000603E000BF204600F022
:10215000E5FA2868C8B100F0A5FAF868C468201D3F
:1021600000F028FA306801383060286801382860AB
:1021700000F0BCFA94F851000228EAD00128E5D01A
:1021800070B9206B00F0CAFAE0E7DAF80000022824
:10219000DFD3C8F80090BFF34F8FBFF36F8FD8E73E
:1021A0004FF0500080F31188BFF36F8FBFF34F8F54
:1021B000FEE700002DE9F047DDE909878246386B2C
:1021C000089C00EB820004389946002920F007069D
:1021D00054D0087887F83400087800284AD0487826
:1021E00087F835004878002844D0887887F836008A
:1021F000887800283ED0C87887F83700C878C8B3F8
:10220000087987F838000879A0B3487987F8390049
:10221000487978B3887987F83A00887950B3C879D3
:1022200087F83B00C87928B3087A87F83C00087A19
:1022300000B3487A87F83D00487AD8B1887A87F8A1
:102240003E00887AB0B1C87A87F83F00C87A88B172
:10225000087B87F84000087B60B1487B87F8410025
:10226000487B38B1887B87F84200887B10B1C87BF7
:1022700087F84300002087F8430002E0002087F839
:1022800034000025381D062C28BF0624FC62C7E94F
:10229000114500F0BBF907F1180000F0B7F984F020
:1022A0000700B861304651464A463F617F62FD648F
:1022B00087F8505000F06AF9B8F1000F386018BF85
:1022C000C8F80070BDE8F08708480068006880F32F
:1022D00008884FF0000080F3148862B661B6BFF33F
:1022E0004F8FBFF36F8F00DF00BF00BF08ED00E02E
:1022F00081B00020009040F2E400C2F200000068CB
:102300004FF0500181F31188BFF36F8FBFF34F8FF0
:10231000013007D0FEE700BF009830B9009820B91F
:10232000009810B900980028F6D001B0704700005E
:102330002DE9F04381B0044600F052FB40F25C23EB
:10234000C2F20003186840B143F62870C2F20000E0
:102350000078012836D0002036E040F20830C2F282
:102360000000C21D22F0070210F00701A0EB0207D7
:1023700018BF104644F2E012C2F200020026C2E981
:1023800000064FF47052002918BF07F570528118EB
:10239000083921F007011960C1E900661A68091AB5
:1023A000C0E9002144F2B010C2F20000016043F61F
:1023B0005470C2F20000016043F62870C2F20000BF
:1023C000012101704FF00040002C4FF0000500F09B
:1023D000CA80204040F0C78004F1080515F00700CE
:1023E0001EBF281A00F108055FEA45702DD143F69B
:1023F000547CC2F2000CDCF80080681E404558D2C4
:1024000044F2E016C2F200063168894659F8040F1A
:10241000A84237D20A6812B35068A84224D214687E
:1024200014B36068A84224D2276817B37868A8421A
:1024300024D2396811B34868A84202D20A68002A37
:10244000EAD101F104093E461CE04FF0500080F350
:102450001188BFF36F8FBFF34F8F00BFFEE744F2C9
:10246000E016C2F200060DE002F104090E46114624
:1024700008E004F104091646214603E007F10409C7
:10248000264639461B68994213D0D6F800E00C68FE
:10249000421B112A346042D3481944070BD04FF035
:1024A000500080F31188BFF36F8FBFF34F8F00BFD1
:1024B000FEE7002557E04260C9F8005044F2E015FD
:1024C000C2F200052A6882420AD2156885420AD201
:1024D0002A68824204D2156816468542F2D303E088
:1024E0002E46154600E016467268B418844201D0A4
:1024F000426803E040680244304672608418AC428F
:1025000001D0056008E09D4205D0D5E900431A449A
:10251000C0E9004200E00360864218BF306044F228
:10252000B012D9F80000C2F200021768A8EB00034D
:10253000BB42CCF8003038BF136043F62872C2F2B9
:10254000000212780EF10805002A44F2BC12C2F211
:10255000000218BF40F000401368C9F800000020D6
:102560000860581C106000F071FC680709D04FF03B
:10257000500080F31188BFF36F8FBFF34F8F00BF00
:10258000FEE7284601B0BDE8F0830000034642F2B2
:10259000F120C0F600004FF0807C21F0010103E93A
:1025A00003106FF0020043F8240CA3F1440043F839
:1025B000202C7047D0E9013201699A60D1F804C03B
:1025C00082688445536008BF4A600022026108683F
:1025D000013808600868704744F25C13C2F20003D7
:1025E000036043F65870C2F200000860802010605B
:1025F000704700004FF0FF31024642F8081F0021EB
:102600004260C0E9032201607047000000210161BF
:102610007047000010B5D1F800C01CF1010213D0C2
:1026200000F1080462681368634511D853681C6898
:10263000644510D85A68146864450ED854682368F5
:10264000A6466345EED90AE00269D2F804E006E046
:102650009646224603E09E4601E096461A46C1F899
:1026600004E0CEF808108A60516008610168013109
:10267000016010BDD0F800C0436808619A684B60E3
:102680008A609A68996051600CF10101016070479D
:10269000DFF80C00016841F470010160704700BF71
:1026A00088ED00E04FF0500080F31188BFF36F8F8A
:1026B000BFF34F8F40F2E400C2F2000001684A1CF1
:1026C000026001B170474EF60450CEF2000000687F
:1026D000000608BF70474FF0500080F31188BFF329
:1026E0006F8FBFF34F8F00BFFEE7000040F2E400A2
:1026F000C2F20000016839B10139016018BF7047AA
:10270000002080F3118870474FF0500080F311884B
:10271000BFF36F8FBFF34F8FFEE70000B0B5002807
:1027200008BFB0BD044643F62870C2F2000000782E
:1027300054F8041C002818BF4FF0004008420CD089
:10274000A4F108052A6892B14FF0500080F3118877
:10275000BFF36F8FBFF34F8FFEE74FF0500080F352
:102760001188BFF36F8FBFF34F8F00BFFEE721EAE1
:10277000000044F8040C00F033F943F65471C2F23F
:10278000000154F8040C0A6802440A6044F2E011A3
:10279000C2F200010B68AB420AD21968A9420AD200
:1027A0000B68AB4204D219681A46A942F2D303E07F
:1027B0000A46194600E01A465368D418AC4202D1C2
:1027C0001844154650602B188B4201D029600BE04D
:1027D00040F25C23C2F200031B689942F6D0D1E9B3
:1027E00000131844C5E9001044F2C010AA4218BFF3
:1027F0001560C2F20000016801310160BDE8B0401F
:1028000000F024BB4EF21000CEF200000021016067
:10281000816040F2D801C2F20001096844F6D35247
:10282000C1F26202A1FB02124FF0FF3101EB9211E3
:10283000416007210160704770B5002851D00446FF
:1028400043F61C70C2F20000016841B14FF0500025
:1028500080F31188BFF36F8FBFF34F8FFEE70168DE
:1028600040F254250131016044F21020C2F2000010
:10287000C2F20005066828680430FFF79BFE60B9C5
:10288000286843F62472C06AC2F20002012113686C
:1028900001FA00F023EA000010602868A4194460DF
:1028A00009D340F26020C2F20000006829680431B8
:1028B000FFF7B0FE10E040F25820C2F200000068BE
:1028C00029680431FFF7A6FE44F2B410C2F20000FA
:1028D00001688C4238BF046000F0B8FA002818BFC5
:1028E00070BD4EF60450CEF200004FF080510160F2
:1028F000BFF34F8FBFF36F8F70BD0000B0B588B0CE
:102900000020CDE9050006A805A904AAFFF764FE8A
:102910000598002842D0069C002C48D05421049AE7
:102920000791079954294CD107992063022084F814
:10293000510007A80025CDE9005042F21D10C0F655
:10294000000025A100230294FFF734FC2046FFF786
:1029500045FB079844F25811C2F200010860D8B153
:102960004FF0500080F31188BFF36F8FBFF34F8F8C
:1029700044F2B410C2F200004FF0FF31016044F2A3
:10298000DC10C2F200000121016044F21020C2F20A
:102990000000056000F06EF808B0B0BD4FF05000C8
:1029A00080F31188BFF36F8FBFF34F8FFEE74FF0B7
:1029B000500080F31188BFF36F8FBFF34F8F00BFBC
:1029C000FEE74FF0500080F31188BFF36F8FBFF325
:1029D0004F8F00BFFEE700BF49444C450000000098
:1029E00043F61C70C2F200000168013101607047BB
:1029F00043F61C70C2F20000006830B144F21420AB
:102A0000C2F2000001210160704744F21420C2F2BA
:102A100000000021016043F62470C2F2000000684B
:102A2000B0FA80F0C0B2C0F11F0040F2642100EBA8
:102A30008000C2F2000151F820208AB101EB800130
:102A400051F8040F40680A1D9042086001D14068A7
:102A50000860C06840F25421C2F20001086070476B
:102A60004FF0500080F31188BFF36F8FBFF34F8F8B
:102A7000FEE70000B0B584B04EF20040CEF2000098
:102A80004CF27021C4F20F11D0F800294B1C9A426D
:102A900009D14FF0500080F31188BFF36F8FBFF35F
:102AA0004F8F00BFFEE7D0F800298A4209D14FF0CE
:102AB000500080F31188BFF36F8FBFF34F8F00BFBB
:102AC000FEE7017843F608720291FF210170017858
:102AD000C2F200028DF807109DF8071001F05001B6
:102AE000117043F60C71C2F2000107220A609DF9D1
:102AF0000720B2F1FF3F66DC072200BF9DF80730D8
:102B00005B008DF807309DF90730002B1ED59DF82E
:102B100007305B008DF807309DF90730B3F1FF3FB8
:102B200016DC9DF807305B008DF807309DF9073003
:102B3000B3F1FF3F0EDC9DF80730043A5B008DF8DF
:102B400007309DF90730002BD8D404E0013A02E0A9
:102B5000023A00E0033A032A0A6034D14FF440728B
:102B60000A6002990170D0F8201941F47001C0F890
:102B70002019D0F8201941F07041C0F82019FFF752
:102B800041FE40F2E404C2F2000400252560FFF794
:102B90007FFD4EF63470CEF20000016841F04041F6
:102BA0000160FFF791FBFFF723FF039520684FF0CB
:102BB000500181F31188BFF36F8FBFF34F8F013046
:102BC00011D000BFFEE74FF0500080F31188BFF333
:102BD0006F8FBFF34F8F00BFFEE7039830B90398A4
:102BE00020B9039810B903980028F6D0002004B04B
:102BF000B0BD00002DE9F04383B007469000984631
:102C000015468946FFF794FBF0B106465420FFF7BE
:102C10008FFBB0B10446DDE90A100022266384F878
:102C20005120CDE90010384649462A4643460294D1
:102C3000FFF7C0FA2046FFF7D1F9012003B0BDE845
:102C4000F0833046FFF76AFD4FF0FF3003B0BDE878
:102C5000F083000070B586B00B9CCCB10C9E06B31F
:102C600054250495049D542D25D1049DDDF828C0DC
:102C7000022586F8515005AD3463CDE900C50296B2
:102C8000FFF798FA3046FFF7A9F9059806B070BD2E
:102C90004FF0500080F31188BFF36F8FBFF34F8F59
:102CA000FEE74FF0500080F31188BFF36F8FBFF342
:102CB0004F8F00BFFEE74FF0500080F31188BFF345
:102CC0006F8FBFF34F8F00BFFEE700002DE9F04F7D
:102CD00081B043F61C70C2F20000006840B144F2BB
:102CE000C410C2F200000168002401310160A9E0B3
:102CF00044F21020C2F2000001684E1C06602ED380
:102D000040F25820C2F200000168096849B14FF052
:102D1000500080F31188BFF36F8FBFF34F8F00BF58
:102D2000FEE740F26022C2F200020168136803600D
:102D3000116044F2B811C2F200010A6801320A605F
:102D40000168096821B10068C068C068406801E096
:102D50004FF0FF3044F2B411C2F20001086044F2B7
:102D6000B411C2F20001086840F2542A8642C2F24D
:102D7000000A01D200244FE040F2582BC2F2000BAF
:102D8000DBF8000000240068E0B343F62479012753
:102D9000C2F2000920E000BFD8F82C00D9F80010DA
:102DA00007FA00F21143C9F8001040F2642100EB69
:102DB0008000C2F2000101EB80002946FFF75AFCB7
:102DC000D8F82C00DAF80010C96ADBF80020884235
:102DD000106828BF3C46C0B1DBF80000C068D0F8DE
:102DE0000C80454655F8040F864210D32846FFF75D
:102DF000E1FBD8F828000028CED008F11800FFF732
:102E0000D9FBC9E74FF0FF3005E04FF0FF3044F247
:102E1000B411C2F200010860DAF8000040F2642147
:102E2000C06AC2F2000100EB800051F820000128C6
:102E300044F21420C2F2000088BF01240068002878
:102E400018BF0124204601B0BDE8F08F2DE9F04FF6
:102E500081B043F61C74C2F20004206868B1FFF729
:102E600021FC206801382060206880B10024FFF731
:102E70003DFC204601B0BDE8F08F4FF0500080F3DC
:102E80001188BFF36F8FBFF34F8F00BFFEE743F68C
:102E90001470C2F20000006800284DD044F2C81639
:102EA000C2F20006306844F214280028C2F200087A
:102EB0004BD043F6247540F2642940F2542A4FF077
:102EC000010BC2F20005C2F20009C2F2000A00BF03
:102ED000F068C76807F11800FFF76CFB3C1D20463F
:102EE000FFF768FBF86A29680BFA00F2114300EB60
:102EF0008000296009EB80002146FFF7BBFBF86AE0
:102F0000DAF80010C96A884228BFC8F800B03068F3
:102F10000028DDD1CFB140F25820C2F20000016894
:102F2000096859B1006844F2B411C068C2F20001E6
:102F3000C0684068086008E0002498E744F2B410D4
:102F4000C2F200004FF0FF31016044F2C414C2F23B
:102F50000004256855B10126FFF7B8FE002818BF08
:102F6000C8F80060013DF7D100202060D8F80000CB
:102F700060B14EF60450CEF200004FF08051016077
:102F8000BFF34F8F0124BFF36F8F70E700246EE70C
:102F9000F1EE100A4FF6FF71C0F2C03120EA0100D5
:102FA00040F04070E1EE100A70470000E02F00088A
:102FB000D51900080000000000000000800000009B
:102FC0000000000000000000000000000000000001
:102FD00001020304060708090000000001020304BF
:102FE00064656661756C745461736B001030000821
:102FF00000000020E8000000E8010008F8300008A8
:10300000E800002030470000040200080000000033
:103010000000000001020000006400400000000009
:10302000000000000000000000000000010000009F
:1030300000000000000000000302000000640040E7
:103040000000000000000000000000000000000080
:10305000010000000000000000000000020200006B
:1030600000640040000000000000000000000000BC
:10307000000000000100000000000000000000004F
:103080000402000000640040000000000000000096
:10309000000000000000000001000000000000002F
:1030A0000000000005020000006800400000000071
:1030B0000000000000000000000000000000000010
:1030C0000000000000000000000000000000000000
:1030D00000000000000000000000000000000000F0
:1030E00000000000000000000024F40001000000C7
:0830F00010000000AAAAAAAA20
:04000005080001AD41
:00000001FF
