:020000040800F2
:10000000E04C00202902000821330008712C000870
:100010001D330008D5030008213A00080000000045
:10002000000000000000000000000000B1350008E2
:100030002D0400080000000031330008DD35000801
:10004000430200084302000843020008430200087C
:10005000430200084302000843020008430200086C
:10006000430200084302000831040008430200086C
:10007000F10300084302000843020008430200089D
:10008000430200084302000843020008430200083C
:10009000D90300084302000843020008390400089D
:1000A000430200084302000843020008430200081C
:1000B000D13600084302000843020008430200084A
:1000C00043020008430200084302000843020008FC
:1000D000430200084302000843020008153A0008E2
:1000E00043020008430200084302000843020008DC
:1000F00043020008430200084302000843020008CC
:1001000043020008430200084302000843020008BB
:1001100043020008430200084302000843020008AB
:1001200043020008FD030008090400084302000818
:10013000430200084302000843020008430200088B
:10014000E5030008430200084302000843020008D8
:1001500043020008150400082104000843020008B7
:10016000430200084302000843020008430200085B
:100170004302000843020008430200080000000098
:10018000430200084302000800F002F800F03CF8C7
:100190000AA090E8000C82448344AAF10107DA45E2
:1001A00001D100F031F8AFF2090EBAE80F0013F0F8
:1001B000010F18BFFB1A43F0010318473C4A000027
:1001C0005C4A0000103A24BF78C878C1FAD85207B8
:1001D00024BF30C830C144BF04680C6070470000C1
:1001E0000023002400250026103A28BF78C1FBD840
:1001F000520728BF30C148BF0B6070471FB504F0DD
:10020000D8FC1FBD10B510BD00F0AEF81146FFF7C9
:10021000F5FF03F07FFD00F0CCF803B4FFF7F2FF29
:1002200003BC00F0CFF800000948804709480047A8
:10023000FEE7FEE7FEE7FEE7FEE7FEE7FEE7FEE796
:10024000FEE7FEE704480549054A064B70470000F3
:10025000BD36000889010008E0460020E04C00207F
:10026000E0480020E048002053EA020C00F06980DA
:100270002DE9F04B4FF00006002B1FBFB3FA83F5BA
:1002800003FA05F424FA05F65E4012BF1643B2FAEB
:1002900082F502FA05F4C5F120051EBF22FA05FC1D
:1002A00044EA0C04203556EA044C4FEA144418BFC3
:1002B000641C4FF000084FF00009904271EB030CF2
:1002C00039D3002919BFB1FA81F701FA07F6B0FA5C
:1002D00080F700FA07F6C7F120071EBF20FA07FCD7
:1002E00046EA0C062037B6FBF4FCA7EB0507103FE7
:1002F00007F01F0BCBF120062CFA06F60CFA0BFBCD
:1003000044BFB3460026202FA4BF5E464FF0000B2B
:100310005BEA060C08BF4FF0010B19EB0B0948EB29
:100320000608ABFB027C06FB02CC0BFB03CCC01B1C
:1003300071EB0C01C1E70B46024641464846BDE859
:10034000F08B13B5084318BF4FF0FF300146AFF3F1
:100350000080BDE81C407047704770477047000040
:1003600000487047E00000207546FFF7F9FFAE46F1
:1003700005006946534620F00700854618B020B5B1
:10038000FFF760FFBDE820404FF000064FF0000788
:100390004FF000084FF0000BAC46ACE8C009ACE8E9
:1003A000C009ACE8C009ACE8C00921F007018D46DE
:1003B000704710B50446AFF300802046BDE81040FA
:1003C000FFF72BBF01491820ABBEFEE72600020055
:1003D00070470000FEE7000040F27C30C2F20000EF
:1003E00000F0C6B840F2A430C2F2000000F0C0B87D
:1003F00040F28C40C2F2000000F0AEBB40F2EC4094
:10040000C2F2000000F0A8BB40F2CC30C2F2000003
:1004100000F0A2BB40F24C50C2F2000000F09CBBC6
:1004200040F22C40C2F2000000F096BB7047000082
:10043000102000F025BD0000202000F021BD0000AC
:10044000EFF3108072B600BFFEE7000070470000B7
:1004500010B590F82040013C012C71D8D0F800C0B4
:10046000002977D0DCF81040A40777D00CEB011CF2
:10047000DCF8B0410CF5D87E14F004049460DCF88C
:10048000B04119BFE4085460640D1460DEF8004008
:10049000002904F00204D460DCF8B44104F00F0435
:1004A0001461DCF8B441C4F307249461DCF8B4416E
:1004B0004FEA14445461DCF8B8211A70026802EB68
:1004C0000112D2F8B8214FEA12225A70026802EBE8
:1004D0000112D2F8B8214FEA12429A70026802EB78
:1004E0000112D2F8B8214FEA1262DA70026802EB08
:1004F0000112D2F8BC211A71026802EB0112D2F883
:10050000BC214FEA12225A71026802EB0112D2F8A2
:10051000BC214FEA12429A71026802EB0112D2F832
:10052000BC214FEA1262DA71006814BF00F11001B9
:1005300000F10C01002020220B681A430A6010BD54
:1005400000F1240101204FF480220B681A430A6055
:1005500010BD00BFDCF80C40A40787D100F12401D6
:1005600001204FF400120B681A430A6010BD00000E
:100570002DE9F04F81B0044600684669D0F8049038
:100580008768D0F80CB0D0F810A0D0F81880F10728
:1005900004D1002530071DD424E000BFF90710D096
:1005A0000121BA07816009D4780700F1AF803807CC
:1005B00000F1B680204600F067FA02E0204600F025
:1005C00065FA0025F80500F18780F80300F1B18095
:1005D000300707D51BF0100004D0206845F40075E3
:1005E0001021C160700708D51BF0080005D02068F5
:1005F0000821C160204600F0F5F9B00706D5206853
:10060000C068800702D0204600F0EEF9700607D5DA
:100610001AF0100004D0206845F4806510210161B3
:10062000B00608D51AF0080005D02068082101613D
:10063000204600F023FAF00606D5206800698007FE
:1006400002D0204600F01CFAB00308D519F01000C3
:1006500005D0206810214160204600F013FAF00315
:1006600008D519F0080005D020680821416020460F
:1006700000F016FA300440F19B805FEA497040F1C7
:10068000948006F4807008EA102028435FEA88719D
:10069000014648BF41F00201B20558BF01465FEA7A
:1006A00048700D4648BF45F00405700558BF0D461B
:1006B000300540F17A8018F0700000F07680103834
:1006C000000905286CD8DFE800F003595D61656911
:1006D00045F0080564E000BF20684FF48071BA055A
:1006E00081600BD4780515D438051DD4204600F060
:1006F000CFF9F8037FF56CAF1BE000BF204600F098
:10070000C9F9F8037FF564AF13E000BF4FF400654B
:1007100058E700BF05F50055F8037FF559AF08E02D
:100720004FF480554EE700BF05F58045F8037FF58F
:100730004FAF20684FF48031BA0381600AD4780348
:1007400010D4380314D4204600F0A6F930073FF542
:1007500041AF47E7204600F0A1F930073FF53AAF37
:1007600040E700BF05F5004530073FF533AF39E7F7
:1007700005F5803530073FF52DAF33E745F010051F
:100780000EE000BF45F020050AE000BF45F040053F
:1007900006E000BF45F0800502E000BF45F480752B
:1007A0002068816921F07001816120680421416025
:1007B00055B1606A40EA05012046616201B0BDE8BA
:1007C000F04FFFF743BE00BF01B0BDE8F08F00005F
:1007D000B0B5C8B1044690F8200010B9204600F02A
:1007E00071F82068016841F00101016000F02EFC01
:1007F000054600BF20684168C90707D100F026FC04
:10080000401B0B28F6D312E00120B0BD016821F097
:100810000201016000F01AFC054600BF2068416833
:1008200089070DD500F012FC401B0B28F6D3606A37
:10083000052140F400306062012084F82010B0BD32
:10084000217E0268012922F0800208BF8032026006
:10085000617E0268012922F0400208BF4032026036
:10086000A17E0268012922F0200208BF2032026026
:10087000E17E0268012922F0100218BF10320260E6
:10088000217F0268012922F0080208BF08320260B5
:10089000617F0268012922F0040208BF043202606D
:1008A000D4E901C2D4E9033561691A432A431143EB
:1008B000ACF101021143C16100200121606284F8A2
:1008C0002010B0BD10B586B0006846F60002C4F234
:1008D000000200219042CDE90411CDE902110191FD
:1008E00034D046F20041C4F20001884277D140F290
:1008F0007431C2F200010A6843F64000C4F20200FB
:10090000531C0B6052B900210091016841F0007145
:100910000160016801F000710091009900210091CF
:1009200050F8101C142441F0080140F8101C50F835
:10093000100C032100F008000090009840F20040E5
:10094000C4F2020000F5006035E000BF43F640004D
:10095000C4F202000091016841F080610160016809
:1009600001F080610091009940F27431C2F20001FF
:100970000A68531C0B6052B900210091016841F0D4
:1009800000710160016801F000710091009900217F
:10099000009150F8101C402441F0020140F8101C56
:1009A00050F8100C602100F002000090009840F216
:1009B0000040C4F202000191022102910021039142
:1009C000032104910921059101A900F065FA20464F
:1009D0000521002200F00EFD204600F0F7FC06B0D5
:1009E00010BD00007047000070B5016846F60002B7
:1009F000C4F20002914223D046F20042C4F2000247
:100A0000914218BF70BD40F24C31C2F200010C1D82
:100A100001F12005002122462B46FFF719FD40F287
:100A20006406C2F2000620462946324603F0ECF87E
:100A300006F1280220462946BDE8704003F0E4B8DC
:100A400040F24C31C2F200010C1D01F120050021E1
:100A500022462B46FFF7FCFC40F2B802C2F200022D
:100A60002046294602F0DEFF40F25212C2F2000296
:100A700020462946BDE8704003F024B970470000C5
:100A8000704700007047000070470000704700008A
:100A9000704700007047000070470000704700007A
:100AA0007047000070B5866D044600F0CFFA94F8E8
:100AB0003510022928D105462068216C026822F0F1
:100AC00016020260426922F08002426109B9A16CFB
:100AD00019B1016821F008010160016821F00101EC
:100AE000016000BF20680068C00715D000F0AEFAB2
:100AF000401B0628F6D320206065032084F83500CB
:100B0000002184F8341070BD802060650120002130
:100B100084F8341070BD00BFE06D3F2101FA00F091
:100B2000B060012084F835000020002184F83410E2
:100B300070BD000090F83510022909D1052180F818
:100B400035100068016821F0010101600020704744
:100B50008021416501207047F0B581B00446002036
:100B6000009040F2B400C2F200000268D4E91660BE
:100B700048F2B51337680821C1F64E338140394237
:100B8000A2FB03250CD0226813685B0708D5136805
:100B900023F004031360B160616D41F001016165F0
:100BA00001218140394208D022685269120604D5D9
:100BB000B160616D41F002016165042181403942FB
:100BC00008D022681268920704D5B160616D41F0C7
:100BD0000401616510218140394217D02068026804
:100BE000120713D5B16002680168520308D4C90521
:100BF00008D4016821F008010160216C21B905E0E9
:100C000008033FD4216C09B120468847E16D2020BC
:100C100000FA01F23A4241D020680368DB063DD574
:100C2000B26094F835300268052B1BD122F0160211
:100C30000260426922F080024261226C0AB9A26C11
:100C40001AB1026822F0080202603F208840B060BA
:100C5000012084F83500216D0020002984F834003B
:100C600052D157E00168520310D4C90512D401686B
:100C700021F010010160012084F83500002084F883
:100C8000340007E0A16C0029BED1BFE7080301D4FE
:100C9000616C00E0E16B09B120468847606DC8B324
:100CA000606DC0072ED0052084F835002068A90AA1
:100CB000026822F001020260009A01328A42009228
:100CC0001AD80268D20717D0009A01328A420092DD
:100CD00012D80268D2070FD0009A01328A420092DD
:100CE0000AD80268D20707D0009A01328A420092DD
:100CF00002D80268D207DFD1012084F83500002035
:100D000084F83400E16C29B1204601B0BDE8F04020
:100D1000084700BF01B0F0BD2DE9F041044600F0E6
:100D200095F9ECB10546022084F8350000202168D1
:100D300084F83400086820F0010008602168086821
:100D4000C00711D000F082F9401B0528F6D9032511
:100D500020230320636584F83550BDE8F08100BF8F
:100D60000120BDE8F08100BF086848F23F02CFF2E1
:100D70001002D4E9013500EA020C04F10C0898E8ED
:100D8000C10143EA0C032B431843D4E9072E304337
:100D900038431043626A40EA0E00042A40EA08031E
:100DA0001CD1206BD4E90A2E40EA0E0018430860DB
:100DB0004869BEF1000F20F0030040EA020040F055
:100DC000040C11D0B8F5005F36D0B8F1000F45D152
:100DD000022A46D0012A3BD032B942E00B60486972
:100DE00020F0070040EA020C01F0F8004AF6AB22BE
:100DF0001038CAF6AA22A0FB02231A0944F6E433EB
:100E0000C0F600039A5C40F2FF335F284FF03F00CA
:100E1000C1F814C021EA030100FA02F088BF0431CE
:100E2000C4E916128860002301250020636584F858
:100E30003550BDE8F08100BF032AD5D801254023F5
:100E40000120DFE802F0030E030500BF82E700BFC8
:100E5000AEF1C070B0FA80F0400904E0032A04D378
:100E6000C2D1CEF300600028BED00125402301206E
:100E7000636584F83550BDE8F081000070470000DC
:100E800043F61441C4F201010A68024214BF08602B
:100E90007047FFF7F3BF00002DE9F04F82B000F17B
:100EA0003E4241F6004502F1FF77C4F202050822F6
:100EB00043F6004E4FEAB726A84208BF0722C4F205
:100EC000010E072E38BF4FEAB72201250026002762
:100ED0004FF00008009208E008F101080437B8F16B
:100EE000100F06F1020600F0A7800C6805FA08F959
:100EF00014EA090FF0D0D1F804B003220BF0030C70
:100F0000ACF10104B240012C6FEA020A10D88268E9
:100F1000CC6802EA0A02B440224382604268CBF302
:100F2000001422EA090204FA08F42243426005E0B0
:100F3000BCF1030F02D14FF0030C20E0C2688C68B3
:100F400002EA0A02B4402243BCF1020FC26016D189
:100F50006FF0030202EA58020244D2F820C007F000
:100F60001C050F230C69AB402CEA030304FA05F5BA
:100F70002B431362D1F804B001250BF0030C026877
:100F80000CFA06F302EA0A021A431BF4403F02601D
:100F9000A2D0002243F644030192C4F202031A686D
:100FA0004FF6084C42F480421A601A68CFF6FF7C74
:100FB00002F480420192019A28F00302724452F82E
:100FC0000C3007F00C050F24AC40A343009C04FA3E
:100FD00005F52B4342F80C30DEF808204B6842EA56
:100FE000090543F60C4CDC0258BF22EA0905CEF88D
:100FF0000850C4F2010CDCF800209C0242EA09050A
:1010000058BF22EA0905CCF80050DEF804209C0302
:1010100042EA090558BF22EA0905CEF80450DEF875
:101020000020DB0342EA090558BF22EA0905CEF891
:101030000050012550E700BF02B0BDE8F08F00006E
:10104000002A08BF090481617047000044F288400B
:10105000C2F200000068704770B5B8B3044690F85B
:101060003D0028B9002084F83C00204600F0B0F88C
:10107000242084F83D002068016821F0010101600E
:10108000016841F400410160016821F40041016000
:1010900000F0BCFA48F28041C0F21E0140F6001395
:1010A000D4F804E088424FF00001C0F23D0348F25A
:1010B000A16C4FF0000238BF01219842C0F2010C30
:1010C00038BF0122E64538BF0A460AB1012070BD8B
:1010D0004DF68361C4F21B31A0FB01122168950C0F
:1010E0004B684FF4967623F03F0343EA92437543EF
:1010F00044F6D3564B60C1F262060B6AA5FB065656
:10110000B50923F03F03E64538BF950C6A1C1A4326
:101110000A62CA6948F2A0664CF6FF73C0F2010683
:10112000B64522EA03020BD801384FEA4E03B0FB62
:10113000F3F001306FF31F30042898BF04201EE045
:10114000A368013863B119230EFB03F3B0FBF3F07E
:1011500001306FF31F3078B100F5804008E000BF28
:101160000EEB4E03B0FBF3F001306FF31F3028B1EC
:1011700000F5004003E000BF012000E00120104323
:10118000C8610868D4E9072320F0C0001043184361
:101190000860886848F2FF3204F10C0690434CCE98
:1011A00018431043A5698860C86820F0FF003043E9
:1011B0002843C860086840F0010008600020202132
:1011C000206484F83D10206384F83E0070BD000068
:1011D0002DE9F04786B0006845F60047C4F20007E5
:1011E000B84203D006B0BDE8F08700BF002643F642
:1011F00030050196C4F20205286801AC40F00400F5
:10120000286028684FF0120800F00400019001984F
:10121000019628684FF0030940F001002860286813
:101220004FF0040A00F00100019001984FF40070A3
:10123000019007F5D6302146CDE90286CDF8109011
:10124000CDF814A0FFF728FE4FF48070CDE9010817
:1012500003A880E8400607F5D2302146FFF71CFEC0
:101260000096286940F400002861286900F4000015
:101270000090009806B0BDE8F087000040F2000042
:1012800044F28841C2F20000C2F2000100780A680C
:10129000104408607047000080B543F60040C4F277
:1012A0000200016841F400710160016841F480614D
:1012B0000160016841F480710160032000F0C6F80C
:1012C0000F2000F005F800F05FF8002080BD00005E
:1012D00070B586B0002543F640010195C4F20201C5
:1012E0000A68044642F001020A60096801A801F098
:1012F000010101910199694600F068F9049E002EF0
:1013000018BF012600F082F94DF68361B040C4F2A7
:101310001B31A0FB01014FF0FF3000EB914140F287
:10132000E860C2F200004FF0804240F2E733C0E9CB
:101330000021C0E902530561856100F0B1FC05465A
:1013400010B1284606B070BD40F2E860C2F200005D
:1013500000F004FD05460028F3D11C2000F036F80B
:101360000F2C0DD81C2021460022002500F042F849
:1013700040F20400C2F200000460284606B070BDCE
:101380000125284606B070BD82B0002043F640011A
:101390000190C4F202014A6842F480424A604A68FD
:1013A00002F480420192019A00900868002240F005
:1013B0008050086008680F2100F08050009000986D
:1013C0006FF0010002B000F015B80000002848BF1F
:1013D0007047C1B200F01F00012202FA00F04EF285
:1013E0000012CEF2000242EAD10121F003010860AE
:1013F0007047000010B54EF60C5CCEF2000CDCF825
:101400000030C3F3022E8EF00704042C28BF0424FE
:10141000BEF103034FF0FF3E0EFA04F438BF002381
:10142000A14399400EFA03F39A43114300F00F02CF
:1014300000F160430901043A03F564436244002863
:1014400048BF02F10C03197010BD00004EF60C519C
:10145000CEF200010A684FF6FF031A4060F30A2239
:1014600042F0806040F0FD70086070472DE9F04167
:10147000002800F08B8043F60808C4F202080446F6
:10148000D8F8F8030D4600F00700884207D288F824
:10149000F853D8F8F80300F00700A84276D1206886
:1014A000810717D5410705D5D8F8001041F4E05160
:1014B000C8F80010010705D5D8F8001041F46041C4
:1014C000C8F80010D8F80010A26821F0F00111430C
:1014D000C8F80010C0073FD1D8F8F80300F00700A3
:1014E000A84207D988F8F853D8F8F80300F00700A5
:1014F000A8424BD12068410707D5D8F80010E26810
:1015000021F4E0511143C8F80010000708D5D8F8BD
:101510000000216920F4604040EAC100C8F80000E2
:1015200000F09CF8D8F8001044F6CC32C1F3031157
:10153000C0F60002515C40F2B40220FA01F140F220
:101540000400C2F200000068C2F200021160FFF75E
:10155000BFFE0020BDE8F0816068811E022907D22D
:1015600058F8081C89015CBF0120BDE8F08111E03A
:10157000012807D158F8081C89035CBF0120BDE889
:10158000F08107E058F8081C890703D40120BDE862
:10159000F08100BFD8F8001021F003010843C8F81B
:1015A0000000FFF753FD064641F28837D8F80000E7
:1015B000616800F00C00B0EB810F8DD0FFF746FDA5
:1015C000801BB842F2D90320BDE8F0810F220260EF
:1015D00043F60802C4F20202136803F003034360F7
:1015E000136803F0F0038360136803F4E053C360EF
:1015F000D2F800C04FF4E05303EADC030361D2F8F1
:10160000F80300F0070008607047000040F2B400E3
:1016100043F60801C2F20000C4F202010068096842
:1016200044F6DC32C1F38221C0F60002515CC840AE
:101630007047000040F2B40043F60801C2F2000017
:10164000C4F202010068096844F6DC32C1F3423199
:10165000C0F60002515CC8407047000010B543F668
:101660000404C4F20204606800F00C0008280BD0E7
:10167000042819BF42F20040C0F2F40041F60030E5
:10168000C0F2B70010BD00BF20682168236849027E
:1016900041F60031C0F2B70100F03F02C3F38810F9
:1016A0005CBF42F20041C0F2F401A1FB0001002343
:1016B000FEF7DAFD21680222C1F3014102EB41018C
:1016C000B0FBF1F010BD00002DE9F04182B0002820
:1016D00068D00446007843F60006C007C4F202064C
:1016E0000BD0B06800F00C00042840F09F803068F8
:1016F000800302D56068002854D0207880071AD56E
:10170000B06810F00C0F09D0B06800F00C00082889
:1017100040F0A6807068400200F1A2803068800727
:1017200002D5E06801283DD13068216920F0F80039
:1017300040EAC10030602078000737D420784007A5
:101740004CD4A56955B3B06800F00C00082840F0EF
:10175000BB80012D26D07068E16900F480028A42C6
:1017600020D1216A00F03F028A421BD147F6C071A6
:10177000626A0140B1EB821F14D1A16A4FF6FF7378
:10178000C903994300F44032A1F580318A4209D15E
:10179000E16A00F07060B0EB016F03D1002002B08D
:1017A000BDE8F081012002B0BDE8F0816069002849
:1017B00040F20000C4F2472076D00121C0F8801E1C
:1017C000FFF744FC054600BF706F8007B6D4FFF7F3
:1017D0003DFC401B0228F7D9DDE000BF306C10F063
:1017E00080580AD100200190306C40F08050306465
:1017F000306C00F080500190019847F20007C4F26D
:1018000000073868C00541D4386840F480703860FB
:10181000FFF71CFC054600BF3868C00536D4FFF74B
:1018200015FC401B0228F7D9B5E000BFB06800F0F6
:101830000C00082803D1706840023FF558AF60687B
:10184000B0F5803F07D0B0F5A02F40F08D80306814
:1018500040F480203060306840F4803030608DE0AB
:10186000E068002852D00020C4F247200121016026
:10187000FFF7ECFB054600BF306880073FF554AF2B
:10188000FFF7E4FB401B0228F6D984E0A06801289A
:1018900005D005284ED1306F40F004003067306F1E
:1018A00040F0010030674FE00021C0F8801EFFF7D4
:1018B000CDFB0546706F80077FF540AFFFF7C6FB95
:1018C000401B0228F6D966E00027C4F24727002013
:1018D0003866FFF7BBFB022D05460BD1306880014F
:1018E0005ED5FFF7B3FB401B02284FF00300F5D98C
:1018F00055E700BF306880017FF550AFFFF7A6FBCA
:10190000401B02284FF00300F4D948E70020C4F23E
:10191000472000210160FFF799FB054630688007EA
:101920007FF509AFFFF792FB401B02284FF0030041
:10193000F4D934E7316F002821F001013167316FAC
:1019400021F0040131674DD0FFF780FB054641F2DD
:10195000883700BF306F800756D4FFF777FB401BF6
:10196000B842F7D917E000BF3168002821F4803170
:101970003160316821F4802131604FD0FFF766FB80
:10198000054600BF306880033FF5B7AEFFF75EFB4A
:10199000401B6428F6D9032002B0BDE8F08100BFE7
:1019A00004F11C052FCD084340EA8210D9034FF6FD
:1019B000FF729143A1F5803140EA056008437060F1
:1019C00001203866FFF742FB044600BF3068800103
:1019D0003FF5E4AEFFF73AFB001B02284FF003008F
:1019E000F4D9DCE6FFF732FB054641F2883700BF49
:1019F000306F800708D5FFF729FB401BB8424FF036
:101A00000300F5D9CBE600BFB8F1000F7FF499AE23
:101A1000306C20F08050306493E600BFFFF716FB77
:101A2000054600BF306880037FF567AEFFF70EFB09
:101A3000401B64284FF00300F4D9B0E670B538B10C
:101A40000446406A30B10020206104F1140007E030
:101A5000012070BD6068B0F5827F03D004F11C00E6
:101A6000002101600026A66294F8510020B92046AA
:101A700084F8506000F03CF8022084F8510094E8AB
:101A80000F0001F48271056802F4044225F040055C
:101A90000560114403F400622369114403F002025B
:101AA0006369114403F00102A369E569114403F479
:101AB0000072114405F03802256A114405F08002D5
:101AC000A56A114305F4005211430160626A0421C2
:101AD00001EA134102F0100211444160C16921F48E
:101AE0000061C1610120666584F85100304670BD17
:101AF0002DE9F04385B0006843F20005C4F201050A
:101B0000A84203D005B0BDE8F08300BF002643F62D
:101B100030000096C4F2020041696C4641F48051E5
:101B2000416141694FF0020801F480510091009930
:101B3000009601684FF0030941F00201016001685D
:101B4000052701F00201009100990096016841F01B
:101B5000010101600068214600F00100009000983A
:101B60001820009005F55440CDE90186CDF80C9081
:101B70000497FFF791F98020CDE9000805F5504062
:101B80002146CDE902690497FFF786F905B0BDE863
:101B9000F08300007047000070470000B0B590F877
:101BA0003C20012A04BF0220B0BD01F108053CCD54
:101BB000D1E900CE23F47C5322F470521A432EF460
:101BC000F0431A432CF4E0431A4324F4C0431A436D
:101BD0002A43C96922F480420368114359640021F1
:101BE00080F83C100846B0BD10B590F83C20012AA2
:101BF0004FF0020251D080F83D200268D2F804E094
:101C0000D2F808C00C682EF07003234341F2FF7431
:101C1000C4F20004A24253600EDC40F2FF73C4F22F
:101C200000039A4216DCB2F1804F2BD040F2004301
:101C3000C4F2000324E000BF40F2FF33C4F201030A
:101C40009A4213DC41F60003C4F200039A4219D011
:101C5000002313E040F60003C4F200039A4211D0BF
:101C600040F60043C4F200030AE000BF44F2000360
:101C7000C4F201039A4205D040F20043C4F20103CA
:101C80009A4204D149682CF08003194391600121E4
:101C9000002280F83D1080F83C20104610BD000066
:101CA000002804BF0120704710B5044690F83D009D
:101CB00028B9002084F83C00204600F01FF80220DC
:101CC00084F83D002068211D01F008FD012084F802
:101CD000460084F83E0084F83F0084F8400084F811
:101CE000410084F8420084F8430084F8440084F8FA
:101CF000450084F83D00002010BD000082B000685F
:101D000044F20041C4F20101884215D00021C4F21E
:101D1000010188421FD10020019043F64400C4F223
:101D20000200016841F001010160006800F001005B
:101D30000190019802B070470020009043F64400E3
:101D4000C4F20200016841F400310160006800F44F
:101D500000300090009802B07047000090F83D10ED
:101D600001291CBF01207047022180F83D10006846
:101D700041F2FF72C168C4F20002904241F00101D9
:101D8000C1600DDC40F2FF71C4F20001884215DC35
:101D9000B0F1804F2AD040F20041C4F2000123E0AC
:101DA00040F2FF31C4F20101884213DC41F6000128
:101DB000C4F20001884219D0002113E040F600016E
:101DC000C4F20001884211D040F60041C4F2000183
:101DD0000AE000BF44F20001C4F20101884205D0CC
:101DE00040F20041C4F20101884206D1816801F04D
:101DF0000701062904BF00207047016841F0010176
:101E0000016000207047000080B590F83C20012A56
:101E10004FF0020200F0C28080F83D20D0F800C0F0
:101E20004FF67772DCF8083023EA0202CCF808207B
:101E30000B684F2B28DC1F2B44DD202B45D0302B8B
:101E400043D0402B40F0AC80D1F804E0C968DCF806
:101E50002030DCF8202022F00102CCF82020DCF831
:101E6000182022F0F00242EA011123F00A0242EAAD
:101E70000E02CCF81810CCF82020DCF8081041F045
:101E8000470121F0300180E06F2B27DDB3F5005FC3
:101E900048D0B3F5805F7AD0702B40F08180D1E9D3
:101EA00001E3C968DCF8082043EA0E0322F47F420C
:101EB00043EA01211143CCF80810DCF8081041F086
:101EC000770162E00BB1102B6AD1DCF8081021F029
:101ED0007001194341F0070157E000BF502B35D086
:101EE000602B5DD1D1F804E0C968DCF8203023F024
:101EF0001003CCF82030DCF81830DCF8202023F474
:101F0000704322F0A00243EA013142EA0E12CCF8FB
:101F10001810CCF82020DCF8081041F0670121F0FF
:101F2000100132E0D1E901E3C968DCF8082043EA96
:101F30000E0322F47F4243EA01211143CCF808103A
:101F4000DCF8081041F480411FE000BFD1F804E044
:101F5000C968DCF82030DCF8202022F00102CCF83F
:101F60002020DCF8182022F0F00242EA011123F0D0
:101F70000A0242EA0E02CCF81810CCF82020DCF855
:101F8000081041F0570121F02001CCF80810002280
:101F9000012180F83D10002180F83C10104680BDE2
:101FA0000122F5E77047000010B501680446086992
:101FB000800744BFC8685FEA807039D40869400769
:101FC00044BFC8685FEA40703ED40869000744BF58
:101FD000C8685FEA007045D40869C00644BFC86895
:101FE0005FEAC0604AD40869C0071CBFC8685FEADE
:101FF000C07051D10869000644BFC8685FEA00603C
:1020000052D40869400644BFC8685FEA406053D4B0
:102010000869800646BFC8685FEA806010BD6FF03F
:10202000200220460A61BDE81040FFF7B5BD00BFA1
:102030006FF002000861012020778869800743D093
:102040002046FFF7AFFF45E06FF004000861022073
:102050002077886910F4407F40D02046FFF7A2FF28
:1020600042E000BF6FF00800086104202077C869D3
:1020700080073DD02046FFF795FF3FE06FF010004E
:10208000086108202077C86910F4407F3AD02046C4
:10209000FFF788FF3CE000BF6FF0010008612046B9
:1020A00000F080F92168A5E76FF080000861204604
:1020B000FFF770FD2168A4E76FF04000086120463B
:1020C00000F078F92168A3E7204600F025F82046C3
:1020D00000F066F92168002020776FE7204600F0C5
:1020E0001BF8204600F05CF92168002020776CE79F
:1020F000204600F011F8204600F052F92168002037
:10210000207769E7204600F007F8204600F048F9FC
:1021100021680020207766E7704700002DE9F04332
:1021200090F83C30012B04BF0220BDE8F0834FEA59
:10213000B202032A00F2FC80DFE802F0023E7EBE1B
:10214000036840F200471A6A43F4806522F00102F6
:102150001A621C6A1A46D3F804E052F818CF8E6847
:1021600024F00204C4F20107BD4244EA060405D18A
:10217000CE6824F00C0426F0040634430E68BD42F9
:1021800007D1D1E905572EF4407E45EA0E0545EA10
:10219000070E2CF073073743C3F804E09F614F68C4
:1021A00009695F631C629F6947F008079F619F6927
:1021B00027F004079F61B1E0036840F200481A6A03
:1021C00043F4806522F010021A621C6A1A46D3F8A2
:1021D00004C052F818EF8F6824F02004C4F20108FC
:1021E000454544EA071407D1CF686FF0400624F054
:1021F000C00406EA07163443D1F80090454506D1DD
:10220000D1E905562CF440672E4347EA860C2EF49C
:10221000E64747EA0927C3F804C09F614F68096988
:102220009F631C629F6947F400679F619F6927F461
:1022300080679F6171E000BF036840F200481A6A3E
:1022400043F4806522F480721A621C6A1A46D3F83D
:1022500004C052F81CEF8F6824F40074C4F2010823
:10226000454544EA072408D1CF6840F2FF463F02C3
:1022700024F4406427EA06063443D1F8009045452B
:1022800006D1D1E905562CF440572E4347EA061CE7
:102290002EF0730747EA0907C3F804C0DF614F68EF
:1022A0000969DF631C62DF6947F00807DF61DF69E6
:1022B00027F00407DF6131E0036840F200451A6A45
:1022C00043F4806722F480521A621A46D3F820C081
:1022D0005C6852F81CEFD1F800808E68C4F20105EA
:1022E000AF4204D14D6924F4804444EA85142CF4AF
:1022F000005747EA06372EF4E64646EA08265C60B1
:10230000DE614E6809691E641F62DF6947F4006779
:10231000DF61DF6927F48067DF6109021368194311
:1023200011600021002280F83C200846BDE8F083BF
:102330000121002280F83C200846BDE8F08300001F
:10234000002804BF0120704710B5044690F83D00F6
:1023500028B9002084F83C00204600F01FF8022035
:1023600084F83D002068211D01F0B8F9012084F8AF
:10237000460084F83E0084F83F0084F8400084F86A
:10238000410084F8420084F8430084F8440084F853
:10239000450084F83D00002010BD0000704700009B
:1023A000704700000068B0F1804F18BF7047FEF71B
:1023B00065BF000070470000016844F60002C4F2E7
:1023C0000002914218BF704700F0E4BF7047000060
:1023D000B0B582B0044600680168C368426901F084
:1023E0002F05202D03F0200506D12DB1204602B087
:1023F000BDE8B04001F016BA5FEA017C1EBF02F0F2
:10240000010E03F4907212EB0E0253D1226B012ADB
:1024100005D111F0100218BF13F0100236D10A06D0
:1024200022D513F080021FD094F83D1021293FD10E
:10243000A168B1F5805F03D12169002900F07282A3
:10244000216A4A1C226209784160E18C01390A0440
:10245000E1842DD1C16821F08001C160C16841F0E3
:102460004001C16002B0B0BD490621D513F0400162
:102470001ED0C16821F04001C1602021204684F8AF
:102480003D1002B0BDE8B04000F0F0BB002101916A
:10249000016801914168019101994069400613D496
:1024A000A08DE18DE28D002A18BF884240F0BE81E8
:1024B00002B0B0BDCA0718BF13F4807240F0BA80F2
:1024C0004A0700F1BD80C2E0A16B0868426893B280
:1024D000002BEDD0A08D8342EAD2E285C969B1F527
:1024E000807F00F09D80206850E8030F216820F471
:1024F000807041E80302DAB1206850E8030F2168D8
:1025000020F4807041E8030292B1206850E8030F84
:10251000216820F4807041E803024AB1206850E845
:10252000030F216820F4807041E80302002ADAD109
:10253000206850E8050F216820F0010041E80502FD
:10254000DAB1206850E8050F216820F0010041E869
:10255000050292B1206850E8050F216820F00100C3
:1025600041E805024AB1206850E8050F216820F0D3
:10257000010041E80502002ADAD1206850E8050F81
:10258000216820F0400041E80502DAB1206850E8F7
:10259000050F216820F0400041E8050292B1206853
:1025A00050E8050F216820F0400041E805024AB1DB
:1025B000206850E8050F216820F0400041E805023E
:1025C000002ADAD1202084F83E0000202063206811
:1025D00050E8030F216820F0100041E80302DAB14F
:1025E000206850E8030F216820F0100041E8030242
:1025F00092B1206850E8030F216820F0100041E8F4
:1026000003024AB1206850E8030F216820F010004F
:1026100041E80302002ADAD1A06BFEF743FAA08D4D
:10262000E18D401A81B2204602B0BDE8B040FFF70C
:10263000C3BE00BF226C42F0010222644A0706D5E5
:10264000BEF1000F03D0226C42F0020222648A071E
:1026500006D5BEF1000F03D0226C42F004022264C2
:10266000BCF1000F09D545EA0E02B2FA82F2520916
:1026700003D1226C42F008022264226C002A3FF44B
:1026800017AF11F0200118BF002D03D0204601F034
:10269000C9F820684069216C00F0400001F0080191
:1026A000401800F0B58000BF206850E8030F216893
:1026B00020F4907041E80302BAB3206850E8030F99
:1026C000216820F4907041E8030272B3206850E85A
:1026D000030F216820F4907041E803022AB32068B8
:1026E00050E8030F216820F4907041E80302002AAB
:1026F000DAD11AE0206850E8050F216820F00100C7
:1027000041E80502DAB1206850E8050F216820F0A1
:10271000010041E8050292B1206850E8050F2168E8
:1027200020F0010041E805024AB1206850E8050F99
:10273000216820F0010041E80502002ADAD1206B6F
:10274000012824D1206850E8030F216820F01000F0
:1027500041E80302DAB1206850E8030F216820F055
:10276000100041E8030292B1206850E8030F21688D
:1027700020F0100041E803024AB1206850E8030F3E
:10278000216820F0100041E80302002ADAD120205D
:1027900084F83E00002020632068406940063FD551
:1027A000206850E8050F216820F0400041E805024C
:1027B000DAB1206850E8050F216820F0400041E8B8
:1027C000050292B1206850E8050F216820F0400012
:1027D00041E805024AB1206850E8050F216820F061
:1027E000400041E80502002ADAD1A06BC0B143F6EF
:1027F0001901C0F600010165FEF79CF900283FF4BD
:1028000057AEA06B016D02B0BDE8B040084700BFF5
:102810002046FFF7DBFD0020206402B0B0BD00BF02
:10282000204602B0BDE8B040FFF7D0BD401A216895
:1028300051E8031F226821F4907142E80313DBB1D1
:10284000216851E8031F226821F4907142E80313C4
:1028500093B1216851E8031F226821F4907142E886
:1028600003134BB1216851E8031F226821F49071D2
:1028700042E80313002BDAD1216851E8051F2268D2
:1028800021F0010142E80513DBB1216851E8051F81
:10289000226821F0010142E8051393B1216851E853
:1028A000051F226821F0010142E805134BB12168A0
:1028B00051E8051F226821F0010142E80513002BB1
:1028C000DAD1202184F83E1000212163216851E8EB
:1028D000031F226821F0100142E80313002B3FF48C
:1028E000A1AE216851E8031F226821F0100142E8DF
:1028F0000313002B3FF496AE216851E8031F2268B2
:1029000021F0100142E80313002B3FF48BAE216845
:1029100051E8031F226821F0100142E80313002B45
:10292000D4D17FE6216A31F8022B6FF35F22426037
:1029300021628AE5002804BF0120704710B50446D3
:1029400090F83D0028B9002084F83C00204600F0B3
:1029500021F8242084F83D002068C16821F400514A
:10296000C160204600F0DEFF2068016921F490413B
:102970000161416921F02A014161C16841F40051BE
:10298000C16000202021206484F83D1084F83E10AE
:1029900010BD00002DE9F04F87B00446006844F6F2
:1029A0000001C4F2000100268842CDE90566CDE9A8
:1029B0000366029600F0948041F20041C4F20101E6
:1029C000884200F0E58041F20001C4F20101884232
:1029D00040F04781002743F630000197C4F202001F
:1029E0004169002541F0100141614169C4F20205CD
:1029F00001F01001019101990197016802AE41F0C7
:102A000002010160016846F2280801F0020101910B
:102A10000199019701684FF0020941F0010101603D
:102A200000684FF0030A00F0010001900198802037
:102A300002904FF0070B05F580603146C4F20208A2
:102A4000CDE90397CDF814A0CDF818B0FEF724FA1D
:102A50004FF40070CDE9020904A880E8800C2846F4
:102A60003146FEF719FA40F2CC3508F58360C2F220
:102A700000054FF000664FF4806A4FF4807985E8D6
:102A8000C1002846C5E9037AC5E90577C5E9079776
:102A90006F62FEF741F9002818BFFDF7D1FCA5636E
:102AA000AC6340F22C4508F59260C2F2000540216B
:102AB000C5E9000605F1080080E882042846C5E95A
:102AC0000577C5E907976F62FEF726F9002818BF5A
:102AD000FDF7B6FC6563AC6307B0BDE8F08F00BFDF
:102AE00043F630000196C4F20200016941F48021EE
:102AF0000161016901F48021019101990196016848
:102B000041F004010160006802A900F00400019096
:102B100001984FF4406002900220CDE903060320A3
:102B20000590072006900020C4F2020000F5006026
:102B3000FEF7B2F940F28C4546F22800C2F20005D9
:102B4000C4F202004FF0006185E843004FF400300A
:102B50004FF480624FF48073C5E908062846C5E942
:102B60000362C5E90566EB61FEF7D6F8002818BFD9
:102B7000FDF766FC272005210022A563AC63FEF764
:102B800039FC2720FEF722FC07B0BDE8F08F00BF1C
:102B9000002643F630000196C4F20200416946F275
:102BA000280841F0200141614169C4F2020801F0A6
:102BB0002001019101990196016841F040010160F5
:102BC000006802A900F04000019001984FF4844091
:102BD00002900220CDE9030603200590082006900C
:102BE0000020C4F2020000F5C050FEF755F940F293
:102BF000EC4508F58060C2F200054FF020674FF405
:102C0000806A4FF48079C5E900072846C5E9026665
:102C1000C5E904A6C5E90669C5E90866FEF77CF8BA
:102C2000002818BFFDF70CFCA563AC6340F24C55BF
:102C300008F58F60C2F200054021C5E9000705F1E3
:102C4000080080E842042846C5E90566C5E90796FC
:102C50006E62FEF761F8002818BFFDF7F1FB6563AF
:102C6000AC6307B0BDE8F08F70470000704700000C
:102C7000FEE7000010B540F27C3046F20041C2F29F
:102C80000000C4F2000140F2001403220023C0F24D
:102C9000010480E80E0000F10C014FF4102C4FF4F9
:102CA000001E81E8085084618383FDF791FD0028B0
:102CB00008BF10BDBDE81040FDF7C2BB10B540F223
:102CC000A43046F60001C2F20000C4F2000140F256
:102CD000001403220023C0F2010480E80E0000F17A
:102CE0000C014FF4102C4FF4001E81E80850846151
:102CF0008383FDF76DFD002808BF10BDBDE81040BF
:102D0000FDF79EBB80B582B0002043F630010190F4
:102D1000C4F202010A6842F400120A600A6802F46E
:102D200000120192019A00900868002240F480008D
:102D300008600868052100F48000009000980C20CD
:102D4000FEF758FB0C20FEF741FB3920052100223D
:102D5000FEF750FB3920FEF739FB3A20052100220F
:102D6000FEF748FB3A20FEF731FB45200521002203
:102D7000FEF740FB4520FEF729FB462005210022F7
:102D8000FEF738FB462002B0BDE88040FEF71EBBD0
:102D900080B588B00B4802AF01900AA000F1040E84
:102DA0009EE80E50806987E80E50079001A8002128
:102DB00000F0DEFF40F27831C2F20001086008B096
:102DC00080BD00BFEC4B0008D535000800000000B6
:102DD0000000000080000000000000000000000073
:102DE0002DE9F04786B0002443F6300005940094A6
:102DF000C4F20200016840F6000841F002010160DF
:102E00000168C4F2020801F00201009100990094E7
:102E10000168002241F04001016001684FF48077B1
:102E200001F04001009100990094016841F0010116
:102E30000160016801F001010091009900940168AE
:102E400041F008010160016801F00801009100995A
:102E50000094016841F004010160016801F004017F
:102E6000009100990094016841F0800101600168BF
:102E700001F08001009100990094016841F0200167
:102E80000160016801F0200100910099009401683F
:102E900041F01001016000684FF4807100F01000F3
:102EA000009000984046FEF7CBF8A8F50066304643
:102EB000102100224FF0100AFEF7C2F8A8F5806535
:102EC0002846012100224FF00109FEF7B9F8CDE9AB
:102ED000017901AF40463946CDE90344FDF7DCFFF7
:102EE00030463946CDE901A9CDE90344FDF7D4FFC9
:102EF000302001904FF48810CDE902044046394655
:102F0000FDF7CAFF28463946CDE90199CDE90344CA
:102F1000FDF7C2FF0A2005210022FEF76BFA0A2006
:102F2000FEF754FA172005210022FEF763FA172056
:102F3000FEF74CFA06B0BDE8F087000080B540F21D
:102F4000AC5045F60041C2F20000C4F2000148F264
:102F5000A06200234FF4804CC0F2010280E80E0012
:102F6000C0E9033CC0E90533C0E90733FEF774F854
:102F7000002808BF80BDBDE88040FDF761BA0000B1
:102F800010B540F2006043F20001C2F20000C4F24A
:102F900001014FF4827200234FF0010C4FF4007EC8
:102FA000102480E80E000A21C0E90333C0E905CEF1
:102FB000C461C0E90833C0E90A31FEF73FFD0028CB
:102FC00008BF10BDBDE81040FDF73ABAB0B58CB0EF
:102FD00044F2004540F2A060C4F201050021C2F2B3
:102FE000000041F28732CDE90511CDE90311C0E9B6
:102FF0000051C0E9021201618161FEF751FE002813
:1030000018BFFDF71DFA40F2A060C2F20000FFF702
:1030100097F9002818BFFDF713FA602040F2A0646A
:1030200000900020C2F20004CDE90100049069463E
:1030300020460022FFF772F8002818BFFDF700FABB
:103040002068A8421AD00021C4F20101884232D17E
:103050000020079043F63000C4F2020001684FF4EC
:10306000285241F0100101600068012100F01000B9
:103070000790079805F54C4013E000BF002007902B
:1030800043F63000C4F202000168402241F0200102
:1030900001600068032100F020000790079805F503
:1030A000504007920222089200220B9107A9CDE915
:1030B0000922FDF7F1FE0CB0B0BD0000B0B59CB028
:1030C000002540F25860C4F201050021C2F2000060
:1030D000532244F61F631691CDE914111191CDE9E5
:1030E0000F11CDE90D11CDE90B11CDE90911CDE994
:1030F0000711CDE90511CDE90311CDE90111C0E9B1
:103100000052C0E90213C0E904118161FEF7C8FD55
:10311000002818BFFDF794F94FF48050139040F247
:103120005860C2F2000013A9FEF76EFE002818BF17
:10313000FDF786F940F25860C2F20000FFF700F98F
:10314000002818BFFDF77CF940F258600024C2F255
:10315000000010A9CDE91044FEF746FD002818BF75
:10316000FDF76EF96020CDE9090440F25860C2F223
:10317000000009A90022CDE90B44CDE90D440F94CC
:10318000FEF7CCFF002818BFFDF75AF940F258604F
:10319000C2F2000009A90422FEF7C0FF002818BFF0
:1031A000FDF74EF940F25860C2F2000009A908226A
:1031B000FEF7B4FF002818BFFDF742F940F258644B
:1031C00000204FF40051C2F200040590CDE9030045
:1031D000CDE901000691089001A92046FEF7DEFC2A
:1031E000002818BFFDF72CF9206844F20041C4F212
:1031F0000101884216D0A84231D10020179043F631
:103200003000C4F2020001684FF4285241F010016E
:1032100001600068012100F010001790179805F573
:10322000883012E00020179043F63000C4F202000C
:103230000168402241F0200101600068032100F094
:1032400020001790179805F58A30179202221892DD
:1032500000221B9117A9CDE91922FDF71DFE1CB014
:10326000B0BD000080B540F2307041F20001C2F202
:103270000000C4F2010100234FF00C0C4FF4E132C6
:1032800080E80E00C0E90333C0E905C3C361FFF75E
:1032900051FB002808BF80BDBDE88040FDF7D0B8D5
:1032A00080B540F2747044F60001C2F20000C4F22E
:1032B000000148F2A06200234FF00C0CC0F20102A2
:1032C00080E80E00C0E90333C0E905C3C361FFF71E
:1032D00031FB002808BF80BDBDE88040FDF7B0B8D5
:1032E00080B540F2B87041F20041C2F20000C4F271
:1032F000010100234FF00C0C4FF4E13280E80E0086
:10330000C0E90333C0E905C3C361FFF713FB00281D
:1033100008BF80BDBDE88040FDF792B8FEE7000021
:10332000FEE70000000000000000000000000000B8
:10333000EFF30980BFF36F8F154B1A681EF0100F63
:1033400008BF20ED108A20E9F04F10602DE9090038
:103350004FF0500080F31188BFF34F8FBFF36F8F92
:1033600001F0C8F94FF0000080F31188BDE80900B2
:1033700019680868B0E8F04F1EF0100F08BFB0ECF5
:10338000108A80F30988BFF36F8F704700BF00BFBA
:103390009C0100202DE9F04F8BB001680A68D2062D
:1033A00040F1FD8000220A920A680A9249680A9157
:1033B0000A99806B006801680268090322F0010223
:1033C00002604FF02402436842600268C3F12401A6
:1033D0003ED442F400220260026889B242F0010247
:1033E0001229026040F0DB8040F23C22C2F200026F
:1033F00002F13F00099002F13E00089002F13D0009
:10340000079002F13C00069002F13B00059002F1AA
:103410003A00049002F13900039002F13800029062
:1034200002F13700019002F13600009002F1410AEA
:1034300002F1400002F1350B02F1340102F1330CCC
:1034400002F1320E02F1310802F130093DE000BF15
:1034500022F400220260026889B242F001021229BD
:10346000026040F09C8040F23C22C2F2000202F175
:103470006300099002F16200089002F16100079078
:1034800002F16000069002F15F00059002F15E001B
:10349000049002F15D00039002F15C00029002F1E1
:1034A0005B00019002F15A00009002F1650A02F1FE
:1034B000640002F1590B02F1580102F1570C02F1BC
:1034C000560E02F1550802F1540999F8004098F897
:1034D000009098F800709EF800809EF800E09CF83C
:1034E000005091F800C00E789BF8002000789AF800
:1034F00000A09BF8001069F30A24C1F3011340F205
:103500004011C2F200010B779BF8003076089B094E
:103510004B77009B62F3CA1693F800B0019B6AF3E5
:103520000A201B78A0F580604BEA0323CB83FB08BD
:10353000029F68F34A1397F80090039F4FEA8508AB
:103540003F78049D49EA07270F8495F80090059D70
:1035500048EA9E172D786CF38A2749EA05254D84A1
:10356000069D2D7881F82450079D2D78089A81F8C2
:1035700025501278099D2D78488342EA0522CA8495
:10358000A4F580624A82A3F580628A82A7F58062F0
:10359000CA82A6F58062FA200A8381F829000BB05E
:1035A000BDE8F08F000000000000000000000000F7
:1035B000074B19680868B0E8F04F80F30988BFF33B
:1035C0006F8F4FF0000080F31188704700BF00BF7D
:1035D0009C010020012000F0BDFBFBE780B54FF00F
:1035E000500080F31188BFF36F8FBFF34F8F01F04E
:1035F000E7F930B14EF60450CEF200004FF08051A2
:103600000160002080F3118880BD0000B0B592B049
:10361000002443F64000CDE90A44CDE9084405946E
:10362000CDE90344CDE901440094C4F202000168ED
:10363000022541F080510160006800F08050009048
:10364000009847F200000094C4F20000016841F4C1
:1036500080410160006800F48040009000980120E3
:1036600006904FF4803007904FF480000D900620B4
:103670000E90A820CDE90F050420119006A80C9506
:10368000FEF722F820B1EFF3108072B6FEE700BF1C
:103690000F20CDE901054FF4A05004904FF4805065
:1036A000059001A805210394FDF7E0FE20B1EFF39A
:1036B000108072B6FEE700BF12B0B0BD4EF6885063
:1036C000CEF20000016841F4700101607047000013
:1036D00040F2E860C2F20000FEF766BC10B540F6AA
:1036E000FF3E0368C4F2000E40F2004C7045C4F285
:1036F000010C27DCB0F1804F31D040F20042C4F21F
:10370000000290422BD040F60002C4F20002904228
:1037100025D041F6FF72C4F20002904229DC7045C8
:103720003CDCB0F1804F5FD040F20042C4F20002B6
:10373000904259D040F60002C4F20002904253D0A9
:1037400056E000BF40F60042C4F20002904206D0AC
:10375000604504D00022C4F201029042D9D14A68E7
:1037600023F07003134341F6FF72C4F2000290424B
:10377000D5DD43F6FF72C4F20102904222DC42F230
:103780000002C4F2000290422ED00022C4F20102D4
:10379000904229D0604527D02AE000BF40F6004281
:1037A000C4F2000290421FD041F60002C4F20002AF
:1037B000904219D041F60042C4F20002904213D068
:1037C00016E000BF44F20002C4F2010290420BD0A6
:1037D00044F60002C4F20102904205D044F20042D5
:1037E000C4F20102904203D1CA6823F44073134328
:1037F00023F080024B69D1F800E08C681A43026024
:10380000C46240F48062C0F828E0624504BF0969E0
:1038100001630121416110BD806B0021C185C1841C
:10382000FEF7D4BD81B090F83E10222921D18368E3
:103830000246B3F5805F09D152F8281F52F8183CB0
:10384000002B63D003685B680AE000BF52F8281FB2
:1038500013B90369002BF5D003685B6803F07F039D
:103860000B70116801311160C18D01390A04C185E5
:1038700002D001B0704700BF0168CA6822F0200280
:10388000CA60CA6822F48072CA604A6922F00102E2
:103890004A61202180F83E10016B01293ED10021B0
:1038A000016300BF016851E8031F026821F01001A5
:1038B00042E80313DBB1016851E8031F026821F0FD
:1038C000100142E8031393B1016851E8031F026835
:1038D00021F0100142E803134BB1016851E8031FC6
:1038E000026821F0100142E80313002BDAD10168CD
:1038F0000A68D20606D5002200920A68009249683A
:1039000000910099818D01B0FEF756BD02685268A2
:103910006FF35F2221F8022B8162A5E701B0FFF768
:10392000A3B9000010B504460068D4E902C22369B7
:10393000016921F4405111430161626943EA0C01BC
:10394000E3691143C268194349F20C639A43114376
:10395000C1604169A26921F4407141F20043114301
:1039600040F48062C4F201039A42416102D1FDF742
:1039700061FE01E0FDF74AFEE16963681922B1F5D5
:10398000004FA0FB020123D15A00DB0FFCF76CFCB7
:1039900048F21F51C5F2EB11A0FB01235A094FF663
:1039A0009C73C0F6FF7303F1805302FB03003223C4
:1039B00003EBC000A0FB01014FF4F87000EA111006
:1039C00000EB0210C1F3421108442168886010BD69
:1039D0009A009B0FFCF748FC48F21F51C5F2EB110F
:1039E000A0FB01235A094FF69C73C0F6FF7302FB3C
:1039F0000300322303EB0010A0FB0101F02000EADA
:103A0000511000EB0210C1F3431108442168886093
:103A100010BD000040F27470C2F20000FEF7D8BC86
:103A2000FEE7000010B500685368984240F0E3805C
:103A300091F806C082F818C00888BCF1510F03BA8B
:103A40004FEA134313824B8890FAB0FE1BBA4FEA39
:103A50001343D381898809BA4FEA114191810BD36D
:103A6000D18B01318BB2C92BD18307D30021D183F4
:103A7000022182F8201001E00021D183117F022968
:103A80001CD001290ED0002918BF10BD11780129C2
:103A900020D1B2F912309E4528DAAEEB030101F5D0
:103AA000005429E0107801281AD1B2F912309E454D
:103AB00046DAAEEB030000F5005147E0107801282C
:103AC00038D1B2F912309E4568DAAEEB030000F54A
:103AD000005169E0012100241170546173460BE02C
:103AE000012000211070516173462FE0C6BFAEEB7C
:103AF0000301A1F500540024AEEB030320B20FFA3A
:103B000083FC84EAE031A1EBE03083EAEC31A1EB05
:103B1000EC3180B289B2A2F812E0884288BF1C461C
:103B200020B200EE100A9FED371AB8EEC00A20EE60
:103B3000010A28E00120002110705161734633E032
:103B4000C6BFAEEB0300A0F500510021AEEB0300B1
:103B50000CB20FFA80FC81EAE433A3EBE43380EA91
:103B6000EC34A4EBEC349BB2A4B2A34288BF014670
:103B700008B200EE100A9FED221AB8EEC00A80EEDD
:103B8000010AA2F812E09FED1D1A92ED052A20EE1F
:103B9000010A30EE020A82ED050A10BDC6BFAEEB87
:103BA0000300A0F500510021AEEB03000CB20FFAA8
:103BB00080FC81EAE433A3EBE43380EAEC34A4EB49
:103BC000EC349BB2A4B2A34288BF014608B200EE17
:103BD000100A9FED091AB8EEC00A80EE010A9FEDA7
:103BE000071A92ED052AA2F812E020EE010A30EE43
:103BF000020A82ED050A10BD000090480000B4439F
:103C00002CA019480000003910B50068936898424C
:103C100018BF10BD0878137910704878012B107701
:103C20004888108288885082B1F906C0A2F814C072
:103C30000CD1B2F916309C450EDA48F20001CFF6ED
:103C4000FF7181EA0C01CC1A0FE000BF01210024B2
:103C500011719461634608E006DD47F6FF71594033
:103C600061444C1C01E000BF0024ACEB030320B214
:103C70000FFA83FE84EAE031A1EBE03083EAEE3113
:103C8000A1EBEE3180B289B2A2F816C0884288BF9B
:103C90001C4620B200EE100A9FED081AB8EEC00ACA
:103CA00020EE010A9FED061A92ED062A20EE010A87
:103CB00030EE020A82ED060A10BD00BF0000003897
:103CC0000000B44322B3006840F20233984218BFA8
:103CD00070470878800990720878C0F30110D0729C
:103CE0000878C0F3C000907548880B7800BA000CC3
:103CF000D0808888C3F3800300BA000C908040F223
:103D00000800C988C2F20000437008BA000C908213
:103D100070470000FDF7C0FAFFF778FCFFF760F886
:103D2000FEF7F0FFFEF7A6FFFEF7C8FFFFF728F942
:103D3000FFF7B6FAFFF702F9FFF7C0F9FFF746F908
:103D4000FFF790FAFFF7CCFAFFF722F800F00AF835
:103D5000FEE7000080B5002808BF012000F00CFC41
:103D6000002080BD80B500F057FC002080BD000021
:103D7000B0B584B043698E4693B1846984B1058936
:103D8000D0E9001C026928B2843D18BFC51CCDE9EA
:103D9000005360467346029400F0D6FD04B0B0BDF7
:103DA0000589D0E90013028A28B2843D18BFC51CDA
:103DB00003AC184673460095019400F095FD0399F5
:103DC000012818BF0021084604B0B0BD2DE9F0411C
:103DD000044600F011FB40F29C16C2F20006306966
:103DE00040F2FC75013030613068C2F2000548B124
:103DF0007069002840D13068E16AC06A884298BF83
:103E0000346039E034603069012835D1284600F04B
:103E100099FA05F1140000F095FA05F1280000F078
:103E200091FA05F13C0000F08DFA05F1500000F028
:103E300089FA05F1640000F085FA05F1780000F0D8
:103E400081FA40F2B428C2F20008404600F07AFA43
:103E500008F11407384600F075FA06F1640000F026
:103E600071FA06F13C0000F06DFA06F1500000F026
:103E700069FAC6F8308077637068B1680122013151
:103E8000B160E16A8A401043706001EB810005EB8C
:103E90008000211D00F098FA00F0D2FA706988B114
:103EA0003068E16AC06A884228BFBDE8F0814EF6FA
:103EB0000450CEF200004FF080510160BFF34F8FED
:103EC000BFF36F8FBDE8F08140F29C1540F2FC76A5
:103ED0004EF60458C2F20005C2F20006CEF2000807
:103EE0004FF0805703E000BF204600F0C1FAE868B9
:103EF000D0B100F081FAA86CC468201D00F002FA6D
:103F0000286901382861E8680138E86000F098FA0B
:103F100094F851000228EAD00128E5D070B9206B4E
:103F200000F0A6FAE0E700BF30680228DFD3C8F847
:103F30000070BFF34F8FBFF36F8FD8E74FF0500083
:103F400080F31188BFF36F8FBFF34F8FFEE7000040
:103F50002DE9F047DDE909878246386B089C00EBC4
:103F6000820004389946002920F0070656D00878C8
:103F700087F83400087800284BD0487887F8350057
:103F80004878002845D0887887F836008878002857
:103F90003FD0C87887F83700C878D0B3087987F859
:103FA00038000879A8B3487987F83900487980B390
:103FB000887987F83A00887958B3C87987F83B0040
:103FC000C87930B3087A87F83C00087A08B3487A91
:103FD00087F83D00487AE0B1887A87F83E00887A11
:103FE000B8B1C87A87F83F00C87A90B1087B87F8E3
:103FF0004000087B68B1487B87F84100487B40B1AE
:10400000887B87F84200887B00281CBFC87B87F824
:104010004300002087F8430003E000BF002087F83A
:1040200034000025381D062C28BF0624FC62C7E991
:10403000114500F093F907F1180000F08FF984F0B2
:104040000700B861304651464A463F617F62FD64D1
:1040500087F8505000F042F9B8F1000F386018BFEF
:10406000C8F80070BDE8F08708480068006880F371
:1040700008884FF0000080F3148862B661B6BFF381
:104080004F8FBFF36F8F00DF00BF000008ED00E02F
:1040900081B00020009040F2DC00C2F20000006815
:1040A0004FF0500181F31188BFF36F8FBFF34F8F33
:1040B000013007D0FEE700BF009830B9009820B962
:1040C000009810B900980028F6D001B070470000A1
:1040D00070B5044600F006FB40F2142CC2F2000C4E
:1040E000DCF8040050B19CF80000002818BF4FF025
:1040F00000404FF0000574BB8DE000BF40F6880023
:10410000C2F20000C21D22F0070210F00701A0EB6E
:10411000020318BF104600224FF47055CCE9060286
:10412000002918BF03F57055411921F00701A1F1CD
:104130000803CCF8043041E90222191AC0E9003121
:1041400001208CF800004FF00040CCE90211002C57
:104150004FF000055FD020405DD124F0070000F152
:104160001002600708BF04F10802002A4FF00005A2
:1041700051D0DCF8080082424DD8604650F818EF64
:10418000DEF8045095422CD2DEF80010C1B174461E
:104190004D68954218D20B68B3B15D68954217D24D
:1041A0001868A8B14568954216D20468A4B165683C
:1041B000954215D22168A6460029E9D111E000BF39
:1041C0000CF118000DE000BF8E46204609E000BF4C
:1041D0009E46084605E000BF8646184601E000BF3F
:1041E000A646DCF804108E4514D00168DEF80040C5
:1041F000AB1A112B04604DD30EEB0205680719D0E2
:104200004FF0500080F31188BFF36F8FBFF34F8FD3
:10421000FEE700BF002500F057FC68075BD04FF0B9
:10422000500080F31188BFF36F8FBFF34F8F00BF33
:10423000FEE700BF0CF118006B60CEF8042000BF51
:104240000368AB420AD21868A8420BD20368AB429B
:1042500004D218681A46A842F2D304E0024618466F
:1042600001E000BF1A4653686C68D618AE4202D10E
:104270001C44154654602B19834207D1DCF80430E6
:10428000984203D0D0E9000323446B60AA4228601F
:1042900018BF156001F10805DEF80400DCE9021220
:1042A000091A9142CCF8081038BFCCF80C109CF8D1
:1042B0000010002918BF40F00040CEF80400DCF8E0
:1042C000100000210130CEF80010CCF8100000F0F2
:1042D000FBFB6807A3D1284670BD0000034644F2EB
:1042E0009100C0F600004FF0807C21F0010103E94D
:1042F00003106FF0020043F8240CA3F1440043F8CC
:10430000202C7047D0E9013201699A60D1F804C0CD
:1043100082688445536008BF4A60002202610868D1
:10432000013808600868704744F28C63C2F20003E9
:10433000036044F28C40C2F20000086080201060EC
:10434000704700004FF0FF31024642F8081F00217D
:104350004260C0E903220160704700000021016152
:104360007047000010B5D1F800E01EF1010213D033
:1043700000F1080462681368734511D853681C681B
:10438000744511D85A68146874450FD85468236866
:10439000A4467345EED90BE00269D2F804C007E0E9
:1043A0009446224604E000BF9C4601E094461A462B
:1043B000C1F804C0CCF808108A6051600861016837
:1043C0000131016010BD0000D0F800C043680861F1
:1043D0009A684B608A609A68996051600CF101019B
:1043E00001607047DFF80C00016841F47001016062
:1043F0007047000088ED00E04FF0500080F3118816
:10440000BFF36F8FBFF34F8F40F2DC00C2F20000AA
:1044100001684A1C026009B1704700BF4EF60450A3
:10442000CEF200000068000608BF70474FF0500051
:1044300080F31188BFF36F8FBFF34F8FFEE700004B
:1044400040F2DC00C2F20000016839B101390160BC
:1044500018BF7047002080F3118870474FF050005C
:1044600080F31188BFF36F8FBFF34F8FFEE700001B
:1044700070B5002808BF70BD40F21425C2F20005D7
:104480000446287854F8041C002818BF4FF0004058
:1044900008420DD0A4F1080632689AB14FF05000DE
:1044A00080F31188BFF36F8FBFF34F8FFEE700BF1C
:1044B0004FF0500080F31188BFF36F8FBFF34F8F21
:1044C000FEE700BF21EA000044F8040C00F00AF9FE
:1044D00054F8041CA8680844A86005F1180000BF3F
:1044E0000368B3420AD21868B04225D20368B342C7
:1044F00004D218681A46B042F2D301E002461846C8
:104500005368D418B44202D1194416465160731846
:10451000834206D16B68984203D0D0E90003194466
:104520007160B242306018BF16606869013068611E
:10453000BDE8704000F0C8BA1A465368D418B442B7
:10454000E5D1E1E74EF21000CEF20000002101605B
:10455000816040F2B401C2F20001096844F6D3520E
:10456000C1F26202A1FB02124FF0FF3101EB921186
:10457000416007210160704770B500283FD040F2CC
:104580009C15C2F200050446A86948B14FF05000DE
:1045900080F31188BFF36F8FBFF34F8FFEE700BF2B
:1045A000A8690130A8616E6A28680430FFF7AAFE86
:1045B00050B12868A419446013D3686B296804318A
:1045C000FFF7D0FE16E000BF28680121C06A6A68C4
:1045D00001FA00F022EA000068602868A41944602B
:1045E000EBD2286B29680431FFF7BCFE286A8442AD
:1045F00038BF2C6200F068FA002818BF70BD4EF674
:104600000450CEF200004FF080510160BFF34F8F95
:10461000BFF36F8F70BD0000B0B588B00020CDE94A
:10462000050006A805A904AAFFF77EFE0598B8B301
:10463000069C002C3ED05421049A079107995429D6
:1046400042D107992063022084F8510007A8002571
:10465000CDE9005043F6C960C0F600001FA1002359
:104660000294FFF775FC2046FFF7B0FB079940F274
:104670009C10C2F20000C16179B14FF0500181F38A
:104680001188BFF36F8FBFF34F8F4FF0FF3101627F
:1046900001214161456200F065F808B0B0BD00BF7E
:1046A0004FF0500080F31188BFF36F8FBFF34F8F2F
:1046B000FEE700BF4FF0500080F31188BFF36F8F0B
:1046C000BFF34F8FFEE700BF4FF0500080F311881B
:1046D000BFF36F8FBFF34F8FFEE700BF49444C45D8
:1046E0000000000040F29C10C2F20000816901311C
:1046F0008161704740F29C10C2F20000816900297C
:104700001EBF012181627047002181624168B1FAB8
:1047100081F1C9B2C1F11F0140F2FC7201EB8101CC
:10472000C2F2000252F8213063B102EB810252F86A
:10473000041F4968131D994211600DD0C9680160BA
:10474000704700BF4FF0500080F31188BFF36F8FA8
:10475000BFF34F8FFEE700BF49681160C968016071
:1047600070470000B0B584B04EF2004CCEF2000CA1
:104770004CF27021C4F20F11DCF800294B1C9A4254
:104780000AD14FF0500080F31188BFF36F8FBFF351
:104790004F8F00BFFEE700BFDCF800298A4209D135
:1047A0004FF0500080F31188BFF36F8FBFF34F8F2E
:1047B000FEE700BF9CF800100291FF218CF800106A
:1047C0009CF800108DF807109DF8071001F05002BA
:1047D00040F23421C2F200010A7007224A609DF9BA
:1047E0000720B2F1FF3F69DC032200BFD31C4B60FE
:1047F0009DF8070040008DF807009DF90700B0F113
:10480000FF3F23DC931C4B609DF8070040008DF8B0
:1048100007009DF90700B0F1FF3F17DC531C4B6008
:104820009DF8070040008DF807009DF90700B0F1E2
:10483000FF3F0BDC4A609DF80700043A40008DF80A
:1048400007009DF907000028D0D4131D032B35D194
:104850004FF44070486002988CF80000DCF82009A2
:1048600040F47000CCF82009DCF8200940F07040DA
:10487000CCF82009FFF766FE40F2DC04C2F2000427
:1048800000252560FFF7AEFD4EF63470CEF2000035
:10489000016841F040410160FFF7E6FBFFF72AFFA6
:1048A000039520684FF0500181F31188BFF36F8F9B
:1048B000BFF34F8F013011D0FEE700BF4FF0500023
:1048C00080F31188BFF36F8FBFF34F8FFEE700BFF8
:1048D000039830B9039820B9039810B903980028B9
:1048E000F6D0002004B0B0BD2DE9F04383B00746F8
:1048F0009000984615468946FFF7EAFBF8B1064650
:104900005420FFF7E5FBB8B10446DDE90A100022A8
:10491000266384F85120CDE90010384649462A46DE
:1049200043460294FFF714FB2046FFF74FFA01209D
:1049300003B0BDE8F08300BF3046FFF799FD4FF0AC
:10494000FF3003B0BDE8F08370B586B00B9CCCB1EE
:104950000C9E0EB354250495049D542D26D1049D20
:10496000DDF828C0022586F8515005AD3463CDE945
:1049700000C50296FFF7ECFA3046FFF727FA0598D4
:1049800006B070BD4FF0500080F31188BFF36F8FF9
:10499000BFF34F8FFEE700BF4FF0500080F3118848
:1049A000BFF36F8FBFF34F8FFEE700BF4FF0500094
:1049B00080F31188BFF36F8FBFF34F8FFEE70000C6
:1049C0002DE9F04740F29C16C2F20006B06928B10A
:1049D000F06A0130F0620020BDE8F087706A10F1E3
:1049E000010AC6F824A020D3306B006850B14FF004
:1049F000500080F31188BFF36F8FBFF34F8F00BF5C
:104A0000FEE700BF306B716B31637063B06B0130D8
:104A1000B063306B006828B1306BC068C068406814
:104A200002E000BF4FF0FF303062306A40F2FC78A5
:104A30008245C2F2000801D2002434E0306B002429
:104A4000006868B34FF0010916E000BFF86A7168AA
:104A500009FA00F2114300EB8000716008EB80005E
:104A60002946FFF7B1FCF86A3168C96A326B88429F
:104A7000106828BF4C4698B1306BC068C7683D4687
:104A800055F8040F82450DD32846FFF73BFCB86A62
:104A90000028DBD007F11800FFF734FCD6E700BF91
:104AA0004FF0FF3030623068C06A00EB800058F889
:104AB0002000012888BF0124B06A002818BF012403
:104AC0002046BDE8F08700002DE9F04140F29C153A
:104AD000C2F20005A86968B1FFF78EFCA869013829
:104AE000A861A86980B10024FFF7AAFC2046BDE8B0
:104AF000F08100BF4FF0500080F31188BFF36F8F3B
:104B0000BFF34F8FFEE700BF28690028EBD0686E27
:104B100078B340F2FC780126C2F20008286FC7681B
:104B200007F11800FFF7EEFB3C1D2046FFF7EAFBFC
:104B3000F86A696806FA00F2114300EB80006960C8
:104B400008EB80002146FFF73FFCF86A2968C96A34
:104B5000884228BFAE62686E0028DFD1286B0068EB
:104B600020B1286BC068C068406801E04FF0FF309A
:104B70002862EC6A4CB10126FFF722FF002818BF1B
:104B8000AE62013CF8D10020E862A86A0028AAD0F1
:104B90004EF60450CEF200004FF080510160BFF39A
:104BA0004F8F0124BFF36F8FFFF74AFC2046BDE80B
:104BB000F081F1EE100A4FF6FF71C0F2C03120EA29
:104BC000010040F04070E1EE100A70470000000064
:104BD00000000000010203040607080900000000AD
:104BE00001020304000610160006101664656661D3
:104BF000756C745461736B00184C00080000002041
:104C0000E0000000C4010008F84C0008E0000020AB
:104C1000004C0000E001000801000000100000004E
:104C200000000000144E8743F6281C3F00000000DF
:104C30000000C0BF0000A041000000000000000014
:104C40000000000000000000000000000000000064
:104C5000DC020020EC020020F40200200000000032
:104C6000000000000000000000000000000096436B
:104C70000000C842520100200000000000000000B7
:104C8000000000004402000000640040000000003A
:104C90000000000000000000000000000000000014
:104CA00000000000000000000000000043020000BF
:104CB0000064004000000000000000000000000050
:104CC0000000000000000000000000000024F400CC
:104CD0000000000005020000006800400000000025
:104CE00000000000000000000000000000000000C4
:084CF00000000000AAAAAAAA14
:040000050800018965
:00000001FF
