:020000040800F2
:10000000C85F002069020008BD5700080D3A0008CB
:10001000B95700087D060008616A0008000000006A
:10002000000000000000000000000000015C00086B
:100030000909000800000000A1580008E963000851
:10004000830200088302000883020008830200087C
:10005000830200088302000883020008830200086C
:1000600083020008830200080D09000883020008CB
:10007000B107000883020008830200088302000819
:10008000830200088302000883020008830200083C
:100090008106000883020008830200081509000891
:1000A000830200088302000883020008830200081C
:1000B000DD64000883020008830200088302000850
:1000C00083020008830200088302000883020008FC
:1000D000830200088302000883020008556A0008B2
:1000E00083020008830200088302000883020008DC
:1000F00083020008830200088302000883020008CC
:1001000083020008830200088302000883020008BB
:1001100083020008830200088302000883020008AB
:1001200083020008BD070008C90700088302000811
:10013000830200088302000883020008830200088B
:100140008D0600088302000883020008830200086D
:1001500083020008D5070008E107000883020008B1
:10016000830200088302000883020008830200085B
:1001700083020008830200088302000800000000D8
:10018000830200088302000800F002F800F05CF827
:100190000AA090E8000C82448344AAF10107DA45E2
:1001A00001D100F051F8AFF2090EBAE80F0013F0D8
:1001B000010F18BFFB1A43F001031847C880000065
:1001C000E88000000A444FF0000C10F8013B13F0E7
:1001D000070408BF10F8014B1D1108BF10F8015BA0
:1001E000641E05D010F8016B641E01F8016BF9D193
:1001F00013F0080F1EBF10F8014BAD1C0C1B09D1EA
:100200006D1E58BF01F801CBFAD505E014F8016B5B
:1002100001F8016B6D1EF9D59142D6D370470000ED
:100220000023002400250026103A28BF78C1FBD8FF
:10023000520728BF30C148BF0B6070471FB507F099
:100240000AFF1FBD10B510BD00F0AEF81146FFF754
:10025000F5FF06F0ADFE00F0CCF803B4FFF7F2FFB7
:1002600003BC00F0CFF80000094880470948004768
:10027000FEE7FEE7FEE7FEE7FEE7FEE7FEE7FEE756
:10028000FEE7FEE704480549054A064B70470000B3
:10029000C964000889010008C8590020C85F00200F
:1002A000C85B0020C85B002053EA020C00F06980A4
:1002B0002DE9F04B4FF00006002B1FBFB3FA83F57A
:1002C00003FA05F424FA05F65E4012BF1643B2FAAB
:1002D00082F502FA05F4C5F120051EBF22FA05FCDD
:1002E00044EA0C04203556EA044C4FEA144418BF83
:1002F000641C4FF000084FF00009904271EB030CB2
:1003000039D3002919BFB1FA81F701FA07F6B0FA1B
:1003100080F700FA07F6C7F120071EBF20FA07FC96
:1003200046EA0C062037B6FBF4FCA7EB0507103FA6
:1003300007F01F0BCBF120062CFA06F60CFA0BFB8C
:1003400044BFB3460026202FA4BF5E464FF0000BEB
:100350005BEA060C08BF4FF0010B19EB0B0948EBE9
:100360000608ABFB027C06FB02CC0BFB03CCC01BDC
:1003700071EB0C01C1E70B46024641464846BDE819
:10038000F08B13B5084318BF4FF0FF300146AFF3B1
:100390000080BDE81C407047704770477047000000
:1003A00000487047D80700207546FFF7F9FFAE46B2
:1003B00005006946534620F00700854618B020B571
:1003C000FFF760FFBDE820404FF000064FF0000748
:1003D0004FF000084FF0000BAC46ACE8C009ACE8A9
:1003E000C009ACE8C009ACE8C00921F007018D469E
:1003F000704710B50446AFF300802046BDE81040BA
:10040000FFF72BBF01491820ABBEFEE72600020014
:10041000704700000020C4F202001021012201F008
:10042000EBBA00000020C4F202001021002201F00B
:10043000E3BA000040F20040C4F2020001210122B0
:1004400001F0DABA40F20040C4F2020001210022B9
:1004500001F0D2BA80B582B08DF8070000208DF887
:10046000060041F63C004FF47A7CC2F200000DF128
:1004700007010DF106020123CDF800C002F066F875
:100480009DF8060002B080BD2DE9F04F83B0CDE9A4
:1004900000210290FFF7C6FF9220FFF7DBFF9220BA
:1004A000FFF7D8FF5520FFF7D5FF80465520FFF70F
:1004B000D1FF81465520FFF7CDFF06465520FFF7B7
:1004C000C9FF07465520FFF7C5FF04465520FFF733
:1004D000C1FF0546FFF79EFF41F6B02A48EA092012
:1004E000C2F2000AAAF8000046EA0720AAF80200B1
:1004F00044EA0520AAF80400FFF7A4FF8020FFF7D4
:10050000A9FF5520FFF7A6FF07465520FFF7A2FFDA
:100510005520FFF79FFF83465520FFF79BFF0446BA
:100520005520FFF797FF05465520FFF793FF064636
:100530005520FFF78FFF80465520FFF78BFF814640
:10054000FFF778FF0F2F14D1BAF81A004BEA0421F5
:10055000081AAAF80E00BAF81C0045EA0621081A83
:10056000AAF81000BAF81E0048EA0921081AAAF8E9
:100570001200FFF757FFA220FFF76CFFA220FFF742
:1005800069FF5520FFF766FF04465520FFF762FF1D
:100590000546FFF73FFFBAF812004FF6000301B21D
:1005A00080EAE132A2EBE13189B213294FEAC401BA
:1005B00041EA55124FF000079CBF0020AAF8120034
:1005C000CFF6FF73B7EB912F18BF1A4300EE102A36
:1005D000B8EEC00AB4EE001A20EE010AB3EE071A14
:1005E000009930EE010A81ED000ABAF90010BAF95B
:1005F0000220BAF9043000EE101A9FED1E1A02EE26
:10060000102A03EE103ABAF90E70B8EEC00AB8EE2E
:10061000C22AB8EEC33A019920EE010A22EE012A5D
:1006200023EE011A81ED000A81ED021A00EE107A24
:100630009FED111A81ED012AB8EEC00ABAF9101027
:10064000029A20EE010A82ED000A00EE101AB8EEBE
:10065000C00A20EE010A00B282ED010A00EE100A83
:10066000B8EEC00A20EE010A82ED020A03B0BDE82E
:10067000F08F00BFE7416B3A58A08B3AFEE70000CD
:1006800041F2B850C2F2000000F0CEBB41F2E0509F
:10069000C2F2000000F0C8BB40F2000540F6B03BDB
:1006A00040F64A0A40F688199FED3F8A9FED3F9A2F
:1006B000C2F20005C2F2000BC2F2000A4FF00008BD
:1006C000C2F200093FE000BF01218BF800100221B7
:1006D000BAF80420BAF80630BAF8146000286FF0AF
:1006E0006F002A826B82AE8218BF6FF04F002F78A6
:1006F0006C78084440EAC700E96899ED000A40EACE
:1007000084000877100A30EE080A8877180A20EE6D
:10071000090A81F82000300ABDEEC00A81F82200E3
:1007200010EE100A81F81D80CA7781F8213081F817
:100730002360696800BA000C0884504606F06AFF1E
:10074000012006F07FFC07F07DFB04F0F7FA40F68D
:10075000E011C2F2000109780028024618BF022207
:1007600001296A7298BF297040F68C11C2F200010B
:100770000968012902D019B9002100E0012169703E
:1007800040F20431C2F2000191F8F81341B101299D
:100790009AD09BF80010002918BF022198E700BFEB
:1007A00000218BF8001093E7666682410000C84282
:1007B00041F2C860C2F2000000F05ABE41F2287057
:1007C000C2F2000000F054BE41F20860C2F2000024
:1007D00000F04EBE41F28870C2F2000000F048BE48
:1007E00041F26860C2F2000000F042BE82B040F602
:1007F0004A0640F22C0940F6E01540F20807C2F222
:100800000006C2F20009C2F20005C2F2000701AC04
:100810001BE000BF00204FF0000B4FF0000A4FF02C
:100820000008D9F82810C0B28847E9695FFA8BF050
:100830008847B9695FFA8AF0884779695FFA88F072
:1008400088472046032107F0B5F807F0FBFA318B03
:100850000190411A3229DDD8B87802281ED001282B
:10086000EFD1B07A032821D0022835D00128E8D171
:10087000F07A0138C1B20329E3D24FF4FF6101EAF3
:10088000C00140F200104FF48072C0F2010022FA61
:1008900001FBC8404FF00008DA46C2E701204FF0E4
:1008A000010B4FF0010A4FF00108BAE7F07A013866
:1008B000C1B20329C5D24FF4FF6101EAC00140F281
:1008C0000010C0F201004FF48072C84022FA01FB10
:1008D000DA468046A5E700BFF07A0138C1B20329A5
:1008E000AFD24FF4FF6101EAC0004FF4807121FAEA
:1008F00000FA40F20121C0F2010121FA00F84FF0A4
:10090000000B01208DE7000070470000102000F070
:1009100093BF0000202000F08FBF0000EFF3108095
:1009200072B600BFFEE7000040F6881640F20438B9
:100930009FEDA7BA9FEDA8CA9FEDA6DAC2F2000606
:1009400040F224079FEDA5EA40F64A05DFEDA4BA80
:10095000DFEDA4CADFEDA4DA9FEDA58A40F2207A8C
:100960004FF2EC7940F2007BDFEDA0EAC2F2000822
:10097000C2F20007C2F20005B7EE08FAF0EE088AEC
:10098000F8EE089AFFEE08AA06F10C04C2F2000A7B
:10099000CFF6FF79C2F2000BFBEE00FA6AE000BF6F
:1009A00086ED021AB86AB0EE490A7030F0EE480AD5
:1009B00006F046F9F86AB0EE4A0A7030F0EE480ADE
:1009C00006F03EF9B86AF96990ED1F0A91ED051A33
:1009D000203030EE410AF0EE480A06F031F9F86AAC
:1009E000F0EE480A203006F02BF9F86AF96990ED2C
:1009F000200A91ED061A204630EE410A03F0A4FFCA
:100A0000B86AF96A90ED0B0ABDEEC00A10EE102A22
:100A100091ED0C0A4168D0F8C0000AEB810151F851
:100A20000910130A08440377B86ABDEEC00A41688A
:100A3000D0F8C0000BEB810151F80910084402778F
:100A4000F86A10EE101A4268D0F8C0000AEB820271
:100A500052F809200B0A10440377F86A4268D0F86C
:100A6000C0000BEB820252F80920104401770120EC
:100A700006F0E8FA07F0E6F998ED380AB4EE4B0A0A
:100A8000F1EE10FA04DCB4EE4D0AF1EE10FA0ADAD7
:100A900030EE0C1AB4EE4D0AF1EE10FAB8BFB0EE1B
:100AA000401A86ED001A04F09FF803F0E7FF97ED77
:100AB000051AB0EE4E0AB4EE4E1AF1EE10FA03DD4E
:100AC00087ED050A09E000BFB4EE6F1AF1EE10FAE7
:100AD000B0EE6F0AB8BF87ED050AF86997ED020A14
:100AE00097ED031A90ED012A90ED023AA87A31EEC3
:100AF000429A022830EE43AA02D1E87A012803D0B4
:100B000004F0E0F9002845D0796A486A4278012A61
:100B10004FF0010272603FD141F6AC22C2F20002F6
:100B20001268203190ED030A97ED002A002A08BFD1
:100B3000011D91ED003A97ED011A22EE032AB4EE61
:100B40004F2AF1EE10FAB0EE4F9A08DCB4EE6A2AA2
:100B5000B0EE429AF1EE10FAB8BFB0EE6A9A20EE0B
:100B6000010AB4EE680AF1EE10FAB0EE68AA08DCE9
:100B7000B4EE690AB0EE40AAF1EE10FAB8BFB0EEDA
:100B800069AA41F63821C2F20001D1E90110C7E992
:100B9000020101E000207060F869B0EE6D1A90ED7E
:100BA000020A20EE2B0A30EE2C0AB4EE6D0AF1EEAA
:100BB00010FA86ED020A3FF7F3AEB4EE6E0AF1EEDC
:100BC00010FAB0EE6E1AB8BF86ED021AEAE600BF60
:100BD000000048430000C8420000B4C30000404287
:100BE000643BE741CD5CEDC40000FAC300401CC586
:100BF0000000000090F82020013A012A08D800687F
:100C000000F114020020136819431160704700BFFF
:100C100000F1240201204FF4802113681943116070
:100C200070470000B0B590F82020013A012A2FD873
:100C300046F20060C4F20000026842F00102026065
:100C4000026822F47C520260D1F814E0CC694A6A4E
:100C50000368012C43EA022202600EF01F024FF0EB
:100C6000010303FA02F2C3696FEA020C23EA0203EA
:100C7000C36113D02CBBC36803EA0C03C360CB6809
:100C80008C8844EA034300EBCE0423640B4611E056
:100C9000416A41F4802141620120B0BDC368134321
:100CA000C3600B688C8844EA034300EBCE042364E2
:100CB00001F10C038C681B8843EA044300EBCE046B
:100CC000636443688D6943EA0204D1F810E0096A5D
:100CD000002D08BF03EA0C0444604369BEF1000F15
:100CE00043EA020408BF03EA0C040129446102D16B
:100CF000C1691143C161016821F001010160002057
:100D0000B0BD00007047000010B590F82040013CD5
:100D1000012C71D8D0F800C0002977D0DCF8104041
:100D2000A40777D00CEB011CDCF8B0410CF5D87EA1
:100D300014F004049460DCF8B04119BFE408546076
:100D4000640D1460DEF80040002904F00204D46051
:100D5000DCF8B44104F00F041461DCF8B441C4F3CE
:100D600007249461DCF8B4414FEA14445461DCF880
:100D7000B8211A70026802EB0112D2F8B8214FEACA
:100D800012225A70026802EB0112D2F8B8214FEA1F
:100D900012429A70026802EB0112D2F8B8214FEAAF
:100DA0001262DA70026802EB0112D2F8BC211A71E9
:100DB000026802EB0112D2F8BC214FEA12225A71EA
:100DC000026802EB0112D2F8BC214FEA12429A717A
:100DD000026802EB0112D2F8BC214FEA1262DA710A
:100DE000006814BF00F1100100F10C010020202266
:100DF0000B681A430A6010BD00F1240101204FF472
:100E000080220B681A430A6010BD00BFDCF80C405A
:100E1000A40787D100F1240101204FF400120B68D0
:100E20001A430A6010BD00002DE9F04F81B004465E
:100E300000684669D0F804908768D0F80CB0D0F804
:100E400010A0D0F81880F10704D1002530071DD478
:100E500024E000BFF90710D00121BA07816009D44E
:100E6000780700F1AF80380700F1B680204600F027
:100E700097FA02E0204600F095FA0025F80500F107
:100E80008780F80300F1B180300707D51BF0100010
:100E900004D0206845F400751021C160700708D5A2
:100EA0001BF0080005D020680821C160204600F032
:100EB000F5F9B00706D52068C068800702D0204643
:100EC00000F0EEF9700607D51AF0100004D0206883
:100ED00045F4806510210161B00608D51AF00800BC
:100EE00005D0206808210161204600F025FAF006AF
:100EF00006D520680069800702D0204600F01EFA5F
:100F0000B00308D519F0100005D020681021416009
:100F1000204600F015FAF00308D519F0080005D0B6
:100F2000206808214160204600F046FA300440F174
:100F30009B805FEA497040F1948006F4807008EA73
:100F4000102028435FEA8871014648BF41F0020142
:100F5000B20558BF01465FEA48700D4648BF45F0EC
:100F60000405700558BF0D46300540F17A8018F031
:100F7000700000F076801038000905286CD8DFE892
:100F800000F003595D61656945F0080564E000BF44
:100F900020684FF48071BA0581600BD4780515D4B0
:100FA00038051DD4204600F0FFF9F8037FF56CAF3B
:100FB0001BE000BF204600F0F9F9F8037FF564AFAD
:100FC00013E000BF4FF4006558E700BF05F500557A
:100FD000F8037FF559AF08E04FF480554EE700BFA6
:100FE00005F58045F8037FF54FAF20684FF4803159
:100FF000BA0381600AD4780310D4380314D420468D
:1010000000F0D6F930073FF541AF47E7204600F042
:10101000D1F930073FF53AAF40E700BF05F500458D
:1010200030073FF533AF39E705F5803530073FF539
:101030002DAF33E745F010050EE000BF45F0200569
:101040000AE000BF45F0400506E000BF45F080051E
:1010500002E000BF45F480752068816921F07001CD
:10106000816120680421416055B1606A40EA050150
:101070002046616201B0BDE8F04FFFF743BE00BFFC
:1010800001B0BDE8F08F0000B0B5C8B1044690F8DB
:10109000200010B9204600F071F82068016841F086
:1010A0000101016000F0AEFC054600BF2068416808
:1010B000C90707D100F0A6FC401B0B28F6D312E0AD
:1010C0000120B0BD016821F00201016000F09AFC2E
:1010D000054600BF2068416889070DD500F092FCE5
:1010E000401B0B28F6D3606A052140F40030606293
:1010F000012084F82010B0BD217E0268012922F071
:10110000800208BF80320260617E0268012922F0FD
:10111000400208BF40320260A17E0268012922F02D
:10112000200208BF20320260E17E0268012922F01D
:10113000100218BF10320260217F0268012922F0DC
:10114000080208BF08320260617F0268012922F0AC
:10115000040208BF04320260D4E901C2D4E90335B5
:1011600061691A432A431143ACF101021143C16181
:1011700000200121606284F82010B0BD10B586B057
:10118000006846F60002C4F2000200219042CDE958
:101190000411CDE90211019134D046F20041C4F2AC
:1011A0000001884277D140F6B431C2F200010A68EA
:1011B00043F64000C4F20200531C0B6052B90021F8
:1011C0000091016841F000710160016801F0007157
:1011D000009100990021009150F8101C142441F056
:1011E000080140F8101C50F8100C032100F0080012
:1011F0000090009840F20040C4F2020000F5006048
:1012000035E000BF43F64000C4F2020000910168DF
:1012100041F080610160016801F0806100910099F6
:1012200040F6B431C2F200010A68531C0B6052B997
:1012300000210091016841F000710160016801F036
:101240000071009100990021009150F8101C402479
:1012500041F0020140F8101C50F8100C602100F021
:1012600002000090009840F20040C4F20200019198
:10127000022102910021039103210491092105918A
:1012800001A900F0E5FA20460521002200F08EFDBC
:10129000204600F077FD06B010BD0000704700004A
:1012A000F0B581B0016846F60002C4F2000240F6D3
:1012B00088379142C2F2000720D046F20042C4F2C1
:1012C0000002914236D13C1D07F120050021224643
:1012D0002B46FFF719FD40F20436C2F2000606F174
:1012E000CC022046294605F06BFD06F5CC7220465F
:1012F000294605F065FD06F5197212E03C1D07F15F
:101300002005002122462B46FFF7FEFC40F2043662
:10131000C2F2000620462946324605F051FD06F588
:101320004C72381D07F1200101B0BDE8F04005F016
:1013300047BD00BF01B0F0BD70470000704700001E
:1013400070470000B0B5044690F8200001281DD178
:10135000022084F820002068016821F0010101606A
:1013600000F050FB054600BF20684068C00713D05E
:1013700000F048FB401B0B28F6D3606A40F40030B5
:101380006062052084F820000120B0BD606A40F44E
:10139000002060620120B0BD00206062B0BD00008E
:1013A0007047000070470000704700007047000061
:1013B00070470000704700007047000070B5866DF0
:1013C000044600F01FFB94F83510022928D1054689
:1013D0002068216C026822F016020260426922F045
:1013E0008002426109B9A16C19B1016821F00801BC
:1013F0000160016821F00101016000BF2068006800
:10140000C00715D000F0FEFA401B0628F6D32020B6
:101410006065032084F83500002184F8341070BD25
:10142000802060650120002184F8341070BD00BF69
:10143000E06D3F2101FA00F0B060012084F8350032
:101440000020002184F8341070BD000090F83510A1
:10145000022909D1052180F835100068016821F0C2
:101460000101016000207047802141650120704723
:10147000F0B581B004460020009040F24070C2F206
:1014800000000268D4E9166048F2B51337680821F5
:10149000C1F64E3381403942A2FB03250CD02268AD
:1014A00013685B0708D5136823F004031360B16069
:1014B000616D41F00101616501218140394208D02F
:1014C00022685269120604D5B160616D41F00201D3
:1014D000616504218140394208D022681268920770
:1014E00004D5B160616D41F0040161651021814056
:1014F000394217D020680268120713D5B16002681C
:101500000168520308D4C90508D4016821F0080114
:101510000160216C21B905E008033FD4216C09B1B9
:1015200020468847E16D202000FA01F23A4241D07E
:1015300020680368DB063DD5B26094F83530026858
:10154000052B1BD122F016020260426922F08002B4
:101550004261226C0AB9A26C1AB1026822F0080238
:1015600002603F208840B060012084F83500216D82
:101570000020002984F8340052D157E0016852035A
:1015800010D4C90512D4016821F0100101600120B6
:1015900084F83500002084F8340007E0A16C0029AD
:1015A000BED1BFE7080301D4616C00E0E16B09B173
:1015B00020468847606DC8B3606DC0072ED00520F7
:1015C00084F835002068A90A026822F0010202604E
:1015D000009A01328A4200921AD80268D20717D0C4
:1015E000009A01328A42009212D80268D2070FD0C4
:1015F000009A01328A4200920AD80268D20707D0C4
:10160000009A01328A42009202D80268D207DFD1E2
:10161000012084F83500002084F83400E16C29B101
:10162000204601B0BDE8F040084700BF01B0F0BD62
:101630002DE9F041044600F0E5F9ECB10546022041
:1016400084F835000020216884F83400086820F010
:101650000100086021680868C00711D000F0D2F9C5
:10166000401B0528F6D9032520230320636584F851
:101670003550BDE8F08100BF0120BDE8F08100BF1A
:10168000086848F23F02CFF21002D4E9013500EABF
:10169000020C04F10C0898E8C10143EA0C032B4347
:1016A0001843D4E9072E304338431043626A40EAB6
:1016B0000E00042A40EA08031CD1206BD4E90A2E4C
:1016C00040EA0E00184308604869BEF1000F20F0A0
:1016D000030040EA020040F0040C11D0B8F5005FAE
:1016E00036D0B8F1000F45D1022A46D0012A3BD0AE
:1016F00032B942E00B60486920F0070040EA020C72
:1017000001F0F8004AF6AB221038CAF6AA22A0FB74
:1017100002231A0948F21C23C0F600039A5C40F227
:10172000FF335F284FF03F00C1F814C021EA0301E6
:1017300000FA02F088BF0431C4E916128860002361
:1017400001250020636584F83550BDE8F08100BFB5
:10175000032AD5D8012540230120DFE802F0030E3B
:10176000030500BF82E700BFAEF1C070B0FA80F0A1
:10177000400904E0032A04D3C2D1CEF3006000285C
:10178000BED0012540230120636584F83550BDE8B3
:10179000F081000070B590F834C0BCF1010F46D064
:1017A0004FF0010C80F834C0D0F858E090F835C004
:1017B000BCF1010F38D14FF0020C80F835C04FF06A
:1017C000000CC0F854C0D0F800C08468056CC06D2F
:1017D000DCF80060402C26F48026CCF80060CCF8C1
:1017E00004300B4604BF13460A463F2101FA00F0BD
:1017F000CCF80830CCF80C20CEF80800DCF800005B
:1018000040F01600CCF800002DB1DCF8000040F0EC
:101810000800CCF80000DCF8000040F00100CCF833
:101820000000002070BD00BF002180F834100220AD
:1018300070BD00007047000043F61441C4F201017E
:101840000A68024214BF08607047FFF7F3BF000048
:101850002DE9F04F82B000F13E4241F6004502F121
:10186000FF77C4F20205082243F6004E4FEAB7267E
:10187000A84208BF0722C4F2010E072E38BF4FEA64
:10188000B7220125002600274FF00008009208E04B
:1018900008F101080437B8F1100F06F1020600F054
:1018A000A7800C6805FA08F914EA090FF0D0D1F8FE
:1018B00004B003220BF0030CACF10104B240012C84
:1018C0006FEA020A10D88268CC6802EA0A02B440C1
:1018D000224382604268CBF3001422EA090204FA30
:1018E00008F42243426005E0BCF1030F02D14FF03F
:1018F000030C20E0C2688C6802EA0A02B44022436A
:10190000BCF1020FC26016D16FF0030202EA580266
:101910000244D2F820C007F01C050F230C69AB402D
:101920002CEA030304FA05F52B431362D1F804B043
:1019300001250BF0030C02680CFA06F302EA0A0216
:101940001A431BF4403F0260A2D0002243F6440336
:101950000192C4F202031A684FF6084C42F4804226
:101960001A601A68CFF6FF7C02F480420192019A55
:1019700028F00302724452F80C3007F00C050F24D3
:10198000AC40A343009C04FA05F52B4342F80C300D
:10199000DEF808204B6842EA090543F60C4CDC02ED
:1019A00058BF22EA0905CEF80850C4F2010CDCF851
:1019B00000209C0242EA090558BF22EA0905CCF83A
:1019C0000050DEF804209C0342EA090558BF22EAD1
:1019D0000905CEF80450DEF80020DB0342EA0905D1
:1019E00058BF22EA0905CEF80050012550E700BF94
:1019F00002B0BDE8F08F0000002A08BF0904816131
:101A00007047000045F27070C2F200000068704735
:101A100070B5B8B3044690F83D0028B9002084F8AA
:101A20003C00204600F0B0F8242084F83D002068F7
:101A3000016821F001010160016841F40041016089
:101A4000016821F40041016000F0BCFA48F28041D5
:101A5000C0F21E0140F60013D4F804E088424FF0B3
:101A60000001C0F23D0348F2A16C4FF0000238BF04
:101A700001219842C0F2010C38BF0122E64538BF6F
:101A80000A460AB1012070BD4DF68361C4F21B31D4
:101A9000A0FB01122168950C4B684FF4967623F059
:101AA0003F0343EA9243754344F6D3564B60C1F279
:101AB00062060B6AA5FB0656B50923F03F03E6450F
:101AC00038BF950C6A1C1A430A62CA6948F2A066BC
:101AD0004CF6FF73C0F20106B64522EA03020BD8AA
:101AE00001384FEA4E03B0FBF3F001306FF31F30C3
:101AF000042898BF04201EE0A368013863B11923AD
:101B00000EFB03F3B0FBF3F001306FF31F3078B13D
:101B100000F5804008E000BF0EEB4E03B0FBF3F091
:101B200001306FF31F3028B100F5004003E000BF23
:101B3000012000E001201043C8610868D4E90723B0
:101B400020F0C000104318430860886848F2FF3254
:101B500004F10C0690434CCE18431043A5698860ED
:101B6000C86820F0FF0030432843C860086840F090
:101B70000100086000202021206484F83D102063CB
:101B800084F83E0070BD00002DE9F04786B0006883
:101B900045F60047C4F20007B84203D006B0BDE8DE
:101BA000F08700BF002643F630050196C4F2020517
:101BB000286801AC40F00400286028684FF0120843
:101BC00000F0040001900198019628684FF0030985
:101BD00040F00100286028684FF0040A00F001007E
:101BE000019001984FF40070019007F5D63021461E
:101BF000CDE90286CDF81090CDF814A0FFF728FEAD
:101C00004FF48070CDE9010803A880E8400607F58D
:101C1000D2302146FFF71CFE0096286940F40000F0
:101C20002861286900F400000090009806B0BDE823
:101C3000F087000040F2041045F27071C2F200001B
:101C4000C2F2000100780A68104408607047000082
:101C500080B543F60040C4F20200016841F400710F
:101C60000160016841F480610160016841F48071A4
:101C70000160032000F0C6F80F2000F005F800F026
:101C80005FF8002080BD000070B586B0002543F6E7
:101C900040010195C4F202010A68044642F00102C3
:101CA0000A60096801A801F00101019101996946E2
:101CB00000F068F9049E002E18BF012600F082F99A
:101CC0004DF68361B040C4F21B31A0FB01014FF01F
:101CD000FF3000EB914141F62410C2F200004FF0BA
:101CE000804240F2E733C0E90021C0E902530561B8
:101CF000856100F03DFE054610B1284606B070BD76
:101D000041F62410C2F2000000F090FE05460028C3
:101D1000F3D11C2000F036F80F2C0DD81C202146E2
:101D20000022002500F042F840F20810C2F2000044
:101D30000460284606B070BD0125284606B070BD77
:101D400082B0002043F640010190C4F202014A68CB
:101D500042F480424A604A6802F480420192019A49
:101D600000900868002240F08050086008680F2149
:101D700000F08050009000986FF0010002B000F079
:101D800015B80000002848BF7047C1B200F01F001E
:101D9000012202FA00F04EF20012CEF2000242EAF4
:101DA000D10121F0030108607047000010B54EF624
:101DB0000C5CCEF2000CDCF80030C3F3022E8EF087
:101DC0000704042C28BF0424BEF103034FF0FF3E98
:101DD0000EFA04F438BF0023A14399400EFA03F32E
:101DE0009A43114300F00F0200F160430901043AE5
:101DF00003F564436244002848BF02F10C031970E4
:101E000010BD00004EF60C51CEF200010A684FF6EC
:101E1000FF031A4060F30A2242F0806040F0FD7038
:101E2000086070472DE9F041002800F08B8043F6F0
:101E30000808C4F202080446D8F8F8030D4600F07A
:101E40000700884207D288F8F853D8F8F80300F062
:101E50000700A84276D12068810717D5410705D52C
:101E6000D8F8001041F4E051C8F80010010705D57A
:101E7000D8F8001041F46041C8F80010D8F80010FC
:101E8000A26821F0F0011143C8F80010C0073FD14B
:101E9000D8F8F80300F00700A84207D988F8F853EB
:101EA000D8F8F80300F00700A8424BD1206841079A
:101EB00007D5D8F80010E26821F4E0511143C8F8C2
:101EC0000010000708D5D8F80000216920F4604010
:101ED00040EAC100C8F8000000F09CF8D8F80010F3
:101EE00048F2C402C1F30311C0F60002515C40F293
:101EF000407220FA01F140F20810C2F200000068BE
:101F0000C2F200021160FFF7BFFE0020BDE8F081C1
:101F10006068811E022907D258F8081C89015CBF3D
:101F20000120BDE8F08111E0012807D158F8081C14
:101F300089035CBF0120BDE8F08107E058F8081C68
:101F4000890703D40120BDE8F08100BFD8F8001054
:101F500021F003010843C8F80000FFF753FD0646CF
:101F600041F28837D8F80000616800F00C00B0EB4F
:101F7000810F8DD0FFF746FD801BB842F2D90320B8
:101F8000BDE8F0810F22026043F60802C4F20202AB
:101F9000136803F003034360136803F0F0038360E6
:101FA000136803F4E053C360D2F800C04FF4E05369
:101FB00003EADC030361D2F8F80300F007000860CD
:101FC0007047000040F2407043F60801C2F2000082
:101FD000C4F202010068096848F2D402C1F3822108
:101FE000C0F60002515CC8407047000040F24070EB
:101FF00043F60801C2F20000C4F202010068096859
:1020000048F2D402C1F34231C0F60002515CC8402C
:102010007047000010B543F60404C4F2020460687F
:1020200000F00C0008280BD0042819BF42F2004031
:10203000C0F2F40041F60030C0F2B70010BD00BF9E
:10204000206821682368490241F60031C0F2B701D7
:1020500000F03F02C3F388105CBF42F20041C0F2BF
:10206000F401A1FB00010023FEF71EF92168022202
:10207000C1F3014102EB4101B0FBF1F010BD0000E2
:102080002DE9F04182B0002868D00446007843F67C
:102090000006C007C4F202060BD0B06800F00C00C6
:1020A000042840F09F803068800302D560680028D3
:1020B00054D0207880071AD5B06810F00C0F09D0E2
:1020C000B06800F00C00082840F0A680706840025C
:1020D00000F1A2803068800702D5E06801283DD178
:1020E0003068216920F0F80040EAC10030602078B3
:1020F000000737D4207840074CD4A56955B3B068A1
:1021000000F00C00082840F0BB80012D26D070683C
:10211000E16900F480028A4220D1216A00F03F0286
:102120008A421BD147F6C071626A0140B1EB821F3F
:1021300014D1A16A4FF6FF73C903994300F44032EA
:10214000A1F580318A4209D1E16A00F07060B0EBFC
:10215000016F03D1002002B0BDE8F081012002B080
:10216000BDE8F0816069002840F20000C4F2472019
:1021700076D00121C0F8801EFFF744FC054600BF61
:10218000706F8007B6D4FFF73DFC401B0228F7D9DB
:10219000DDE000BF306C10F080580AD100200190C3
:1021A000306C40F080503064306C00F08050019012
:1021B000019847F20007C4F200073868C00541D40F
:1021C000386840F480703860FFF71CFC054600BF9B
:1021D0003868C00536D4FFF715FC401B0228F7D934
:1021E000B5E000BFB06800F00C00082803D17068AB
:1021F00040023FF558AF6068B0F5803F07D0B0F5BA
:10220000A02F40F08D80306840F48020306030682E
:1022100040F4803030608DE0E068002852D000202B
:10222000C4F2472001210160FFF7ECFB054600BF27
:10223000306880073FF554AFFFF7E4FB401B0228EE
:10224000F6D984E0A068012805D005284ED1306F6A
:1022500040F004003067306F40F0010030674FE01D
:102260000021C0F8801EFFF7CDFB0546706F800788
:102270007FF540AFFFF7C6FB401B0228F6D966E0AA
:102280000027C4F2472700203866FFF7BBFB022D6A
:1022900005460BD1306880015ED5FFF7B3FB401BCC
:1022A00002284FF00300F5D955E700BF30688001E0
:1022B0007FF550AFFFF7A6FB401B02284FF003004D
:1022C000F4D948E70020C4F2472000210160FFF75D
:1022D00099FB0546306880077FF509AFFFF792FB51
:1022E000401B02284FF00300F4D934E7316F002877
:1022F00021F001013167316F21F0040131674DD0C8
:10230000FFF780FB054641F2883700BF306F80073A
:1023100056D4FFF777FB401BB842F7D917E000BF50
:102320003168002821F480313160316821F4802146
:1023300031604FD0FFF766FB054600BF3068800371
:102340003FF5B7AEFFF75EFB401B6428F6D90320CC
:1023500002B0BDE8F08100BF04F11C052FCD084399
:1023600040EA8210D9034FF6FF729143A1F5803104
:1023700040EA05600843706001203866FFF742FBC1
:10238000044600BF306880013FF5E4AEFFF73AFB3A
:10239000001B02284FF00300F4D9DCE6FFF732FB04
:1023A000054641F2883700BF306F800708D5FFF738
:1023B00029FB401BB8424FF00300F5D9CBE600BF24
:1023C000B8F1000F7FF499AE306C20F0805030648B
:1023D00093E600BFFFF716FB054600BF3068800399
:1023E0007FF567AEFFF70EFB401B64284FF003003C
:1023F000F4D9B0E670B538B10446406A30B1002077
:10240000206104F1140007E0012070BD6068B0F5A0
:10241000827F03D004F11C00002101600026A66227
:1024200094F8510020B9204684F8506000F03CF840
:10243000022084F8510094E80F0001F482710568CD
:1024400002F4044225F040050560114403F40062E3
:102450002369114403F002026369114403F001028D
:10246000A369E569114403F40072114405F03802D0
:10247000256A114405F08002A56A114305F4005253
:1024800011430160626A042101EA134102F0100263
:1024900011444160C16921F40061C1610120666598
:1024A00084F85100304670BD2DE9F04385B00068D6
:1024B00043F20005C4F20105A84203D005B0BDE80F
:1024C000F08300BF002643F630000096C4F20200FD
:1024D00041696C4641F48051416141694FF0020805
:1024E00001F4805100910099009601684FF00309B2
:1024F00041F0020101600168052701F0020100912D
:1025000000990096016841F00101016000682146D0
:1025100000F00100009000981820009005F554404C
:10252000CDE90186CDF80C900497FFF791F9802052
:10253000CDE9000805F550402146CDE90269049730
:10254000FFF786F905B0BDE8F08300002DE9F04300
:1025500083B0044690F85000012803D1022003B054
:10256000BDE8F08301201E4615460F4684F8500052
:10257000FFF748FA94F851108146012940F09880FD
:10258000002F4FF0010018BF002D00F09E80002E9C
:1025900000F09B8094F85100002104281CBF052006
:1025A00084F851006165A563E687A6872763E68600
:1025B0002068A686216461640168490603D4016825
:1025C00041F0400101606168731EE268B1FA81F177
:1025D000B3FA83F3DDF8288049095B09B2F5006F8F
:1025E00041EA03017AD131B137F8021BC160276398
:1025F000E08E0138E086012518F1010031D101E0BB
:10260000FFF700FAE08E18B9E08F002800F0D080C4
:102610002068816889070CD5E18E51B1012D08D160
:10262000216B002531F8022BC2602163E18E013954
:10263000E1868168C907E3D0E18F0029E0D0C06856
:10264000A16B012521F8020BA163E08F0138E0871F
:10265000D6E700BFFFF7D6F9A0EB0900404580F0B0
:10266000FD80E08E18B9E08F002800F0A18020687E
:10267000816889070CD5E18E51B1012D08D1216BFC
:10268000002531F8022BC2602163E18E0139E18619
:102690008168C907DED0E18F0029DBD0C068A16B5B
:1026A000012521F8020BA163E08F0138E087D1E713
:1026B0006068B0F5827F07D1A06800284FF0020063
:1026C00008BF042901D15BE70220012184F85110E1
:1026D000002184F8501003B0BDE8F08339B1397897
:1026E0000173206B01302063E08E0138E086012504
:1026F00018F1010033D101E0FFF784F9E08E10B941
:10270000E08F002854D02068816889070ED5E18EBB
:1027100061B1012D0AD1216B002509780173216B6C
:10272000206801312163E18E0139E1868168C907A2
:10273000E2D0E18F0029DFD0C068A16B01250870CD
:10274000A06B0130A063E08F0138E087D4E700BFC1
:10275000FFF758F9A0EB0900404580F08180E08E3A
:1027600008B9E08F20B32068816889070ED5E18E13
:1027700061B1012D0AD1216B002509780173216B0C
:10278000206801312163E18E0139E1868168C90742
:10279000DED0E18F0029DBD0C068A16B0125087075
:1027A000A06B0130A063E08F0138E087D0E700BF65
:1027B00040F24070C2F20000006849F68171C1F237
:1027C0005E61A0FB0101480D4FF47A71484302900D
:1027D0006068B0F5827F0FD12046802142464B468B
:1027E00003F098F960B3606D40F020006065202030
:1027F0006065012069E700BF029808B302980138BC
:1028000002902068806800061AD50298C0B102982C
:102810000138029020688068000611D5029878B1CE
:1028200002980138029020688068000608D5029856
:1028300030B1029801380290206880680006DBD42D
:10284000A06800284FF000007FF43FAF019021689E
:10285000CA68019289680191019936E7032034E73B
:10286000032032E77047000070470000B0B590F8D1
:102870003C20012A04BF0220B0BD01F108053CCD77
:10288000D1E900CE23F47C5322F470521A432EF483
:10289000F0431A432CF4E0431A4324F4C0431A4390
:1028A0002A43C96922F48042036811435964002114
:1028B00080F83C100846B0BD10B590F83C20012AC5
:1028C0004FF0020251D080F83D200268D2F804E0B7
:1028D000D2F808C00C682EF07003234341F2FF7455
:1028E000C4F20004A24253600EDC40F2FF73C4F253
:1028F00000039A4216DCB2F1804F2BD040F2004325
:10290000C4F2000324E000BF40F2FF33C4F201032D
:102910009A4213DC41F60003C4F200039A4219D034
:10292000002313E040F60003C4F200039A4211D0E2
:1029300040F60043C4F200030AE000BF44F2000383
:10294000C4F201039A4205D040F20043C4F20103ED
:102950009A4204D149682CF0800319439160012107
:10296000002280F83D1080F83C20104610BD000089
:10297000002804BF0120704710B5044690F83D00C0
:1029800028B9002084F83C00204600F01FF80220FF
:1029900084F83D002068211D03F0A6FD012084F885
:1029A000460084F83E0084F83F0084F8400084F834
:1029B000410084F8420084F8430084F8440084F81D
:1029C000450084F83D00002010BD000082B0006882
:1029D00044F20041C4F20101884215D00021C4F242
:1029E000010188421FD10020019043F64400C4F247
:1029F0000200016841F001010160006800F001007F
:102A00000190019802B070470020009043F6440006
:102A1000C4F20200016841F400310160006800F472
:102A200000300090009802B07047000090F83D1010
:102A300001291CBF01207047022180F83D10006869
:102A400041F2FF72C168C4F20002904241F00101FC
:102A5000C1600DDC40F2FF71C4F20001884215DC58
:102A6000B0F1804F2AD040F20041C4F2000123E0CF
:102A700040F2FF31C4F20101884213DC41F600014B
:102A8000C4F20001884219D0002113E040F6000191
:102A9000C4F20001884211D040F60041C4F20001A6
:102AA0000AE000BF44F20001C4F20101884205D0EF
:102AB00040F20041C4F20101884206D1816801F070
:102AC0000701062904BF00207047016841F0010199
:102AD000016000207047000080B590F83C20012A7A
:102AE0004FF0020200F0C28080F83D20D0F800C014
:102AF0004FF67772DCF8083023EA0202CCF808209F
:102B00000B684F2B28DC1F2B44DD202B45D0302BAE
:102B100043D0402B40F0AC80D1F804E0C968DCF829
:102B20002030DCF8202022F00102CCF82020DCF854
:102B3000182022F0F00242EA011123F00A0242EAD0
:102B40000E02CCF81810CCF82020DCF8081041F068
:102B5000470121F0300180E06F2B27DDB3F5005FE6
:102B600048D0B3F5805F7AD0702B40F08180D1E9F6
:102B700001E3C968DCF8082043EA0E0322F47F422F
:102B800043EA01211143CCF80810DCF8081041F0A9
:102B9000770162E00BB1102B6AD1DCF8081021F04C
:102BA0007001194341F0070157E000BF502B35D0A9
:102BB000602B5DD1D1F804E0C968DCF8203023F047
:102BC0001003CCF82030DCF81830DCF8202023F497
:102BD000704322F0A00243EA013142EA0E12CCF81F
:102BE0001810CCF82020DCF8081041F0670121F023
:102BF000100132E0D1E901E3C968DCF8082043EABA
:102C00000E0322F47F4243EA01211143CCF808105D
:102C1000DCF8081041F480411FE000BFD1F804E067
:102C2000C968DCF82030DCF8202022F00102CCF862
:102C30002020DCF8182022F0F00242EA011123F0F3
:102C40000A0242EA0E02CCF81810CCF82020DCF878
:102C5000081041F0570121F02001CCF808100022A3
:102C6000012180F83D10002180F83C10104680BD05
:102C70000122F5E77047000010B5016804460869B5
:102C8000800744BFC8685FEA807039D4086940078C
:102C900044BFC8685FEA40703ED40869000744BF7B
:102CA000C8685FEA007045D40869C00644BFC868B8
:102CB0005FEAC0604AD40869C0071CBFC8685FEA01
:102CC000C07051D10869000644BFC8685FEA00605F
:102CD00052D40869400644BFC8685FEA406053D4D4
:102CE0000869800646BFC8685FEA806010BD6FF063
:102CF000200220460A61BDE81040FFF7B5BD00BFC5
:102D00006FF002000861012020778869800743D0B6
:102D10002046FFF7AFFF45E06FF004000861022096
:102D20002077886910F4407F40D02046FFF7A2FF4B
:102D300042E000BF6FF00800086104202077C869F6
:102D400080073DD02046FFF795FF3FE06FF0100071
:102D5000086108202077C86910F4407F3AD02046E7
:102D6000FFF788FF3CE000BF6FF0010008612046DC
:102D700000F080F92168A5E76FF080000861204627
:102D8000FFF770FD2168A4E76FF04000086120465E
:102D900000F078F92168A3E7204600F025F82046E6
:102DA00000F066F92168002020776FE7204600F0E8
:102DB0001BF8204600F05CF92168002020776CE7C2
:102DC000204600F011F8204600F052F9216800205A
:102DD000207769E7204600F007F8204600F048F920
:102DE00021680020207766E7704700002DE9F04356
:102DF00090F83C30012B04BF0220BDE8F0834FEA7D
:102E0000B202032A00F2FC80DFE802F0023E7EBE3E
:102E1000036840F200471A6A43F4806522F0010219
:102E20001A621C6A1A46D3F804E052F818CF8E686A
:102E300024F00204C4F20107BD4244EA060405D1AD
:102E4000CE6824F00C0426F0040634430E68BD421C
:102E500007D1D1E905572EF4407E45EA0E0545EA33
:102E6000070E2CF073073743C3F804E09F614F68E7
:102E700009695F631C629F6947F008079F619F694A
:102E800027F004079F61B1E0036840F200481A6A26
:102E900043F4806522F010021A621C6A1A46D3F8C5
:102EA00004C052F818EF8F6824F02004C4F201081F
:102EB000454544EA071407D1CF686FF0400624F077
:102EC000C00406EA07163443D1F80090454506D100
:102ED000D1E905562CF440672E4347EA860C2EF4C0
:102EE000E64747EA0927C3F804C09F614F680969AC
:102EF0009F631C629F6947F400679F619F6927F485
:102F000080679F6171E000BF036840F200481A6A61
:102F100043F4806522F480721A621C6A1A46D3F860
:102F200004C052F81CEF8F6824F40074C4F2010846
:102F3000454544EA072408D1CF6840F2FF463F02E6
:102F400024F4406427EA06063443D1F8009045454E
:102F500006D1D1E905562CF440572E4347EA061C0A
:102F60002EF0730747EA0907C3F804C0DF614F6812
:102F70000969DF631C62DF6947F00807DF61DF6909
:102F800027F00407DF6131E0036840F200451A6A68
:102F900043F4806722F480521A621A46D3F820C0A4
:102FA0005C6852F81CEFD1F800808E68C4F201050D
:102FB000AF4204D14D6924F4804444EA85142CF4D2
:102FC000005747EA06372EF4E64646EA08265C60D4
:102FD000DE614E6809691E641F62DF6947F400679D
:102FE000DF61DF6927F48067DF6109021368194335
:102FF00011600021002280F83C200846BDE8F083E3
:103000000121002280F83C200846BDE8F083000042
:10301000002804BF0120704710B5044690F83D0019
:1030200028B9002084F83C00204600F01FF8022058
:1030300084F83D002068211D03F056FA012084F831
:10304000460084F83E0084F83F0084F8400084F88D
:10305000410084F8420084F8430084F8440084F876
:10306000450084F83D00002010BD000070470000BE
:10307000704700000068B0F1804F18BF7047FEF73E
:10308000D9BD000070470000016844F60002C4F298
:103090000002914218BF704702F034BC7047000034
:1030A000B0B582B0044600680168C368426901F0A7
:1030B0002F05202D03F0200506D12DB1204602B0AA
:1030C000BDE8B04003F0CEBB5FEA017C1EBF02F05A
:1030D000010E03F4907212EB0E0253D1226B012AFF
:1030E00005D111F0100218BF13F0100236D10A06F4
:1030F00022D513F080021FD094F83D1021293FD132
:10310000A168B1F5805F03D12169002900F07282C6
:10311000216A4A1C226209784160E18C01390A0463
:10312000E1842DD1C16821F08001C160C16841F006
:103130004001C16002B0B0BD490621D513F0400185
:103140001ED0C16821F04001C1602021204684F8D2
:103150003D1002B0BDE8B04000F054BC0021019128
:10316000016801914168019101994069400613D4B9
:10317000A08DE18DE28D002A18BF884240F0BE810B
:1031800002B0B0BDCA0718BF13F4807240F0BA8015
:103190004A0700F1BD80C2E0A16B0868426893B2A3
:1031A000002BEDD0A08D8342EAD2E285C969B1F54A
:1031B000807F00F09D80206850E8030F216820F494
:1031C000807041E80302DAB1206850E8030F2168FB
:1031D00020F4807041E8030292B1206850E8030FA8
:1031E000216820F4807041E803024AB1206850E869
:1031F000030F216820F4807041E80302002ADAD12D
:10320000206850E8050F216820F0010041E8050220
:10321000DAB1206850E8050F216820F0010041E88C
:10322000050292B1206850E8050F216820F00100E6
:1032300041E805024AB1206850E8050F216820F0F6
:10324000010041E80502002ADAD1206850E8050FA4
:10325000216820F0400041E80502DAB1206850E81A
:10326000050F216820F0400041E8050292B1206876
:1032700050E8050F216820F0400041E805024AB1FE
:10328000206850E8050F216820F0400041E8050261
:10329000002ADAD1202084F83E0000202063206834
:1032A00050E8030F216820F0100041E80302DAB172
:1032B000206850E8030F216820F0100041E8030265
:1032C00092B1206850E8030F216820F0100041E817
:1032D00003024AB1206850E8030F216820F0100073
:1032E00041E80302002ADAD1A06BFEF767F8A08D4F
:1032F000E18D401A81B2204602B0BDE8B040FFF730
:10330000C3BE00BF226C42F0010222644A0706D508
:10331000BEF1000F03D0226C42F0020222648A0741
:1033200006D5BEF1000F03D0226C42F004022264E5
:10333000BCF1000F09D545EA0E02B2FA82F2520939
:1033400003D1226C42F008022264226C002A3FF46E
:1033500017AF11F0200118BF002D03D0204603F055
:1033600081FA20684069216C00F0400001F00801FA
:10337000401800F0B58000BF206850E8030F2168B6
:1033800020F4907041E80302BAB3206850E8030FBC
:10339000216820F4907041E8030272B3206850E87D
:1033A000030F216820F4907041E803022AB32068DB
:1033B00050E8030F216820F4907041E80302002ACE
:1033C000DAD11AE0206850E8050F216820F00100EA
:1033D00041E80502DAB1206850E8050F216820F0C5
:1033E000010041E8050292B1206850E8050F21680C
:1033F00020F0010041E805024AB1206850E8050FBD
:10340000216820F0010041E80502002ADAD1206B92
:10341000012824D1206850E8030F216820F0100013
:1034200041E80302DAB1206850E8030F216820F078
:10343000100041E8030292B1206850E8030F2168B0
:1034400020F0100041E803024AB1206850E8030F61
:10345000216820F0100041E80302002ADAD1202080
:1034600084F83E00002020632068406940063FD574
:10347000206850E8050F216820F0400041E805026F
:10348000DAB1206850E8050F216820F0400041E8DB
:10349000050292B1206850E8050F216820F0400035
:1034A00041E805024AB1206850E8050F216820F084
:1034B000400041E80502002ADAD1A06BC0B146F213
:1034C0002561C0F600010165FDF7C0FF00283FF44B
:1034D00057AEA06B016D02B0BDE8B040084700BF19
:1034E0002046FFF7DBFD0020206402B0B0BD00BF26
:1034F000204602B0BDE8B040FFF7D0BD401A2168B9
:1035000051E8031F226821F4907142E80313DBB1F4
:10351000216851E8031F226821F4907142E80313E7
:1035200093B1216851E8031F226821F4907142E8A9
:1035300003134BB1216851E8031F226821F49071F5
:1035400042E80313002BDAD1216851E8051F2268F5
:1035500021F0010142E80513DBB1216851E8051FA4
:10356000226821F0010142E8051393B1216851E876
:10357000051F226821F0010142E805134BB12168C3
:1035800051E8051F226821F0010142E80513002BD4
:10359000DAD1202184F83E1000212163216851E80E
:1035A000031F226821F0100142E80313002B3FF4AF
:1035B000A1AE216851E8031F226821F0100142E802
:1035C0000313002B3FF496AE216851E8031F2268D5
:1035D00021F0100142E80313002B3FF48BAE216869
:1035E00051E8031F226821F0100142E80313002B69
:1035F000D4D17FE6216A31F8022B6FF35F2242605B
:1036000021628AE5002804BF0120704710B50446F6
:1036100090F83D0028B9002084F83C00204600F0D6
:1036200021F8242084F83D002068C16821F400516D
:10363000C160204603F096F92068016921F49041A9
:103640000161416921F02A014161C16841F40051E1
:10365000C16000202021206484F83D1084F83E10D1
:1036600010BD00002DE9F04F87B00446006844F615
:103670000001C4F2000100268842CDE90566CDE9CB
:103680000366029600F0948041F20041C4F2010109
:10369000884200F0E58041F20001C4F20101884255
:1036A00040F04781002743F630000197C4F2020042
:1036B0004169002541F0100141614169C4F20205F0
:1036C00001F01001019101990197016802AE41F0EA
:1036D00002010160016846F2280801F0020101912F
:1036E0000199019701684FF0020941F00101016061
:1036F00000684FF0030A00F001000190019880205B
:1037000002904FF0070B05F580603146C4F20208C5
:10371000CDE90397CDF814A0CDF818B0FEF798F8CE
:103720004FF40070CDE9020904A880E8800C284617
:103730003146FEF78DF841F2086508F58360C2F264
:1037400000054FF000664FF4806A4FF4807985E8F9
:10375000C1002846C5E9037AC5E90577C5E9079799
:103760006F62FDF765FF002818BFFDF7D7F8A56366
:10377000AC6341F2686508F59260C2F20005402131
:10378000C5E9000605F1080080E882042846C5E97D
:103790000577C5E907976F62FDF74AFF002818BF54
:1037A000FDF7BCF86563AC6307B0BDE8F08F00BF00
:1037B00043F630000196C4F20200016941F4802111
:1037C0000161016901F4802101910199019601686B
:1037D00041F004010160006802A900F004000190BA
:1037E00001984FF4406002900220CDE903060320C7
:1037F0000590072006900020C4F2020000F500604A
:10380000FEF726F841F2C86546F22800C2F200052C
:10381000C4F202004FF0006185E843004FF400302D
:103820004FF480624FF48073C5E908062846C5E965
:103830000362C5E90566EB61FDF7FAFE002818BFD3
:10384000FDF76CF8272005210022A563AC63FEF785
:10385000ADFA2720FEF796FA07B0BDE8F08F00BF5B
:10386000002643F630000196C4F20200416946F298
:10387000280841F0200141614169C4F2020801F0C9
:103880002001019101990196016841F04001016018
:10389000006802A900F04000019001984FF48440B4
:1038A00002900220CDE9030603200590082006902F
:1038B0000020C4F2020000F5C050FDF7C9FF41F23C
:1038C000287508F58060C2F200054FF020674FF4BC
:1038D000806A4FF48079C5E900072846C5E9026689
:1038E000C5E904A6C5E90669C5E90866FDF7A0FEB5
:1038F000002818BFFDF712F8A563AC6341F2887584
:1039000008F58F60C2F200054021C5E9000705F106
:10391000080080E842042846C5E90566C5E907961F
:103920006E62FDF785FE002818BFFCF7F7FF6563A0
:10393000AC6307B0BDE8F08F7047000070B5044677
:1039400090F83D0020280BD100294FF0010055D000
:10395000002A134608BF70BD94F83C00012801D12D
:10396000022070BD012084F83C0000262120216245
:10397000A384E384266484F83D002268606B46F2E9
:10398000AD7C46F65D0E46F23165C0F6000CC0F621
:10399000000EC0F600050432C0E90FCEC0E9135690
:1039A000FDF7F8FE20686FF04001016084F83C608C
:1039B000206850E8050F216840F0800041E80502CA
:1039C000F2B1206850E8050F216840F0800041E81E
:1039D0000502AAB1206850E8050F216840F0800078
:1039E00041E8050262B1206850E8050F216840F007
:1039F000800041E80502002ADAD1002070BD00BF36
:103A0000002070BD7047000070470000FEE7000016
:103A100041F6DC01C2F2000109684863704700000A
:103A200086B040F604240020C2F20004059004F1A0
:103A3000640004F1540104F160020490CDE9022114
:103A4000FCF722FD40F2A40841F65C20C2F2000817
:103A5000C2F200000221424601F0B2FE606894ED1D
:103A6000195A94ED1A6A94ED1B3A94ED151A94EDD7
:103A7000162A94ED170A40F618350028C2F2000500
:103A800072D098ED064A98ED077AD8ED080A26EE2E
:103A9000077A25EE044A34EE074A23EE207A37EE01
:103AA000044A85ED0C4A98ED104A98ED0F7AD8ED4E
:103AB000110A22EE044A21EE077AD8ED091A37EEF0
:103AC000044A20EE207A37EE044A98ED0A7A65EE31
:103AD000210AD8ED0B1A26EE077A30EE877A63EECC
:103AE000210A85ED0F4A30EE877A016885ED0D7A5F
:103AF00098ED137AD8ED120AD8ED141A22EE077A4F
:103B000061EE200A30EE877A60EE210A30EE877A85
:103B1000D8ED0C0AD8ED0D1AD8ED0E2A26EE216A42
:103B200025EE205A35EE065A23EE223AA96485ED99
:103B3000107A33EE053A416885ED0E3A98ED153A64
:103B400098ED165A98ED176A22EE052A21EE031A0F
:103B500031EE021A20EE060A30EE010AE96485ED24
:103B6000110A806828656BE098ED064A98ED077A9F
:103B7000D8ED080A26EE077A25EE044A34EE074A05
:103B800023EE207A37EE044A85ED0C4A98ED104A70
:103B900098ED0F7AD8ED110A22EE044A21EE077A49
:103BA000D8ED091A37EE044A20EE207A37EE044A9F
:103BB00098ED0A7A65EE210AD8ED0B1A26EE077AFF
:103BC00030EE877A63EE210A30EE877A85ED0D7A42
:103BD00098ED137AD8ED120AD8ED141A22EE077A6E
:103BE00061EE200A30EE877A60EE210A30EE877AA5
:103BF000D8ED0D0AD8ED0C1A26EE206AD8ED0E0A83
:103C000025EE215A35EE065A23EE203A33EE053AD8
:103C100085ED0E3A98ED153A98ED165A98ED176A1B
:103C200022EE052A21EE031A31EE021A20EE060AD0
:103C300030EE010A85ED0F4A85ED107A85ED110A07
:103C400040F6B839C2F200099FEDE09A9FEDE0AA74
:103C500048F2DC0B9FEDDFBA9FEDDFCA9FEDDF8AF4
:103C60009FEDDFEA9FEDDFFADFEDDF8ADFEDDF9A20
:103C7000DFEDDFAADFEDDFBADFEDDFCADFEDDFDA90
:103C800009F5C96009F24C6AC0F6000BB7EE00DA1C
:103C900084ED130A84ED0B4A84ED0C7A84ED0D0A51
:103CA00084ED0E4A84ED0F7A84ED100A84ED114AFA
:103CB00084ED127A01903BE0A88D0138A88595ED3E
:103CC0000C1A95ED0D2A95ED0E3A95ED1A4A95EDE3
:103CD0001B5A24EE294A25EE295A22EE292A21EEE2
:103CE000291A23EE293A84EE2A4A85EE2A5A82EED0
:103CF0002A2A81EE2A1A83EE2A3A00B206EE100A28
:103D0000B8EEC66A26EE2B6A85ED0A0A36EE000A80
:103D100005A8012185ED020A85ED004A85ED035ACB
:103D200085ED042A85ED061A85ED053A03F092F932
:103D300003F09EF905900498DDE90221FCF7A4FB4D
:103D4000002000BF09EB00010E1D4CCE0F6949F8A1
:103D50000020D1F8C0244B60C1F8BC24D1F8C424A1
:103D6000D1F8D034C1F8C024D1F8C8242C30C1F81F
:103D7000C424D1F8CC24C1F8CC34C1F8C8244A6991
:103D8000D1F8D4340A618A69C1F8D0344A61CA6969
:103D9000D1F8D8348A610A6AC1F8D434D1F8DC3455
:103DA000CA614A6AC1F8D834D1F8E0340A62D1F85D
:103DB000E424C1F8DC348B6AC1F8E024CA6AB0F5A7
:103DC000C67FC1E90932D1F8E8248E60CF60C1F81E
:103DD000E424B7D194ED191A019894ED150A80EDF9
:103DE000001A0020B0EE492AB0EE494A89ED630A74
:103DF00009EB000191ED003A01F2BC4232EE032AD8
:103E000092ED003A01F5986234EE033A92ED004AE1
:103E100001F2C44233EE043A92ED004A91ED015AA8
:103E200001F5996291ED026A33EE043A92ED004A8F
:103E300091ED037A32EE052A32EE062A33EE043A89
:103E400091ED044A32EE072A01F2CC4232EE042A06
:103E500091ED054A92ED005A01F59A6232EE042A7C
:103E600091ED064A33EE053A92ED005A01F2D44242
:103E700032EE042A91ED074A33EE053A92ED005AEC
:103E800001F59B6232EE042A91ED084A33EE053AC1
:103E900092ED005A01F2DC4232EE042A91ED094A19
:103EA00033EE053A92ED005A01F59C6232EE042A97
:103EB00091ED0A4A33EE053A92ED005A01F2E442DE
:103EC00032EE042A91ED0B4A33EE053A92ED005A98
:103ED00001F59D6232EE042A91ED0C4A33EE053A6B
:103EE00092ED005A01F2EC4232EE042A91ED0D4AB5
:103EF00033EE053A92ED005A01F59E6232EE042A45
:103F000091ED0E4A33EE053A92ED005A01F2F44279
:103F100032EE042A91ED0F4A33EE053A92ED005A43
:103F200001F59F6232EE042A91ED104A33EE053A14
:103F300092ED005A01F2FC4232EE042A92ED004A60
:103F400033EE053A01F5A06233EE043A92ED004AF1
:103F500001F2045291ED115A33EE043A92ED004A07
:103F600091ED126A91ED137A01F5A16132EE052A05
:103F700033EE043A91ED004A32EE062A503032EE2A
:103F8000072AB0F5C87F33EE044A7FF431AF82EEE2
:103F90000A3A84EE0A2A002089ED643A8AED002A62
:103FA000B1EE425A0BEB000191ED004AB4EE442A07
:103FB000F1EE10FA26D0B4EE454AF1EE10FA1FD019
:103FC0000430C828EED194ED024A1DE00000000044
:103FD0000000C842BC74933C83C00A3F00003442D6
:103FE0005D896EBF5AF8F63FD5A9183B00003443EF
:103FF000DB0F49400000B443000034C300002042FE
:10400000B1EE444A84ED024A94ED085A94ED057AE3
:1040100035EE0B5A35EE0C6A85EE066A33EE473AFA
:1040200032EE442A002085ED0C2A26EE033A3DEEBE
:10403000466A33EE073A25EE065A84ED053A84EDDA
:10404000085A85ED0F3A00BF09EB000101F5CC7766
:104050008CCFC1F89831C1F89421D1F85426D1F809
:10406000A831C1F85026D1F85826D1F8A461C1F87A
:104070005426D1F85C26C1F8A431C1F85826D1F8ED
:104080006026D1F8AC31C1F85C26D1F86426C1F8BD
:10409000A831C1F86026D1F86826D1F8B031C1F84E
:1040A0006426D1F86C26C1F8AC31D1F8B431C1F82E
:1040B0006826D1F87026C1F8B031D1F8B831C1F80E
:1040C0006C26D1F87426C1F8B431D1F8BC31C1F8EE
:1040D0007026D1F87826C1F8B831D1F8C031C1F8CE
:1040E0007426D1F87C262C30B0F5C67FC1E96776FE
:1040F000C1F8BC31C1F87826A6D194ED1A3A94EDF6
:10410000162A09F2DC7080ED003A0020B0EE494A30
:10411000B0EE496A89EDC82A09EB000101F5CA62CF
:1041200091ED655AD2ED002A01F27C6234EE054A27
:1041300036EE225A12ED0A6A01F5CB6335EE065AC5
:1041400093ED006A91ED667AD1ED670A35EE065A75
:1041500012ED086AD1ED681A34EE074A01F5CC6316
:1041600034EE204A91ED697A35EE065A93ED006AF5
:1041700034EE214A34EE074A91ED6A7A35EE065A5A
:1041800012ED066A01F5CD6334EE074A91ED6B7AC4
:1041900035EE065A93ED006A34EE074A91ED6C7ADB
:1041A00035EE065A12ED046A01F5CE6334EE074A85
:1041B00091ED6D7A35EE065A93ED006A34EE074ABA
:1041C00091ED6E7A35EE065A12ED026A01F5CF6373
:1041D00034EE074A91ED6F7A35EE065A93ED006A98
:1041E00034EE074A91ED707A35EE065A92ED006A88
:1041F000D1ED712A01F5D06334EE074A35EE065A47
:1042000093ED006A34EE224AD1ED722A35EE065A59
:1042100091ED736A92ED027A34EE224A01F5D16390
:1042200034EE064A93ED006A35EE075A91ED747A42
:1042300035EE065A91ED756AD2ED040A34EE074A5E
:1042400001F5D26334EE064A93ED006AD2ED061A08
:1042500035EE205A91ED767AD1ED770AD1ED782AB4
:1042600001F5D36135EE065A91ED006A35EE215A1B
:1042700034EE074A35EE065A92ED086A34EE204ACB
:10428000503034EE224AB0F5C87F35EE066A7FF42E
:1042900043AF84EE0A5A86EE0A4A09F5FC6089EDBE
:1042A000C95A80ED004AB1EE447A00200BEB0001C0
:1042B00091ED006AB4EE464AF1EE10FA0CD0B4EE7D
:1042C000476AF1EE10FA05D00430C828EED194ED1B
:1042D000036A03E0B1EE466A84ED036A94ED097A5D
:1042E000D4ED061A37EE0B7A77EE0C0AC7EE200AE9
:1042F00035EE615A34EE464A002085ED0D4A20EE37
:10430000855A7DEE600A35EE215A27EE207A84ED3B
:10431000065A84ED097A85ED105A00BF09EB0001B9
:1043200001F54B778CCFC1F82C33C1F82823D1F895
:10433000E827D1F83C33C1F8E427D1F8EC27D1F8CD
:104340003863C1F8E827D1F8F027C1F83833C1F84D
:10435000EC27D1F8F427D1F84033C1F8F027D1F891
:10436000F827C1F83C33C1F8F427D1F8FC27D1F87D
:104370004433C1F8F827D1F80028C1F84033D1F808
:104380004833C1F8FC27D1F80428C1F84433D1F8E8
:104390004C33C1F80028D1F80828C1F84833D1F8C7
:1043A0005033C1F80428D1F80C28C1F84C33D1F8A7
:1043B0005433C1F80828D1F810282C30B0F5C67F46
:1043C000C1E9CC76C1F85033C1F80C28A6D194EDE0
:1043D000174A94ED1B5A09F2B44080ED004A09F5E2
:1043E000176080ED005A0020B0EE496AF0EE490AED
:1043F00009EB000191EDCA7A01F2E47236EE076A28
:1044000092ED007A01F5FD6230EE877AD2ED000A76
:1044100001F2EC7237EE207AD2ED000AD1EDCB1A20
:1044200001F5FE62D1EDCC2A37EE207AD2ED000AFA
:10443000D1EDCD3A36EE216A36EE226A37EE207A99
:10444000D1EDCE0A36EE236A01F2F47236EE206A1E
:10445000D1EDCF0AD2ED001A01F5FF6236EE206AE7
:10446000D1EDD00A37EE217AD2ED001A01F2FC72BA
:1044700036EE206AD1EDD10A37EE217AD2ED001A5C
:1044800001F5006236EE206AD1EDD20A37EE217ACC
:10449000D2ED001A01F6040236EE206AD1EDD30AFD
:1044A00037EE217AD2ED001A01F6080236EE206AC4
:1044B000D1EDD40A37EE217AD2ED001A01F60C02C2
:1044C00036EE206AD1EDD50A37EE217AD2ED001A08
:1044D00001F5016236EE206AD1EDD60A37EE217A77
:1044E000D2ED001A01F6140236EE206AD1EDD70A99
:1044F00037EE217AD2ED001A01F6180236EE206A64
:10450000D1EDD80A37EE217AD2ED001A01F61C025D
:1045100036EE206AD1EDD90A37EE217AD2ED001AB3
:1045200001F5026236EE206AD1EDDA0A37EE217A21
:10453000D2ED001A01F6240236EE206AD2ED000A0E
:1045400037EE217A01F6280237EE207AD2ED000A02
:1045500001F62C02D1EDDB1A37EE207AD2ED000AFB
:10456000D1EDDC2AD1EDDD3A01F5036136EE216AA9
:1045700037EE207AD1ED000A36EE226A503036EE60
:10458000236AB0F5C87F77EE200A7FF431AF86EE5C
:104590000A7A80EE8A6A09F5976080ED007A09F65A
:1045A000741080ED006AF1EE461A00200BEB00015A
:1045B000D1ED000AB4EE606AF1EE10FA0CD0F4EE20
:1045C000610AF1EE10FA05D00430C828EED1D4ED1E
:1045D000040A03E0F1EE600AC4ED040AD4ED0A1AFD
:1045E000D4ED073A71EE8B1A71EE8C2AC1EEA22A35
:1045F00037EE637A606836EE606A002885ED0E6AF1
:1046000022EE877A7DEE622A37EE237A61EEA21AD5
:1046100084ED077AC4ED0A1A85ED117A00F09680D0
:1046200098ED066A98ED077AD8ED080A23EE077A26
:1046300021EE066A36EE076A25EE207A37EE066A24
:1046400085ED0C6A98ED106A98ED0F7AD8ED110A95
:1046500022EE066A20EE077A37EE066A24EE207A0A
:1046600037EE066AD8ED091A85ED0F6A98ED0A6AE9
:10467000D8ED0B0A23EE066A21EE217A37EE066AA0
:1046800025EE207A37EE066A016885ED0D6A98ED11
:10469000136A98ED127AD8ED140A22EE066A20EE1B
:1046A000077A37EE066A24EE207A37EE066A85ED41
:1046B000106A98ED0C6A98ED0D7AD8ED0E0A23EE8B
:1046C000073A21EE061A31EE031A25EE203AA964C4
:1046D00033EE011A416885ED0E1A98ED151A98ED22
:1046E000163A98ED175A22EE032A20EE010A30EE10
:1046F000020A24EE051A31EE000AE96485ED110A7A
:10470000806828656078D4ED180A012840F0908010
:1047100041F65C26C2F200063046B0EE480A02F0CE
:104720008FFA96ED0A0AB5EE400AF1EE10FA07DAB2
:1047300041F65C20C2F200000021B0EE490A81621D
:10474000BDEEC00A10EE100A89E000BF98ED066ABF
:1047500098ED077AD8ED080A23EE077A21EE066A6B
:1047600036EE076A25EE207A37EE066A85ED0C6A8A
:1047700098ED106A98ED0F7AD8ED110A22EE066ACC
:1047800020EE077A37EE066A24EE207AD8ED091A71
:1047900037EE066A98ED0A7AD8ED0B0A85ED0F6AB6
:1047A00023EE076A21EE217A37EE066A25EE207A9B
:1047B00037EE066A85ED0D6A98ED136A98ED127A68
:1047C000D8ED140A22EE066A20EE077A37EE066A62
:1047D00024EE207A37EE066A85ED106A98ED0D6AB0
:1047E00098ED0C7A23EE063A98ED0E6A21EE071A40
:1047F00031EE031A25EE063A33EE011A85ED0E1A54
:1048000098ED151A98ED163A98ED175A22EE032AEC
:1048100020EE010A30EE020A24EE051A31EE000AFB
:1048200085ED110A6078D4ED180A01283FF470AFC5
:10483000F4EE6D0AF1EE10FA0FDD20780130C1B20E
:10484000C929207024BF0120607041F65C2000213E
:10485000C2F20000C4F27A41016240F2CF70FFF769
:10486000D7F8A06B616CE062A16394ED0B0A94ED44
:104870000E1A95ED0F2A20EE0E0A21EE0F1AD4E93A
:104880000F01D4E9122331EE000A22EE281A31EE8C
:10489000000AC4E90C01C4E90F2384ED110A94ED68
:1048A0000C0A94ED0F1A95ED102A20EE0E0A21EE57
:1048B0000F1A31EE000A22EE281A31EE000A84EDBA
:1048C000120A94ED0D0A95ED191A20EE0E2A21EE2A
:1048D000290A80EE2A0A94ED101A95ED113A21EE7C
:1048E0000F1A31EE021A23EE282A32EE011A84ED55
:1048F000131A95ED0A1A05F13C0207CA6A62C5E966
:10490000070130EE411AB4EE691AF1EE10FA85EDA6
:10491000010A3FF7D1A9A88DB4EE6C1AF1EE10FA96
:10492000BFF6CDA90130FFF7C9B9000000214FF053
:104930007E52416180ED090AC0ED0A0AC0E90721F3
:10494000C262C0E90011704790ED051A90ED072A88
:1049500090ED093A90ED0A4A22EE011A31EE031A5F
:1049600031EE043A81EE033A90ED004A80ED031AED
:1049700022EE042A30EE420A80ED012A23EE000ADC
:1049800030EE020AB7EE002A32EE432A21EE021A76
:1049900080ED063A80ED020A80ED041A80ED051ADA
:1049A00080ED000A7047000040F6380CC2F2000C9F
:1049B00041F23C519CF82720C2F2000191F85E00C0
:1049C000D309984281F85F301EBF0020A1F85A0039
:1049D00081F85E3050B291F85D2000280ED47AB193
:1049E000B1F85A00013082B2062AA1F85A0017D352
:1049F0000020A1F85C009CF80E007047022A1BD131
:104A00000020A1F85A0091F85C1004290ED0012969
:104A100002D101208CF80E009CF80E00704700BFF8
:104A2000052AF0D140F20440A1F85C0000208CF887
:104A30000E009CF80E007047B1F85A00013082B2A7
:104A4000B2F5FA7FA1F85A0006D340F20220A1F88D
:104A50005C009CF80E007047062A05D340F2011056
:104A6000A1F85C00D5E700BF052ACCD140F20330A5
:104A7000A1F85C009CF80E007047000040F6380C6E
:104A8000C2F2000C41F23C519CF82620C2F2000117
:104A900091F82E00D309984281F82F301EBF0020D4
:104AA000488581F82E3050B291F82D2000280BD483
:104AB00062B1488D013082B2062A488514D30020A5
:104AC00088859CF807007047022A19D10020488584
:104AD00091F82C1004290CD0012902D101208CF866
:104AE00007009CF807007047052AF1D140F2044006
:104AF000888500208CF807009CF80700704700BFED
:104B0000488D013082B2B2F5FA7F488506D340F273
:104B1000022088859CF80700704700BF062A03D34F
:104B200040F201108885D9E7052AD1D140F203303F
:104B300088859CF80700704740F63800C2F20000F4
:104B400041F23C5190F82720C2F2000191F83A302E
:104B5000C2F34002934281F83B201EBF0023CB8664
:104B600081F83A2091F8393052B95BB1CA8E531CA2
:104B70009AB2062ACB861BD30022007A0A87704796
:104B8000022B09D10022CA8691F83810042914D0CA
:104B900001291CD0007A7047CA8E531C9AB2B2F514
:104BA000FA7FCB860ED340F20222007A0A87704742
:104BB000052AE9D140F204420A8700210172007AF5
:104BC000704700BF062A07D340F201120A8701216D
:104BD0000172007A704700BF052AD5D140F2033236
:104BE000007A0A877047000040F63800C2F20000E1
:104BF00041F23C5190F82620C2F2000191F8283091
:104C0000C2F38012934281F829201EBF00238B84B7
:104C100081F8282091F8273052B95BB18A8C531C57
:104C20009AB2062A8B841BD300228079CA847047EB
:104C3000022B09D100228A8491F82610042914D06D
:104C400001291CD0807970478A8C531C9AB2B2F526
:104C5000FA7F8B840ED340F202228079CA84704797
:104C6000052AE9D140F20442CA8400218171807989
:104C7000704700BF062A07D340F20112CA840121FF
:104C800081718079704700BF052AD5D140F2033287
:104C90008079CA847047000040F63800C2F20000F4
:104CA00090F8271041F23C50C2F2000090F83420F6
:104CB00001F001018A4280F835101EBF00220286F1
:104CC00080F8341090F8332051B9DAB1018E4A1CC3
:104CD00091B20629028619D30021418627E000BF40
:104CE000022A03D10021018621E000BF018E4A1C67
:104CF00091B2B1F5FA7F02860ED340F202214186CD
:104D000015E000BF0021018611E000BF052904BFA6
:104D100040F2044141860AE0062903D340F2011122
:104D2000418604E0052904BF40F20331418690F832
:104D300032000338B0FA80F04009704740F638007E
:104D4000C2F2000041F23C5190F82620C2F200016C
:104D50000B7FC2F3001293424A771EBF00230B83DE
:104D60000A77CB7E52B95BB10A8B531C9AB2062AE2
:104D70000B831BD3002240794A837047022B09D151
:104D800000220A83897E042915D001291DD040798B
:104D9000704700BF0A8B531C9AB2B2F5FA7F0B839F
:104DA0000ED340F2022240794A837047052AE9D1A6
:104DB00040F204424A83002141714079704700BFAC
:104DC000062A07D340F201124A830121417140793A
:104DD000704700BF052AD5D140F2033240794A839B
:104DE0007047000040F6380CC2F2000C41F23C5112
:104DF0009CF82420C2F2000191F86400002A1346B6
:104E000018BF0123984281F865301EBF0020A1F829
:104E1000600081F86430012A12D0C2B991F86300B1
:104E200090B1B1F86000013082B2062AA1F86000AA
:104E30002AD30020A1F862009CF80F00704700BF41
:104E400091F8630002280FD10020A1F8600091F8CA
:104E5000621004291ED0012902D101208CF80F0014
:104E60009CF80F00704700BFB1F86000013082B2BB
:104E7000B2F5FA7FA1F8600012D340F20220A1F847
:104E800062009CF80F007047052AE0D140F2044010
:104E9000A1F8620000208CF80F009CF80F0070470A
:104EA000062A05D340F20110A1F86200D5E700BF41
:104EB000052ACCD140F20330A1F862009CF80F0023
:104EC0007047000040F6380CC2F2000C41F23C5131
:104ED0009CF82520C2F2000191F86A00002A1346CE
:104EE00018BF0123984281F86B301EBF0020A1F843
:104EF000660081F86A30012A12D0C2B991F86900BF
:104F000090B1B1F86600013082B2062AA1F86600BD
:104F10002AD30020A1F868009CF81000704700BF59
:104F200091F8690002280FD10020A1F8660091F8DD
:104F3000681004291ED0012902D101208CF810002C
:104F40009CF81000704700BFB1F86600013082B2D3
:104F5000B2F5FA7FA1F8660012D340F20220A1F860
:104F600068009CF810007047052AE0D140F2044028
:104F7000A1F8680000208CF810009CF81000704721
:104F8000062A05D340F20110A1F86800D5E700BF5A
:104F9000052ACCD140F20330A1F868009CF810003B
:104FA0007047000010B541F2B85046F20041C2F21D
:104FB0000000C4F2000140F2001403220023C0F2FA
:104FC000010480E80E0000F10C014FF4102C4FF4A6
:104FD000001E81E8085084618383FCF755F800289F
:104FE00008BF10BDBDE81040FBF798BC10B541F2FA
:104FF000E05046F60001C2F20000C4F2000140F2A7
:10500000001403220023C0F2010480E80E0000F126
:105010000C014FF4102C4FF4001E81E808508461FD
:105020008383FCF731F8002808BF10BDBDE81040AD
:10503000FBF774BC80B582B0002043F630010190CC
:10504000C4F202010A6842F400120A600A6802F41B
:1050500000120192019A00900868002240F480003A
:1050600008600868052100F48000009000980C207A
:10507000FCF79CFE0C20FCF785FE39200521002260
:10508000FCF794FE3920FCF77DFE3A200521002232
:10509000FCF78CFE3A20FCF775FE45200521002226
:1050A000FCF784FE4520FCF76DFE4620052100221A
:1050B000FCF77CFE462002B0BDE88040FCF762BEF3
:1050C000F0B5B9B048F28C00C0F6000090E81E5070
:1050D000806932AD85E81E50389032A8002101F079
:1050E000CFFF40F6C807C2F20007386048F27000F0
:1050F000C0F6000090E87E0080690DF1AC0C8CE8F1
:105100007E0031902BA8002101F0BAFF786048F2B0
:10511000A800C0F6000090E84E00D0E90454806971
:105120000DF1900C8CE84E002A9024A80021CDE9C6
:10513000285401F0A5FF2E49B8602DA0061D1D9131
:105140004ECED0E905500DF1780C8CE84E00CDE93B
:1051500022501DA8002101F093FF2C49F8602BA0DC
:10516000061D16914ECED0E905500DF15C0C8CE871
:105170004E00CDE91B5016A8002101F081FF2A49FD
:10518000386129A0061D0F914ECED0E905500DF1D2
:10519000400C8CE84E00CDE914500FA8002101F01E
:1051A0006FFF2849786127A0061D08914ECED0E9EF
:1051B00005500DF1240C8CE84E00CDE90D5008A8E7
:1051C000002101F05DFF2649B86125A0061D01916F
:1051D0004ECED0E905500DF1080C8CE84E00CDE91B
:1051E000065001A8002101F04BFFF86139B0F0BD75
:1051F000688200089D5C0008FDFF000000000000C0
:10520000800000000000000000000000558200083F
:10521000213A0008FDFF00000000000080000000AF
:10522000000000000000000073820008255C0008F8
:10523000FDFF0000000000008000000000000000F2
:10524000000000005E820008ED070008FDFF00007E
:1052500000000000800000000000000000000000CE
:105260003C820008656A0008FDFF000000000000A5
:105270008000000000000000000000002DE9F04761
:1052800086B0002443F6300005940094C4F2020076
:10529000016840F6000841F0020101600168C4F2B3
:1052A000020801F0020100910099009401680022B7
:1052B00041F04001016001684FF4807701F0400146
:1052C000009100990094016841F0010101600168BA
:1052D00001F00101009100990094016841F008017A
:1052E0000160016801F008010091009900940168D3
:1052F00041F004010160016801F00401009100998E
:105300000094016841F080010160016801F08001B2
:10531000009100990094016841F02001016001684A
:1053200001F02001009100990094016841F0100102
:10533000016000684FF4807100F010000090009848
:105340004046FCF759FBA8F50066304610210022C4
:105350004FF0100AFCF750FBA8F5806528460121A4
:1053600000224FF00109FCF747FBCDE9017901AFBD
:1053700040463946CDE90344FCF76AFA30463946DF
:10538000CDE901A9CDE90344FCF762FA3020019090
:105390004FF48810CDE9020440463946FCF758FA2C
:1053A00028463946CDE90199CDE90344FCF750FA86
:1053B0000A2005210022FCF7F9FC0A20FCF7E2FC98
:1053C000172005210022FCF7F1FC1720FCF7DAFC7E
:1053D00006B0BDE8F087000080B541F2E87045F600
:1053E0000041C2F20000C4F2000148F2A0620023B2
:1053F0004FF4804CC0F2010280E80E00C0E9033C8B
:10540000C0E90533C0E90733FCF702FB002808BFF9
:1054100080BDBDE88040FBF781BA000010B541F6C1
:105420003C0043F20001C2F20000C4F201014FF45B
:10543000827200234FF0010C4FF4007E102480E8AC
:105440000E000A21C0E90333C0E905CEC461C0E9FA
:105450000833C0E90A31FCF7CDFF002808BF10BDB2
:10546000BDE81040FBF75ABAB0B58CB044F2004525
:1054700041F6DC00C4F201050021C2F2000041F255
:105480008732CDE90511CDE90311C0E90051C0E92A
:10549000021201618161FDF76BFA002818BFFBF76A
:1054A0003DFA41F6DC00C2F20000FDF7B1FD002834
:1054B00018BFFBF733FA602041F6DC0400900020AF
:1054C000C2F20004CDE901000490694620460022A2
:1054D000FDF78CFC002818BFFBF720FA2068A842D3
:1054E0001AD00021C4F20101884232D10020079075
:1054F00043F63000C4F2020001684FF4285241F034
:10550000100101600068012100F010000790079869
:1055100005F54C4013E000BF0020079043F6300033
:10552000C4F202000168402241F0200101600068DD
:10553000032100F020000790079805F550400792DE
:105540000222089200220B9107A9CDE90922FCF75B
:105550007FF90CB0B0BD0000B0B59CB0002541F69D
:105560009400C4F201050021C2F20000532244F667
:105570001F631691CDE914111191CDE90F11CDE9F9
:105580000D11CDE90B11CDE90911CDE90711CDE9D7
:105590000511CDE90311CDE90111C0E90052C0E9BF
:1055A0000213C0E904118161FDF7E2F9002818BF78
:1055B000FBF7B4F94FF48050139041F69400C2F217
:1055C000000013A9FDF788FA002818BFFBF7A6F919
:1055D00041F69400C2F20000FDF71AFD002818BF42
:1055E000FBF79CF941F694000024C2F2000010A9D8
:1055F000CDE91044FDF760F9002818BFFBF78EF9DC
:105600006020CDE9090441F69400C2F2000009A926
:105610000022CDE90B44CDE90D440F94FDF7E6FBE4
:10562000002818BFFBF77AF941F69400C2F2000097
:1056300009A90422FDF7DAFB002818BFFBF76EF971
:1056400041F69400C2F2000009A90822FDF7CEFB42
:10565000002818BFFBF762F941F6940400204FF4CC
:105660000051C2F200040590CDE90300CDE901002C
:105670000691089001A92046FDF7F8F8002818BF08
:10568000FBF74CF9206844F20041C4F20101884262
:1056900016D0A84231D10020179043F63000C4F252
:1056A000020001684FF4285241F0100101600068C7
:1056B000012100F010001790179805F5883012E0CE
:1056C0000020179043F63000C4F202000168402227
:1056D00041F0200101600068032100F020001790D4
:1056E000179805F58A3017920222189200221B9112
:1056F00017A9CDE91922FCF7ABF81CB0B0BD00002A
:1057000080B541F66C1041F20001C2F20000C4F213
:10571000010100234FF00C0C4FF4E13280E80E0041
:10572000C0E90333C0E905C3C361FDF76BFF00287F
:1057300008BF80BDBDE88040FBF7F0B880B541F6FA
:10574000B01044F60001C2F20000C4F2000148F2B9
:10575000A06200234FF00C0CC0F2010280E80E00A2
:10576000C0E90333C0E905C3C361FDF74BFF00285F
:1057700008BF80BDBDE88040FBF7D0B880B541F6DA
:10578000F41041F20041C2F20000C4F20101002312
:105790004FF00C0C4FF4E13280E80E00C0E9033307
:1057A000C0E905C3C361FDF72DFF002808BF80BD18
:1057B000BDE88040FBF7B2B8FEE70000FEE700005E
:1057C00045F65103017045F66501C0F60003C0F6C9
:1057D0000001C0E912130021002AC0E90311C0E949
:1057E0000511C0E907114162816208BF7047136863
:1057F00083635368C36393680364D368C3621369A4
:1058000003635269A0F84410426380F84610C0E96F
:105810000711C0E909117047B0B5C26C04460D46C6
:105820009047A869A063E869E063286A2064686A11
:10583000E062A86A2063E86A60630020A4F844007C
:1058400084F84600C4E90700C4E90900B0BD0000BF
:105850000021C0E90311C0E90511C0E90711C0E941
:1058600009117047002908BF7047B0B50D46C16CDB
:10587000044688472868A0636868E063A8682064D5
:10588000E868E06228692063686960630020A4F822
:10589000440084F84600C4E90700C4E90900B0BD2B
:1058A000EFF30980BFF36F8F154B1A681EF0100FCE
:1058B00008BF20ED108A20E9F04F10602DE90900A3
:1058C0004FF0500080F31188BFF34F8FBFF36F8FFD
:1058D00002F052F94FF0000080F31188BDE8090092
:1058E00019680868B0E8F04F1EF0100F08BFB0EC60
:1058F000108A80F30988BFF36F8F704700BF00BF25
:10590000E80800202DE9F04F8BB001680A68D20644
:1059100040F1FD8000220A920A680A9249680A91C1
:105920000A99806B006801680268090322F001028D
:1059300002604FF02402436842600268C3F1240110
:105940003ED442F400220260026889B242F00102B1
:105950001229026040F0DB8040F67822C2F2000299
:1059600002F13F00099002F13E00089002F13D0073
:10597000079002F13C00069002F13B00059002F115
:105980003A00049002F13900039002F138000290CD
:1059900002F13700019002F13600009002F1410A55
:1059A00002F1400002F1350B02F1340102F1330C37
:1059B00002F1320E02F1310802F130093DE000BF80
:1059C00022F400220260026889B242F00102122928
:1059D000026040F09C8040F67822C2F2000202F1A0
:1059E0006300099002F16200089002F161000790E3
:1059F00002F16000069002F15F00059002F15E0086
:105A0000049002F15D00039002F15C00029002F14B
:105A10005B00019002F15A00009002F1650A02F168
:105A2000640002F1590B02F1580102F1570C02F126
:105A3000560E02F1550802F1540999F8004098F801
:105A4000009098F800709EF800809EF800E09CF8A6
:105A5000005091F800C00E789BF8002000789AF86A
:105A600000A09BF8001069F30A24C1F3011340F66B
:105A70003801C2F200010B779BF8003076089B09D1
:105A80004B77009B62F3CA1693F800B0019B6AF350
:105A90000A201B78A0F580604BEA0323CB83FB0828
:105AA000029F68F34A1397F80090039F4FEA850816
:105AB0003F78049D49EA07270F8495F80090059DDB
:105AC00048EA9E172D786CF38A2749EA05254D840C
:105AD000069D2D7881F82450079D2D78089A81F82D
